:020000040040BA
:10C000005810432085EE400069EF400069EF400082
:10C0100069EF400069EF400069EF40000000000058
:10C02000000000000000000000000000112F42008E
:10C0300069EF400000000000B12F420069EF4000AE
:10C04000B9EF4000B9EF4000B9EF4000B9EF400050
:10C05000B9EF4000B9EF4000B9EF4000B9EF400040
:10C06000B9EF400000000000BDD64000CDD6400032
:10C0700000000000B9EF4000B9EF40002106420087
:10C08000DDD6400000000000B9EF4000B9EF4000ED
:10C09000B9EF400029F54100B9EF4000B9EF400089
:10C0A000B9EF4000B9EF40000000000000000000C0
:10C0B0000000000099D54000B9EF4000B9EF400002
:10C0C000B9EF4000B9EF40000DE74000B9EF400084
:10C0D00000000000B9EF400000000000B9EF400090
:10C0E000A9D54000B9EF4000B9EF4000B9EF4000DA
:10C0F000B9EF4000B9EF4000AD064200000000007B
:10C100000000000000000000B9EF400015304200C0
:10C11000B9EF400000000000000000000000000037
:10C12000B9EF4000B9EF4000B9EF4000B9EF40006F
:10C13000B9EF40000000000000000000B9EF40002F
:10C1400010B5054C237833B9044B13B10448AFF351
:10C1500000800123237010BDE41440200000000083
:10C16000000060000C4B43B10C480D4910B5AFF313
:10C1700000800C48036823B910BD0A48036833B92E
:10C180007047094B002BF7D0BDE810401847064B0D
:10C19000002BF5D0184700BF000000000000600031
:10C1A000E81440208CD142000000000010B5044B80
:10C1B0009847044B00209847034BBDE810401847B0
:10C1C0001DD84000CDD84000E1D84000004B1847B2
:10C1D000EDD8400070B51048104C114DA0473E21DD
:10C1E0000120104B9847A8470028FCD00E4B9847D9
:10C1F0000E4D0F4A0F4B9A62A8470028FCD0022030
:10C200000D4B98470D4B002098470D4B9847234600
:10C210000148BDE87040184700A3E111B5F04000A7
:10C22000EDD74000A1D74000FDD740000DD8400019
:10C23000013F182000060E40EDD640005DD74000BB
:10C24000E1EF400082B0EFF31083B3FA83F35B09B0
:10C25000019372B6BFF35F8F0022024B1A700198F0
:10C2600002B07047B0054020024A1378013BDBB2B0
:10C27000137070470B154020002070470020704756
:10C2800001490020014B184704154020A90742002E
:10C29000064A08B51378013BDBB21370044B1078E3
:10C2A00098470022034B1A7008BD00BF0C154020B0
:10C2B000490742000215402028B10122024B1A70A2
:10C2C000BFF35F8F62B67047B005402038B50024D9
:10C2D000114B124DA122124920462C701C80114B8B
:10C2E0000C711A7020225C805A7001221C819A8085
:10C2F00002224C71DA804FF4E1330B6008238B711A
:10C30000094B98472046094B984718B12B780133C1
:10C31000DBB22B7038BD00BF1A1940200B1540202E
:10C32000041540202C1D4020A9074200450742006B
:10C33000394B2DE9F04F85B01A78039362BB374F24
:10C34000374DA8473C8818B3364B9847844223D0D2
:10C35000354B9847354B364E83461C789946DFF867
:10C36000E880E4B2DFF8E4A036F81420F2B9B8F8B7
:10C3700000200132A8F80020A84780B9B8F80020B2
:10C38000632A0CD85846534605B0BDE8F04F18470D
:10C39000284B98478442DBD105B0BDE8F08FA84711
:10C3A00020B1B8F80020B2F5487FEBD3224B002231
:10C3B0001B78A8F8002023BBB4FA84F35B0989F842
:10C3C00000300123039A58461370D04736F81430D2
:10C3D000B3F5007F14BF4FF001084FF0000818D0EC
:10C3E000A84790B10F4B98473880144A414636F819
:10C3F000143086200092124A02EB4422114CA047CE
:10C40000CAE7B4FA84F46409DBE70A4B984738803A
:10C41000EBE700233B80E8E7281D4020261D402055
:10C42000E9E0400045E1400045C24000241D4020B5
:10C43000201D402035E140001C19402059C4400017
:10C440002019402051E3400000154020B9C24000AF
:10C45000004B184731C3400068B9074B074A1B78A7
:10C46000B3FA83F35B0922F81300054B1870054BF0
:10C470001870054B18477047241D4020201D402090
:10C480001C194020281D402031C3400073B50A4CC0
:10C49000217871B9094D0A4A2B8816899BB29E42B0
:10C4A00007D02B88074D1381074B00930A23A84719
:10C4B000207002B070BD00BF191940201A19402029
:10C4C0002C1D402051E34000CDC440000021084B0A
:10C4D0001046197007490B8823F07C031B041B0CC2
:10C4E0000B8005490B8923F07C030B81034B184714
:10C4F000191940201A1940202C1D40208DC44000DD
:10C5000010B50A4B04469847094A13889BB244B1B8
:10C5100019431180074B98478520074BBDE8104011
:10C52000184723EA01011180F4E700BF45C240002B
:10C530001A194020B9C240008DC4400008B5154BFF
:10C540001A7812F0800F02F060020CD0202A11D16C
:10C550005A78212A0ED1DA88072A0BD10E490120F8
:10C560009A81996008BD202A04D15A78202A03D0E4
:10C57000222A07D0002008BDDA88072AFAD1074905
:10C580001961EBE799780020054B01F0010198470C
:10C59000012008BD64F041200415402081C2400004
:10C5A0007D07420040210120004B184701C5400093
:10C5B00010B5084B9847084B084A1988084B89B2B0
:10C5C0001B78DBB232F81340064BA4B29847601ACE
:10C5D00010BD00BF45C24000161940201019402070
:10C5E00014194020B9C240000020014B184700BF79
:10C5F000B1C5400008B5034B9847003018BF012073
:10C6000008BD00BFB1C54000F7B51C4F1C4E1D4B07
:10C6100098473C7833788446E4B21B4903F0FF0521
:10C6200053B9DFF880E0194BBEF8002033F814301E
:10C6300092B29BB29A4204D260468847002003B06F
:10C64000F0BDB4FA84F3AEF800505B093B700123EF
:10C650003370884728460E4B984710B128460D4B3B
:10C6600098470D4B01210D4A072000934FF40073AA
:10C6700002EB44220A4CA047E1E700BF1419402016
:10C680001819402045C24000B9C24000101940208E
:10C69000F5C540005D0842002DC740001015402040
:10C6A00051E340001619402038B50024124B134DB9
:10C6B0002C701C70124B1C70124B1C70124B1C8087
:10C6C0005C80124B1C80124B9847124B1C70124B13
:10C6D0001C70124B1C805C80114B1C80114B9847C6
:10C6E00048B12B780133DBB22B702B78DBB2012BF6
:10C6F00001D10D4A137038BD281D40200C15402073
:10C700001C194020241D4020201D4020261D4020B3
:10C7100031C340001819402014194020101940203E
:10C720001619402009C640000215402013B51446D2
:10C7300080B90F4B1A78B2FA82F2520961B90D4BE7
:10C7400020460D4900934FF4007301EB42220B4C3D
:10C750000121A04702B010BD89B2094B23F8121085
:10C76000084B1870084B02B0BDE81040184700BFD6
:10C77000141940202DC740001015402051E34000FF
:10C78000101940201819402009C640000020014B14
:10C79000184700BFF5C540002DE9F84F0E46154675
:10C7A000DFF884801A4FDFF88490C047398899F801
:10C7B00000A0DFF87CB089B25FFA8AFA154B3BF82B
:10C7C0001A409847A4B2A14206D3134B1B78002B02
:10C7D000EBD12846BDE8F88F3BF81A4030460F4BA6
:10C7E000A4B2641A01EB4A21AC4219440C4B28BF95
:10C7F0002C4622462D1B98473B88264414FA83F387
:10C800009BB23B80074B9847002DCED1E1E700BF9C
:10C8100016194020B9C240000215402010154020D2
:10C82000BD4A420009C6400045C2400014194020DC
:10C83000101940200A46024B01460020184700BF4D
:10C8400099C740000F4B70B598470F4A0F491378AE
:10C85000DBB231F81310B1F5007F0ED10C4C247807
:10C860005CB90C4C257805F0FF0635B90121B3FA07
:10C8700083F321705B0931461370074B9847C1F56C
:10C88000007070BD45C24000241D4020201D402086
:10C89000281D40201C194020B9C2400008B5034B98
:10C8A0009847003018BF012008BD00BF45C84000B0
:10C8B0000020014B184700BF9DC84000174B2DE9D1
:10C8C000F0419C790D46164EA4F10903154FDFF88F
:10C8D00068805C425C410020B04738B9124B1B783D
:10C8E00003F0FF00002BF6D1BDE8F081B84798F8BF
:10C8F00000300E4ADBB232F8131001F1010E22F8BB
:10C9000013E00B4A02EB43235D540A4B984714B1E2
:10C910002D120024DFE70120BDE8F081041540203E
:10C920009DC8400045C2400002154020201D402007
:10C9300020194020B9C24000241D40200146014B6F
:10C9400000201847BDC84000014B1878704700BF51
:10C95000361D4020024B1B780BB9024B184770471D
:10C96000361D402015014200064B10B59847064A77
:10C97000C37813701BB9054BBDE810401847012060
:10C9800010BD00BF21CB4000361D402009024200EF
:10C990000B4A137813F0800F03F0600305D0402B8F
:10C9A0000BD153784BB9074B1847402B05D153781F
:10C9B0001BB9D3880BB1044B18470020704700BF48
:10C9C00064F041202D01420029014200024B987879
:10C9D000024B00F07F00184764F04120FDE040006A
:10C9E000134B70B51B780BB9002070BD114B1B6841
:10C9F0001B681A798242F7D90F4A002413605D88B8
:10CA00001D449D4203D8002CEED01360ECE75E7805
:10CA1000042E09D19E78864206D1DE788E4203D15B
:10CA200004B11360012070BD1C7823440124E8E7A1
:10CA3000401D4020441D4020481D4020094B1B68DC
:10CA40001B685A881A4403781844904201D3002086
:10CA500070474378042BFAD0052BF9D0037818449B
:10CA6000F3E700BF441D40202DE9F0410E4B054681
:10CA7000984768B10D4B0E4F1C680E4E2046B847C4
:10CA8000044640B18288C1788078B0470028F5D14B
:10CA90000020BDE8F081084B1B685B6853F8253027
:10CAA000BDE8F0411B681847E1C94000481D40201F
:10CAB0003DCA400061E44000441D40202DE9F041A2
:10CAC0000021124C0546A04718B900252846BDE8AC
:10CAD000F0810F4B1B685B6853F82560F36898473B
:10CAE00001462846A04705460028EED0094BDFF84E
:10CAF0002C801C68084F2046C047044610B180783F
:10CB0000B847F8E773689847E0E700BFE1C940001D
:10CB1000441D4020481D402061E140003DCA4000C6
:10CB2000014B1868704700BF481D4020004B184754
:10CB30007DDF4000F8B50A4C22784AB10025094E45
:10CB4000094F3368E8B201351B681B79834205D869
:10CB5000002301222370054B1A80F8BDB847F0E787
:10CB6000401D4020441D4020BDCA4000381D4020CB
:10CB700010B5034B9847034BBDE81040184700BF62
:10CB800089E0400035CB400038B50A4B1B783BB1FB
:10CB90000024094D2A6813681979E3B2994200D834
:10CBA00038BD526852F823301B6903B198470134ED
:10CBB000F0E700BF401D4020441D40202DE9F84310
:10CBC000964C0023A3812361636123785AB2002A23
:10CBD00005DAE18819B900252846BDE8F88313F085
:10CBE000600140F09380002A80F2A081E588002D4A
:10CBF00000F08C8013F01F0340F05A816378062BFD
:10CC00000DD0082B00F04C81002B7FD1022D40F07D
:10CC1000838029468248834B01259847DCE7638857
:10CC2000DEB21B0A013B0E2B70D8DFE803F0081BB5
:10CC3000626F6F383E6F6F6F6F6F6F6F5B007A4B15
:10CC40009847784B794A48B9906801789847E388C3
:10CC5000A2899A4200F221810125BDE7106801787E
:10CC60009847F4E7704B9847704B68B19A68527CCC
:10CC7000B2424BD91B6953F836006A4B418898473A
:10CC8000A36802225A70E2E71A68527CB2423DD988
:10CC90005B6853F83600634B41889847F0E7634B75
:10CCA000D868604B01789847D1E75F4B98475F4B56
:10CCB00068B99A68527CB24228D91B6953F8360089
:10CCC000584B41889847A36807225A70BFE71A68F3
:10CCD000527CB2421AD95B6853F83600514B4188F6
:10CCE0009847F0E7514B5869B0B141884D4B984790
:10CCF000ADE7022E00F0848038D8002E44D0012EFB
:10CD000047D04B4B9847002840F07682237803F0B9
:10CD10001F03012B00F01C82237803F01F03022B5A
:10CD20000FD1444B1B7863B10027DFF84C81DFF84B
:10CD30004C91D8F80030FEB21A681279B24200F273
:10CD40002C822378C02B40F03A826378EE2B7FF45C
:10CD500042AFA388042B7FF43EAF37480388E188B5
:10CD6000994228BF19462F4B984775E7032E00F0CC
:10CD70008780EE2EC5D1314B30481978294B8D4232
:10CD800038BFE9B2984762E704212D48254B984700
:10CD90005DE72C4D21262C4B984750B12B482C4B4E
:10CDA000984730B1294F2B4B38789847002840F0EE
:10CDB0001382002E3FF44BAF002D3FF448AF2649BD
:10CDC000721E6B1E0F4655FA82F513F8012F9D4215
:10CDD00021F8022FF9D1214B3046214D9847114BB4
:10CDE000014638701C4898472B78002B7FF42FAFF2
:10CDF0001C4B1D4A79783878984701232B7026E719
:10CE00001A4D0D261A4B98470028D2D0194B0F48BF
:10CE10009847C6E700252E46F4E700BF64F041209E
:10CE2000381D402055E14000E9E04000F00240207C
:10CE3000F5084200401D402020024020DC02402036
:10CE40007C054020800540205100420038044020ED
:10CE50007D164200FD16420038054020271742008B
:10CE6000371D4020591842003A054020A2054020B5
:10CE700055004200A1164200441D4020E1C9400077
:10CE8000994D0C26994B9847002892D0984B994879
:10CE9000984786E700252E46F4E7A38101259BE607
:10CEA000012D7FF439AF29469348944B984793E678
:10CEB000012B26D163780A2B7FF428AF012D40F097
:10CEC00047818D4B1B78002B00F042818C4B2679DB
:10CED0001F683B681B79B34240F23A813046894B68
:10CEE0009847054600283FF411AF7B6853F8263079
:10CEF000DB689847844B0121187018467F4B984790
:10CF00006AE6022B7FF402AF6378002B7FF4FEAE5B
:10CF1000022D7FF401AF7D4B207998477C4B294649
:10CF2000012518801846754B984755E613F01F03E6
:10CF300040F099806378013B082B3FF6E7AE01A2F1
:10CF400052F823F079CF40000DCD400095CF40003E
:10CF50000DCD400069CF40000DCD40000DCD40000B
:10CF60000DCD4000E9CF4000E388002B7FF4D4AE24
:10CF7000684B012523612FE6E388002B7FF4CCAEBC
:10CF80006588012D7FF4C8AE634A138823F002033D
:10CF9000138021E6E388002B7FF4BEAE6388022B6A
:10CFA0007FF4B4AE5D4B9847054600283FF4AEAE23
:10CFB0002379002B7FF4AAAE594B9847A3881B0A0C
:10CFC000013B032B3FF6A2AEDFE803F00205080B9E
:10CFD000544B236100E6544B2361FDE5534B236121
:10CFE000FAE5534B2361F7E5E388002B7FF494AE19
:10CFF000504B984700283FF489AE484DA8474E4F04
:10D00000A27830B3BB685B7C9A423FF77FAE444B5B
:10D010009847394EA3783370002B3FF41DAEA847D4
:10D0200033786FF06042364D1344B8B13A6902EB81
:10D03000C3032B600026414F2B68F0B21B681B799D
:10D0400083427FF609AE00210136B8470028F3D1AC
:10D050005CE63B685B7C9A42D9DD57E67A6802EB76
:10D06000C3032B60E6E7012B1AD163780B2B7FF407
:10D070004DAEE388002B6BD11F4B1B78002B67D084
:10D0800025792F4B28466688984700283FF43EAE06
:10D09000F1B22846294B984700287FF4DDAD35E6EC
:10D0A000022B7FF433AE6378012B11D0032B7FF476
:10D0B0002DAEE388002B7FF42FAE6388002B7FF426
:10D0C0002BAE20791F4B984720791F4B9847E3E7F9
:10D0D000E388002B7FF420AE6388002B7FF41CAE26
:10D0E00020791A4B9847D7E7ACBB42005900420061
:10D0F000C516420038044020401D402055E1400044
:10D10000441D4020E1C940003C1D4020B5E14000E5
:10D110003A1D4020CDC94000381D4020E9E04000C4
:10D1200035CB400091ED4000ADED4000C9ED400031
:10D13000DDED400025E14000F002402069CA4000DA
:10D14000BDCA400065E64000C9E1400099E24000E8
:10D150002F4B1B78002B3FF4DFAD2E4B25791E683B
:10D1600033681B79AB427FF6D7AD002128462A4FA2
:10D17000B84700283FF4D0AD736853F82560F368D2
:10D18000984701462846B84700283FF4C5ADB36824
:10D19000984700287FF460ADBEE55B6853F82650E1
:10D1A000EB68984701463046C84700283FF4C9ADB0
:10D1B000AB680137984700283FF4BBAD4CE5C12B65
:10D1C0007FF409AD6378EE2B7FF405ADA388052BC2
:10D1D0007FF401AD1148C1E5114D2B783BB93A46BA
:10D1E000104B797812F8020B984701232B7039788D
:10D1F0000D480E4B98472AE5022E3FF40BAE032E46
:10D200003FF448AE012E7FF422AD00252E46C2E544
:10D21000401D4020441D4020E1C9400048024020FC
:10D22000371D4020591842003804402055E1400085
:10D23000094B196851B9EFF31080084A50B972B61A
:10D24000BFF35F8F06490870012111701A6801321F
:10D250001A6070471170F9E74C1D4020501D4020A6
:10D26000B0054020074B1A68013A1A601B6843B9A1
:10D27000054B1B782BB10122044B1A70BFF35F8F53
:10D2800062B670474C1D4020501D4020B005402024
:10D290002DE9F0410E46144688B915460A4FDFF8CD
:10D2A0002C80611B002D314403DC24EAE470BDE8CE
:10D2B000F0813868013DD8F800309847F1E74FF029
:10D2C000FF30BDE8F08100BFE0EF4120D8EF412002
:10D2D000013802282DE9F0410E4612D88D180C466F
:10D2E0000A4FDFF82C80AC42A4EB060001D1BDE868
:10D2F000F081386814F8011BD8F8003098470028EE
:10D30000F1DA4FF0FF30BDE8F08100BFE0EF4120DF
:10D31000DCEF412000F01F024009012300F500105E
:10D32000934000F2077040020366C0F890304365F6
:10D330004362C0F88030DB43026F1A400267426FDD
:10D340001340436770470000F0B587B000211022FA
:10D35000654B02A8019198474FF40040634B586019
:10D36000BFF35F8F624DA84740F04871614C41F0B8
:10D3700001016148A0476FF07040A84740F040713C
:10D380005E4841F00101A0475D4A0520536A43F41D
:10D39000E02353625B4B9847BFF34F8FBFF36F8F10
:10D3A000594B01A898479DF80730062B03D0062358
:10D3B0008DF80730004601238DF804308DF80530D4
:10D3C00000238DF806300198504B984700B1004675
:10D3D000BFF34F8FBFF36F8F494B0022C3F850222A
:10D3E0005A6942F400325A61BFF34F8FBFF36F8F17
:10D3F000D3F8801001F00702C1F34E34C1F3C90124
:10D400000432B1FA81F000F01F00BFF34F8F4FF0EC
:10D41000FF3505FA02FE854004FA02F201FA00F037
:10D420000E460746013E42EA070C2F44B6F1FF3F85
:10D43000C3F860C2F6D1013C7244661CF0D1BFF360
:10D440004F8F5A6942F480325A61BFF34F8FBFF356
:10D450006F8F2F4B02A89847002842D19DF80F30BC
:10D460002BB12C4B984700B100462B4B9847BFF38C
:10D470004F8FBFF36F8F224BD3F8902222F001021F
:10D48000C3F89022D3F8942222F00102C3F8942228
:10D49000BFF34F8FBFF36F8F204C0A20A0470B20A4
:10D4A000A0471020A0471E4A1E4D2420D2F8143158
:10D4B00043F01003C2F81431A84710221A4B07207A
:10D4C0001A60A0471E20A0470920A84717494FF41B
:10D4D00000730A204B60A8474FF480634B6007B08D
:10D4E000F0BD0046C3E700BFF14B420050180E40AC
:10D4F00005D64000F9D540001B804520170000608C
:10D5000000ED00E0EDD5400041284200752C4200BE
:10D51000792B42002D2C420051B9410031D84000F6
:10D520000080084015D3400000100E40000E0E4051
:10D53000F7B5174D0024026B0126C36A1340421B46
:10D54000144D50420193504105EB80152F460B2C92
:10D5500009D8019B06FA04F21A420DD055F824307E
:10D5600053B1984708E00F2C0BD004F10C03019A3B
:10D5700006FA03F31342F1D10134102CE7D103B0C2
:10D58000F0BD019B5B00F7D5FB6B002BE9D1F3E706
:10D5900000400640E4EF41200148024B184700BF1D
:10D5A00000C0034031D540000148024B184700BF7E
:10D5B0000040064031D540000B4B01224FF0006186
:10D5C00002201A6059601A611861996821F00101FE
:10D5D0009960996821F0020199601A610522186129
:10D5E000C3F894209B69704700000440014B5860C9
:10D5F000704700BF90ED00E0014BD86019617047A3
:10D6000090ED00E004232022904203D90133520020
:10D610001F2BF9D158007047C06C7047806C704761
:10D62000D30610D59306C0F8B01006D5C0F8D410B4
:10D63000530605D5C0F8C0107047C0F8D010F7E702
:10D64000C0F8C4107047C0F8B4107047004B1847BA
:10D6500021D640004309012200F01F0003F500130A
:10D6600002FA00F003F207735B02186470470000CF
:10D67000F8B504460E4B0E46984705460D4B20461E
:10D680009847054013D00C4C04F160072368B3425F
:10D6900008D16168294205D0E3683046984763683D
:10D6A00025EA0305BC4202D01034002DEED1F8BDAE
:10D6B00019D640001DD64000541D40200A210148C3
:10D6C000014B1847000E0E4071D640000B21014857
:10D6D000014B184700100E4071D640001021014840
:10D6E000014B184700140E4071D640000238022842
:10D6F00096BF074B002133F81010064B1A6B22F42B
:10D7000040720A431A639A6E1207FCD5704700BF35
:10D71000BABB420000060E400F4B1A6B22F0030208
:10D7200042F001021A6341F20102996E09070BD51A
:10D730001A6B22F07002104341F201021863996ED5
:10D74000090705D500207047013AEED10120704746
:10D75000013AF4D1FAE700BF00060E400F4B1A6BF6
:10D7600022F07002104341F201021863996E08071B
:10D770000CD51A6B22F0030242F002021A6341F246
:10D780000102996E090705D500207047013AEDD1D5
:10D7900001207047013AF4D1FAE700BF00060E40BD
:10D7A0000F4A136A28B10F4919400F4B0B431362FC
:10D7B000704723F45C13090223F0030389B243F496
:10D7C0005C1343F001030B431362936EDB07FCD53C
:10D7D000136A43F09B7343F480331362704700BFB6
:10D7E00000060E40FCFFC8FE02003701024B986E97
:10D7F00000F48030704700BF00060E404FF000522A
:10D80000014B9A62704700BF00060E40024B986EB3
:10D8100000F00200704700BF00060E40034B4FF4BB
:10D820004412DA619A6E5206FCD5704700060E402B
:10D830003F2819D81F280E4A4FF0010308D89169D4
:10D8400003FA00F030EA010310D0106100207047A5
:10D850002038D2F8081103FA00F030EA010305D0AD
:10D86000C2F8000100207047012070470020704777
:10D8700000060E403F2819D81F280E4A4FF001031A
:10D8800008D8916903FA00F030EA010310D1506121
:10D89000002070472038D2F8081103FA00F030EA6F
:10D8A000010305D1C2F80401002070470120704730
:10D8B0000020704700060E404FF4807303FA00F01A
:10D8C000014B1860704700BF00060E400002034B7A
:10D8D00000F4706040F001009863704700060E404D
:10D8E0002022014B1A60704700060E402022014B97
:10D8F0005A60704700060E40034BC0F312001A6FC7
:10D9000010431867704700BF00060E40024B18789E
:10D9100080F00100704700BFC41D4020064B9842B4
:10D9200002D11520054B1847054B984202D12A20F9
:10D93000024B1847704700BF0080004031D84000BC
:10D94000008005404368090423F4702301F470212A
:10D9500043604368194341607047000043F69923D0
:10D9600010B50469E40708D583684068074C800750
:10D97000236006D40B80002010BD013BF1D10120B3
:10D9800010BDC3F303401070F4E700BFC81D402072
:10D9900030B543F699240569AD070CD54468A40752
:10D9A00006D5120402F4702211430BB141F08071CC
:10D9B000C160002030BD013CEDD1012030BD8900A7
:10D9C0000844036B1AB143F001030363704723F06B
:10D9D00001030363704789000844036B1AB143F0E5
:10D9E00002030363704723F002030363704700EBF5
:10D9F00081010B6B23F0F0030B630B6B1A430A637B
:10DA0000704700EB810110B5086B80B208630C6BA6
:10DA100044EA036343EA02430B6310BD10B5890176
:10DA20000224431844504FF0FF319962196A5A603A
:10DA300010BDC0F8C41070478901052343507047DA
:10DA400000EB81114A61704700EB8111CA61704798
:10DA500000EB81114A62704700EB8111086A704740
:10DA6000AC2310B503604A680B68B3FBF2F31B09E3
:10DA70004FF6FE725C1E944206D803628B684360C8
:10DA800050230360002010BD012010BD43699B0797
:10DA900002D5C16100207047012070474369DB0750
:10DAA00003D5836900200B70704701207047B2EBEB
:10DAB000011F30B52CBF1024082461434B0803EB31
:10DAC000C2024FF6FE73B2FBF1F2D1084D1E9D4229
:10DAD0000CD8082C03D1436843F40023436012049C
:10DAE00002F4E0220A430262002030BD012030BD72
:10DAF000084BC0F8E430002343604362836288230C
:10DB00000360242303604FF4807303604FF4002309
:10DB1000036070470041535570B50D4B05460C46E8
:10DB20000C4E98470023336009B9012070BD096885
:10DB3000094B98470028F8D1A2686368134322690B
:10DB40001343E26813436A68336013436B6070BD2C
:10DB5000F1DA4000CC1D4020AFDA400040230360E2
:10DB6000704710230360704781607047C160704741
:10DB700043699B0704D5C1F30801C16100207047C8
:10DB8000012070474369DB0705D583690020C3F393
:10DB900008030B60704701207047000082B0EFF36C
:10DBA0001083B3FA83F35B09019372B6BFF35F8FFF
:10DBB0000022024B1A70019802B07047B005402055
:10DBC0000522034B1A704FF40022024B1A60704773
:10DBD000D81D4020F0810340024B1B6903B1184758
:10DBE000704700BF64F0412028B10122024B1A7037
:10DBF000BFF35F8F62B67047B005402008B5094B90
:10DC000098470122084B1A60084B98470222084B9C
:10DC10001A600023074A136153619381064A137007
:10DC200008BD00BF9DDB400020820340E9DB4000CF
:10DC30006081034064F04120D81D40200322084B3E
:10DC400010B51A70074B98470122074B07490A6025
:10DC50001A6008220A601A60054BBDE81040184798
:10DC6000D81D40209DDB4000F081034060810340CF
:10DC7000E9DB40002DE9F04735498847354B012263
:10DC8000354F364E1A60B0473B788946032B05D195
:10DC9000334B9847334BBDE8F0471847324A334D72
:10DCA00013889046AC89E41AA4B2ECB9304A1188C2
:10DCB0000B449BB21380EA889A4202D02D4B1B780A
:10DCC0005BB104233B70C84710232B4A136090328A
:10DCD00013603346BDE8F04718476B694BB398476C
:10DCE00038B3A8F80040AC893F2C22D90022214B40
:10DCF00040241A70B8F800A0A9685144C8471F4BC7
:10DD000002461B689B0718D41D4BD8B2A04219D3FA
:10DD10005444A8F80040BFF34F8FBFF36F8F012327
:10DD2000154910460B6090310B603346BDE8F04753
:10DD3000184701220F4B1A70DCE7B04704233B70F1
:10DD4000BDE8F08711F8010B013303F8010CDCE7A3
:10DD50009DDB400020820340D81D4020E9DB4000CD
:10DD6000D9DB4000FDDB4000D41D402064F04120A1
:10DD7000D61D4020D01D40206081034030810340EB
:10DD8000000010A030B4037D0D46D90711D56FF304
:10DD900000030468037564B113B2074951F82330D6
:10DDA00081682846DB05234648BF42F0800230BC2C
:10DDB000184730BC704700BF008103402DE9F14F88
:10DDC000182300F1FF38484F814603FB08731A7D82
:10DDD000D6077BD5DA6801B29C68DFF830A1A24291
:10DDE00055D0A41A5AF82130B4F5803F92BF2604CA
:10DDF0004FF480340026DD0535D55AF8210008237C
:10DE0000C0F302108340013B234208D0182346F0A0
:10DE1000080603FB0873187D6FF341001875182579
:10DE2000324B05FB087503EB011B6B681344CBF801
:10DE300004302F4B9847DBF80C3013F0100F2D4BAC
:10DE400022D146F021062C49CBF80860EA682C6103
:10DE50002244EA604FF0007202FA08F28A6101B0CF
:10DE6000BDE8F04F18475AF82130C3F3C123012B06
:10DE700007D15AF821000823C0F3021083409C42C6
:10DE8000CDD846F01406CAE79847EB68AB605AF85D
:10DE90002130DC051DD5182303FB08731B7D980773
:10DEA00017D5164A012342F82130303A52F8212082
:10DEB000D20302D5124A42F82130124A42F82130E8
:10DEC0004FF480520C4B02FA09F29A6101B0BDE89E
:10DED000F08F18204A4600210B4B00FB087001B060
:10DEE000BDE8F04F184700BFDC1D40200083034011
:10DEF0009DDB4000E9DB400000800340608103407F
:10DF000090810340F081034085DD400000810340A3
:10DF1000164B70B598470122154B1A70154BD3F864
:10DF2000002822F48042C3F80028D3F804285204C1
:10DF3000FBD51A6808260425022422F480720121E8
:10DF40001A6010229E6199619A619D619C619E6038
:10DF50009D609C60D9609A60D3F8002842F48042AA
:10DF6000C3F80028044BBDE8704018479DDB400013
:10DF7000D11D402000800340E9DB400070B52A4BF2
:10DF800098472A4B044622209847294B9847294B0B
:10DF9000A0224FF4802083F8222304225A60264BCB
:10DFA0009847264B4FF00072C3F80028D3F800289A
:10DFB00042F40042C3F800281A6822F480521A6022
:10DFC0001A6822F440621A60D3F8002822F48042D2
:10DFD000C3F80028D3F804285204FBD500231848BE
:10DFE000182505FB03020133117D082B01F0FE010A
:10DFF0006FF382011175F4D1104A1249D2F800383A
:10E0000043F48043C2F800380A780F4B4AB9012024
:10E010001A7008700D4B984720460D4BBDE87040B4
:10E02000184700221A70F5E79DDB400031D8400008
:10E03000ADC1400000E100E0F9D84000008003409D
:10E04000DC1D4020D21D4020D11D402011DF4000AA
:10E05000E9DB40000A4BD3F8002822F48042C3F8E1
:10E0600000281A6842F480721A60D3F8002842F43B
:10E070008042C3F800280022024B1A70704700BF8C
:10E0800000800340D11D402010B5104B9847104927
:10E090000446D1F8003823F48043C1F800380D4B12
:10E0A00098470D4B1A780AB100221A70D1F800383F
:10E0B00023F40043C1F80038084B9847084B22204E
:10E0C00098472046074BBDE8104018479DDB4000AD
:10E0D0000080034055E04000D21D4020CDC14000EB
:10E0E00075D84000E9DB4000034BD3F8040810F476
:10E0F000405018BF0120704700800340084B00F0DB
:10E100007F001A6822F080021A601A6822F07F02EB
:10E1100002431A601A6842F080021A60704700BF1A
:10E1200000800340024B186800F07F00704700BF7A
:10E1300000800340024B186AC0F3CA00704700BF5A
:10E1400000800340024B186AC0F30D00704700BF07
:10E1500000800340014B98609981704764F0412032
:10E1600000F00F02082A10B51DD80F480121C3691D
:10E1700001FA02F400F5807023EA040314B240F8B7
:10E18000E43C50F8243023F0020340F82430541EBD
:10E190001820064B00FB0434054B20469847237D8E
:10E1A0006FF38203237510BD00800340DC1D402007
:10E1B00085DD4000034B00F00F0053F82000C0F352
:10E1C000C0407047C0810340F8B500F00F05064617
:10E1D000082D49D82CB2264B53F824301A0345D4C5
:10E1E000244B691E182202FB01310B7D13F0040041
:10E1F0003CD1DB073BD4204B984716F0800F864676
:10E200001E4B1F4F1F4E1DD01F4A52F8242012F4E0
:10E21000405F17D00A7D42F004020A7501211B4AB3
:10E2200042F8241053F8242042F4007243F82420CA
:10E230004FF48053164A47F82430AB409361B047FF
:10E240000846F8BD53F82420704622F4007243F8C3
:10E25000242040220F4B43F824204FF4002347F89A
:10E260002430B0470120F8BD0020F8BD0120F8BDE2
:10E27000C0810340DC1D40209DDB40000081034045
:10E28000F0810340E9DB40003081034020820340FD
:10E29000008003406081034000F00F00082838B57B
:10E2A00049D81822451E254C03B202FB05410A7DC0
:10E2B00012F004020FD001F11002097D6FF3820108
:10E2C00011714FF480511E4A42F82310A2F50872D2
:10E2D0008140516101221B4951F82310090326D5C1
:10E2E000194A52F82320520608D54021174A42F80D
:10E2F00023104FF48021903242F823104FF4002174
:10E300000F4A42F82310A2F5907252F8231041F4FC
:10E31000007142F8231018226A43A318197DC80718
:10E3200007D56FF300011975A358984701E0002A3B
:10E33000F1D1012038BD002038BD00BFDC1D4020D8
:10E3400020820340C081034030810340608103404C
:10E350002DE9F04F00F00F05DFF8008185B09B46F6
:10E360002CB2082D019258F82430009366D8344B13
:10E370000120DB69A84018401DD0324B53F824001F
:10E3800010F400205AD16E1E4FF018092E4A09FBD6
:10E3900006F9924602EB09073B7D13F00403029352
:10E3A00009D12A4A039290473B7D294A13F0010381
:10E3B00004D09047029805B0BDE8F08F97F814E0BC
:10E3C00002934EF0010E87F814E09047019BC7F8C6
:10E3D00008B07B60029BFB603B610E9B4AF80930F2
:10E3E00011B9BBFA8BF14909182303FB06A6337D4B
:10E3F00061F3410333756B1E032B1AD9039B9847B6
:10E400004FF48053134A03FA05F50D4B9D61009BB1
:10E4100013F4807F58F8243023F4007348F8243034
:10E4200014BF0123022342F82430094B98470120EE
:10E43000C1E72846084B98470120BCE70020BAE70F
:10E4400000800340C0810340DC1D40209DDB400074
:10E45000E9DB4000F0810340BDDD40000081034066
:10E460002DE9F74F00F00F05082D01D9002067E0D6
:10E47000774B4FF0010EDB690EFA05FE1EEA030E24
:10E48000F4D101F0030CBCF1020F5ED0BCF1030F1C
:10E4900059D0BCF1010F40F0D98010F0800F2CB2A0
:10E4A0006C4BA2F580604FEAC12118BF4FF4807E0B
:10E4B00053F8247080B203EB840601F4C05127F4B2
:10E4C000CB57B0F57C4F27F01C0748D3082A49D911
:10E4D0005200013A41EA8C01B2FA82F2DFF87CC1C3
:10E4E00041EA0E00C2F11C02012140EA0212584822
:10E4F00022F4D06222F00302D204D20C3A4301FA91
:10E5000005F743F82420BFB20822D3B29D422BD393
:10E51000514B04EB44044FF01809DFF834A103EB2E
:10E52000C4049846DFF838B147FA05F3E8B2DA07D1
:10E5300032D4013504361834EBB2092BF4D1012062
:10E5400003B0BDE8F08FF446A7E705F1FF3CBCF14E
:10E55000080F94BF4FF0000C4FF0010C9DE740F204
:10E56000FF72B7E70F22B5E7C36901FA02FE13EAAB
:10E570000E0F0FD0C3694EEA070723EA0E03BFB29E
:10E58000C36102EB0C039B00D3F800E02EF0020EF7
:10E59000C3F800E0013AB8E7691E09FB0182137D68
:10E5A00003F0010E6FF300031375336843F00203A9
:10E5B00033600123DAF81CC0AB4043EA0C03CAF80D
:10E5C0001C30336B5B0312D41468002C3FF44EAF45
:10E5D0003368DD054FF0180348BF40F0800003FBAF
:10E5E00001880246D8F80C100120A0473EE73368A6
:10E5F00043F400733360BEF1000F9AD0431E032B27
:10E6000009D93368DA055FBF54F80C3C54F8082C7C
:10E610009B1A44F80C3C336809FB018154F8182C10
:10E62000DB0554F80CEC54F8103C097D48BF40F071
:10E6300080000092A3EB0E0354F8142CC1F34001A8
:10E640007244D84700287FF474AF0FE7704677E72D
:10E650000080034000810340DC1D402040E00010AA
:10E6600051E3400000F00F0270B4541E1F4DE3B29E
:10E67000032B13B21DD94FF48051914069610225DB
:10E680001B4941F82350012541F823504FF4805194
:10E69000164D91406961BFF34F8FBFF36F8F010635
:10E6A00011D4144B1820012100FB0430124B70BC14
:10E6B00018474FF00071A140696100250F4901EB37
:10E6C00003118D60E2E79B000D490E484FF40056A0
:10E6D0000D4D194418441D440B6813F4405FE0D0FD
:10E6E00006602B689B04FCD4F6E700BF0080034063
:10E6F00020820340DC1D402085DD40000083034074
:10E7000030810340F0810340C0810340894B2DE9F3
:10E71000F14F9847884B58B95A6812F0010207D157
:10E7200072B6BFF35F8F854B1A7001B0BDE8F08FF2
:10E730005A6852070DD504229A60D3F8043813F4AE
:10E74000405F01D17E4B98477E4B01B0BDE8F04F52
:10E7500018475A68970703D502229A60784BF4E766
:10E760005B68DE0440F1CD82774B10221A600822EC
:10E77000F03BC3F8F0201A681C4612F0040F4DD08D
:10E78000724D2B781BB1724B9847724B9847236898
:10E79000C3F30A53082B05D06F4B984704226F4BE5
:10E7A0001A60C2E76E4B6F4E6F4C70495A1C187856
:10E7B0008A4202EB0603E0541346F7D16C4B042661
:10E7C0009847664918B9644B98470E60ADE70E60EC
:10E7D00094F90030002B0BDA0023664A1380664A56
:10E7E000138002232B70654B01B0BDE8F04F184732
:10E7F000E3880BB9624BF7E700235E4A10241380CD
:10E800005D4A138001232B705E4B0C6098475E4B72
:10E810001C605E4B01B0BDE8F04F18471B68DD0778
:10E8200005D55B4B1B68D80701D5544BDCE7236843
:10E83000990757D5454B1B78012B0AD0022B01D0E5
:10E84000042B03D1424B9847424BCDE7424B9847AC
:10E85000FAE72168484DC1F30A51434A2B88908951
:10E860005C18A0429468B8BFC11A1C443C48B8BFA9
:10E8700089B2C6B28E4215D30B444029374C9BB2A5
:10E880002B8005D13B4ED08831881944884211DC59
:10E89000938153695BB1984748B92F4B984702233E
:10E8A000236042E70678013004F8016BE1E70223B8
:10E8B00023609FE7918999420BD15369002BECD0DB
:10E8C00098470028E9D033882A88134433800023EE
:10E8D0002B801021022323602A4B216098472A4B6A
:10E8E000196096E723681A0710D51C4B08221A6096
:10E8F0002368DB073FF519AF144B1B78032B7FF41C
:10E9000014AF4FF40022204B1A600EE72368DF0695
:10E9100040F1F781114B10221A6023689E073FF5E2
:10E9200004AF0A4B1B78012B3FF464AF042B7FF438
:10E93000FCAEE6E70DD9400000800340B005402062
:10E9400089CB40001101420020820340D81D4020A5
:10E95000D9DB4000FDDB4000C1DB400060810340AB
:10E96000000010A0FFFFEF5F64F04120080010A03E
:10E97000BDCB4000D61D4020D41D402075DC40009A
:10E980003DDC40009DDB4000F0810340E9DB4000BE
:10E99000C0810340781E032840F2E280DEF81000B8
:10E9A0000AFA03F910EA090F00F0DA8008689E00FD
:10E9B000800767D51068800764D51822B4484FF0E7
:10E9C000020B02FB045256F800C0D2F808A0CCF3A8
:10E9D000021CD2F80CE05068AE4A46F802B00A6851
:10E9E0000821C2F30A5201FA0CF1914240D94FF0CA
:10E9F000010C002A44D0AAEB0E01DB034FF0180BE8
:10EA00000EF1FF3E914203F120430BFB045B704487
:10EA100098BF0A4603F58013DBF80C1098BF4FF03F
:10EA2000010ACBF8102088BF4FF0000A11441A44A5
:10EA3000CBF80C1093421ED1BFF34F8FBFF36F8FF3
:10EA4000954B4FF48042F250BAF1000F03D1BCF164
:10EA5000000F3FF46AAE0222F250904BC3F81490BC
:10EA6000182303FB0454E368A3603A46002135E011
:10EA70004FF0000CBFE713F8011B00F8011FD9E7A6
:10EA80009246DDE70868C0075ED51068C0075BD511
:10EA90007F4A4FF0180A0820DB03B2580AFB045AD9
:10EAA000C2F30212DAF80C109040DAF80820914212
:10EAB0001AD39AF8141011F0020115D1784B984727
:10EAC0000122754BF250A3F50873C3F81490754BEF
:10EAD0009847DAF80C303A46CAF808304046724B8C
:10EAE00001B0BDE8F04F184701216A4AB150182122
:10EAF00001FB0451CF684A6802EB070E8A68D21BFB
:10EB0000824228BF024617440A61CF606749194410
:10EB10000EEB02039E4512D1BFF34F8FBFF36F8FF1
:10EB20004FF480415C4B9042F1507FF6FEAD1823CC
:10EB300003FB0454237D6FF341032375F5E51EF8B1
:10EB4000017B01F8017FE5E70868800602D53846B9
:10EB5000574B09E108684607F9D408684006F6D41F
:10EB6000DEF810000AFA03F6304235D0D2F80090F1
:10EB7000980019F0010F0DD0D1F8009019F0010F95
:10EB800008D00122444B4349C25042504FF48042C6
:10EB9000C2506AE71768FF041ED50F68C7F3013734
:10EBA000D7B94FF480523C4BC250A3F50873384A92
:10EBB0005E61182303FB0454237D67F382032375EE
:10EBC000835823F4007383504FF40022394BC25012
:10EBD0004FF48022C250A8E5013304320431092BDE
:10EBE00040F09B802D4B5A6812F0080236D0082264
:10EBF000002018272C4E9A60441C012107FB00506E
:10EC0000E2B2B047082C2046F6D12B4B9847234957
:10EC10001F4A0B6823F07F030B600B6843F08003EF
:10EC20000B60136823F4CB5323F01C0343F0300331
:10EC30001360136843F002031360CB6943F00103D0
:10EC4000CB61174B98471B4B04221A6002221A60B3
:10EC50004FF480538B61134B9847F5E51969CF0743
:10EC600030D55968CE072DD5D3F8001821F480414E
:10EC7000C3F800180121596110219961D3F80018D7
:10EC800041F48041C3F800180C4B1A700C4B5CE542
:10EC900000810340608103402082034000800340E4
:10ECA0009DDB4000E9DB400085DD4000FFFF0FA059
:10ECB00065E64000F081034035CB4000D11D402087
:10ECC000F90042002A4B1A69D5067FF52EAD5A6825
:10ECD000D4067FF52AADD3F8002822F48042C3F889
:10ECE00000281A46D3F80418490402D45968C80702
:10ECF000F8D510235361012393611E4A13701E4BF4
:10ED000023E5DFF888C001231C494FF0180B1C4A8B
:10ED10006546DFF85CE04FF4805A5C1E4FF00070EF
:10ED2000DEF810600BFB03C8A040DFB2A8F11808A2
:10ED300006423FF42FAEDEF8046030423FF42AAEC4
:10ED4000104B03EB0713DA68D5073FF5EEACCEF8AE
:10ED50001400DA68120C05D00BFB04C4E3689B1A9C
:10ED6000E360A3603846084B01B0BDE8F04F184798
:10ED700000800340D11D4020050142003481034042
:10ED8000C481034000830340BDDD4000DC1D402002
:10ED9000054A136823F4406343F400631360136867
:10EDA00043F400531360704700800340054A136822
:10EDB00023F4406343F400631360136843F4804317
:10EDC0001360704700800340034A136823F44063D4
:10EDD00043F40063136070470080034070B5224B1A
:10EDE0008EB003F130066A466C461868083353F853
:10EDF000041C1546B34203C52A46F6D11B4A1868BF
:10EE00001B7928602B71D369194923F00103194D2F
:10EE1000D3610B6823F4CB5323F01C0343F48953D1
:10EE200043F010030B600B6843F002030B60D369DF
:10EE3000114943F00103D361136823F4406343F4A1
:10EE400000631360136843F4004313600B4B5A1CB8
:10EE500050198A42205C18701346F8D14FF4804252
:10EE6000074B1A600EB070BDC0BB4200008003406B
:10EE700000810340FFFFEF5F350010A0000010A0ED
:10EE80002082034007B5284B284A9A4233D1284BA9
:10EE90000021284A934237D3274A284B9A4236D139
:10EEA000274B0021274A93423AD3274B274A23F086
:10EEB0007F039360EFF31083B3FA83F35B0901934D
:10EEC00072B6BFF35F8F224A002322491370019864
:10EED0000B6843F470030B60BFF34F8FBFF36F8F6A
:10EEE00020B101231370BFF35F8F62B61A4B9847AE
:10EEF0001A4B9847FEE7043A19498B42C7D252F899
:10EF0000040F43F8040BF8E743F8041BC2E7043A84
:10EF100014498B42C4D252F8040F43F8040BF8E7AB
:10EF200043F8041BBFE700BF00F0452078E642002D
:10EF30000080452000F0452094D142000000402090
:10EF4000E414402058F0422000C0400000ED00E0F2
:10EF5000B005402088ED00E00D4A4200411A420011
:10EF600000F04520E41440201FB5EFF30583009323
:10EF700042F210700D4B5A6B01929A6B02929B6A8F
:10EF800003930B4B9847039B9B0100D5004600461B
:10EF9000084B9847009B0093019B0193029B0293AF
:10EFA000039B039305B05DF804FB00BF00ED00E098
:10EFB000894B41005DB9410007B5EFF3058342F28B
:10EFC00010700193044B98470046044B9847019BEF
:10EFD000019303B05DF804FBD94B41005DB94100DA
:10EFE0002E4A2F4B10B5116B01F00301012917D0E8
:10EFF0000CD3022927D0116B01F07001702945D183
:10F000001A680321B2FBF1F21A6010BD2549496963
:10F010000C064CBF4FF400414FF4FA411960EAE787
:10F02000116AC80102D520491960E4E71F49196037
:10F03000116A01F07001102902D02029F3D0DAE71B
:10F040001B491960D7E7116AC90102D51649196031
:10F0500008E016491960116A01F07001102912D0F8
:10F060002029F3D0116B01F003010229C3D1946A66
:10F070001968906AC4F30A44C0B204FB0111B1FBE1
:10F08000F0F11960B7E70A491960EBE7116B1A68EC
:10F09000C1F30211CA401A6010BD00BF00060E4045
:10F0A000B405402010180E40001BB70000093D00B9
:10F0B00000127A00134B9842134B03D84FF0806232
:10F0C0001A607047114A904202D8114A1A6070477C
:10F0D000104A904202D8104A1A6070470F4A904274
:10F0E00002D80F4A1A6070470E4A904203D84FF078
:10F0F00004221A6070470C4A904294BF0B4A0C4A93
:10F100001A607047BFF35E01000C0E407FE7BD023E
:10F11000000100043FDB1C0400020004FFCE7B055D
:10F1200000030004BFC2DA067FB6390800050004F8
:10F1300000060004074B1A680AB9074A1A601A68E1
:10F14000064910448142A6BF186010464FF0FF30B8
:10F15000704700BF9C1E402058124320FC7F452072
:10F160004FF0FF3070474FF4005300204B60704762
:10F17000012070470020704730B50823124C4FF42F
:10F180000011124A63634FF48000114B4FF0007579
:10F190005863596315634FF0806515630225256137
:10F1A000C4F8A0504FF4003414631861C3F8A000F1
:10F1B0005961C3F8A0104FF480115961C3F8A01031
:10F1C0004FF48033536330BD00100E40000E0E40EC
:10F1D00000140E400F4B08224FF480004FF4001132
:10F1E00010B55A634FF000740B4AC3F83404C3F8E7
:10F1F000341414634FF400341463C3F81004C3F8D8
:10F20000A004C3F81014C3F8A0144FF480331363A0
:10F2100010BD00BF00100E40000E0E40004B1847FE
:10F2200079F14000004B1847D5F140000A4B4FF4EC
:10F2300000124FF480315A61C3F8A0204FF48012BD
:10F240005A61C3F8A02002F18042A2F5F93251635D
:10F25000D86BC0F30050704700140E40084B3021AB
:10F260000022596064211A70598101215A701A7262
:10F270009A811A6119755A759A75024B184700BF21
:10F280007CF041209D8F41002DE9F04F03788BB039
:10F2900005468B4683F080021F2A05D8FF234FF0D6
:10F2A00001108BF8003064E00B70431C4A1C029381
:10F2B000037801921C2BF1D801A252F823F000BF71
:10F2C00035F3400099F34000ABF34000DDF340001C
:10F2D000F7F5400071F640003FFD40009DF2400010
:10F2E00045004100E9F34000F3F340009DF2400087
:10F2F0009DF240009DF240009DF240009DF24000D2
:10F30000FFF34000ABF44000D3F44000F9F44000B8
:10F3100017F5400065F54000AFF540009D00410045
:10F32000A9004100B5004100C1004100CD004100ED
:10F33000D70041004378FD2B22D005D8042B0DD0F7
:10F34000F02B19D0002010E0FE2B21D0FF2BF9D19B
:10F35000402302208B700023CB7006E0AF4B0520CA
:10F360001A681B79C1F802208B718BF8010000F13B
:10F3700002100BB0BDE8F08F172301208B70F4E76B
:10F380000023102204208B70CA700B714B71ECE7C4
:10F39000402301208B70E8E74378012B24D9FF2319
:10F3A0009F484B7000F10110E3E79E4B98476C7843
:10F3B0002CB1012C03D0022C0BD0002404E09A4B7A
:10F3C00001241C70994B98478BF801404FF00110B5
:10F3D000E8E7954B1C70964B9847F5E70023924A57
:10F3E000012013704B70DDE700238D488BF801304E
:10F3F000D8E7012302208B7000234B70D2E782787C
:10F400004478D107D0F803500DD58A494FF4003025
:10F41000894B14F0010F08634FF480011961C3F8A0
:10F42000A0103AD0196393070AD582494FF00070B3
:10F4300014F0020F814B08634FF008012FD01963BD
:10F4400057070DD57B494FF080607C4B14F0040FBB
:10F4500008634FF002011961C3F8A01021D01963AD
:10F46000960609D5734B4FF0807014F0200F4FF4BF
:10F470000001186317D01963100606D514F0800F29
:10F480006F4B14BF01200020984715B128466D4BE3
:10F4900098478BF801406C4884E75963C3E7596388
:10F4A000CEE75963DCE75963E6E7D0F801301BB9D2
:10F4B000FF2366484B7075E7654A644893425A4B90
:10F4C0008CBF012200225A7001225A6000234B7027
:10F4D00068E74478811C5F4B002C08BF4FF48074B0
:10F4E00020469847E01D0023C0088BF8013001300A
:10F4F000000440F0010055E743784FF001104A49FD
:10F5000003F00302C3F3800301324B7500230A7535
:10F510008BF8013046E700234FF001098F1C821C55
:10F520004B704E464478DFF844A124B91FFA89F0A5
:10F5300040EA064036E7157802F101083A46013CF8
:10F5400041462846D04715F03F0308BF4023073304
:10F55000DB08591C08EB03020E44290644BFFF18C0
:10F560009944E2E7304A0021861C407802F11E04EB
:10F570000B46907588420BD8374C002188420FD833
:10F580000130002300048BF8013040F0010009E74E
:10F59000755C571801313D7624F8023F2B44E9E7AA
:10F5A000551801312D7E5B1B24F8023FE6E71E4B08
:10F5B0001A78022A19D14278DA759B7D934214D9C0
:10F5C0000E20264B9847264B984700238BF80200C5
:10F5D0008BF80130030A8BF80330030C000E8BF814
:10F5E00004308BF805001F48DCE6FF234FF00110C4
:10F5F0008BF80130D6E642780B4B1A72C1788278CC
:10F6000042EA01225A8141790279174842EA0122ED
:10F610009A8100238BF80130C4E600BFF5BB42009D
:10F62000010002005DF240007CF04120D5F1400075
:10F6300079F14000000E0E4000140E4000100E4004
:10F640009DB4410001FF41000100060001000400DB
:10F650003F787D01612F4100AAF04120B90D4100A2
:10F66000110B410005000100010005001D014100D2
:10F67000A94B1A78012A11D0022A00F0B281033076
:10F68000AB78002B40F051838BF801308BF80230BF
:10F69000029BC01A000440F0020083E60024837835
:10F6A0009E4F00F10309CE1C254620463C70039373
:10F6B0000594039B0BBB012811D1002D00F07C8128
:10F6C000954B974F5C89954D09A90E20B8470228A4
:10F6D00040F061811CB12B78013C002BF4D09DF8E7
:10F6E00014308BF802008BF80130029BA9EB030069
:10F6F000019BF61A46EA004054E699F8008009F1A9
:10F70000010318F0020F0493834B00F0F080002DEA
:10F7100046D0B3F80AA008F01103012B20D1804A8B
:10F7200009A940460692904702282AD1BAF1000F53
:10F7300005D03B780AF1FF3A069A002BF0D0DDF8AD
:10F74000109099F800309F0740F12281D90600F10E
:10F750001F8109F10109039B013B0393F1D1AAE742
:10F760006F4D09A90E20A847022809D1BAF1000F50
:10F7700004D03B780AF1FF3A002BF2D00025DEE7F7
:10F7800000250128DBD1099B04361A0A06F8043C3F
:10F7900006F8032C1A0C1B0E06F8022C06F8013C86
:10F7A00018F010025C4B55D0D9F8012018F0010F69
:10F7B000069209F10502B3F80C90049214D0B3F844
:10F7C0000AA0574A0021404607929047022809D1D3
:10F7D000BAF1000FB3D03B780AF1FF3A079A002B39
:10F7E000F0D0ACE70128AAD14B4BB3F80AA04C4BA0
:10F7F00009A94046079398470228014613D1BAF158
:10F80000000F05D03A780AF1FF3A079B002AEFD0A3
:10F81000414B1A69099B1340069A934215D041F057
:10F820001000C0B28BE70128F2D13B4B099A1B694B
:10F830001340069A9342EBD0B9F1000FE8D03B7821
:10F8400009F1FF39002BCFD0E2E701287FF477AF31
:10F8500000242EE018F0010FB3F80A9010D1DFF861
:10F86000C0A009A94046D04702282FD1B9F1000F06
:10F870003FF465AF3B7809F1FF39002BF1D05EE72B
:10F88000002D40F08380DFF898A000214046D0474B
:10F89000022809D1B9F1000F3FF470AF3B7809F1AC
:10F8A000FF39002BF1D04AE701287FF448AF00244C
:10F8B0000546059B013305933B78002B7FF43FAF52
:10F8C000039BDDF81090013B0393F2E601287FF4DF
:10F8D00036AF099B04361A0A06F8043C06F8032CD6
:10F8E0001A0C1B0E06F8022C06F8013CB0E74DB3CB
:10F8F000B3F80AA00A4A09A90E20069290470228E6
:10F9000010D1BAF1000F3FF41AAF3B780AF1FF3A79
:10F91000069A002BEFD012E77CF04120BCF041208A
:10F92000C53F410001287FF40AAF099B04361A0A3B
:10F9300006F8043C06F8032C1A0C1B0E06F8022CE1
:10F9400006F8013C09F10503D9F8012018F0200F51
:10F9500004930992A44B03D01A6100250120A8E763
:10F960005D89DFF8889209A94046C847022807D177
:10F97000002D3FF4E4AE3B78013D002BF3D0FDE6D3
:10F9800001287FF4FBAE0446002592E7144690E779
:10F9900009F10509DFE601287FF4A1AE099B0436D1
:10F9A0001A0A06F8043C06F8032C1A0C1B0E06F87B
:10F9B000022C06F8013C92E6002C3FF490AE8A4BF4
:10F9C0008A4F5C898A4D00210E20B84702287FF4B7
:10F9D00086AE002C3FF483AE2B78013C002BF2D096
:10F9E0007DE6CF1C6978824A0020D9759B7D107016
:10F9F0008B4240F29781AB78EE1C04460546914657
:10FA000003930690039B4BBBA846012819D1B8F17C
:10FA10000A0F02D00A20774B9847734B764D002C83
:10FA200000F06E815C89DFF8C88109A90E20A84723
:10FA3000022840F0548124B198F80030013C002B9A
:10FA4000F3D09DF818308BF802008BF80130029B40
:10FA5000F61A019BFF1A47EA0640A3E496F800A0B5
:10FA6000731C1AF0010F04930CBF4FF00A084FF0FB
:10FA70000B081AF0020F00F0DD80002C4ED05A4B1C
:10FA800045455B89059320D11AF0100F1DD15A4BC3
:10FA900009A9504607939847022830D1059B33B1F6
:10FAA000013B99F800200593079B002AF0D0049EA3
:10FAB00033789A0740F11181DD0600F10E8101369D
:10FAC000039B013B0393F3D19FE70A2D02D00A2049
:10FAD000484B9847059C484D09A90E20A847022885
:10FAE0000BD1002C00F0BC8099F80030013C002BB9
:10FAF000F2D04FF00A080024D9E70A250024012893
:10FB00004DD1099B04371A0A07F8043C07F8032C67
:10FB10001A0C1B0E07F8022C07F8013C1AF0100F04
:10FB20006CD0D6F80130A8452F4A059306F105039D
:10FB30009689049304D040462E4B07929847079A23
:10FB400055892D4A0021504607929047022808D136
:10FB5000002DACD099F80030013D079A002BF1D070
:10FB6000A5E70128A3D1204B5D89234B09A9504665
:10FB7000079398470228014613D12DB199F8002028
:10FB8000013D079B002AF1D0174B099A1B691340CE
:10FB9000059A934216D041F01000C0B287E7A846FC
:10FBA00085E70128F0D1104B099A1B691340059A8B
:10FBB0009342E9D0002EE7D099F80030013E002BA7
:10FBC000D1D0E1E701287FF472AF069B01330693A1
:10FBD00099F80030002B7FF46AAF039B4546049EE2
:10FBE000013B03930EE700BF7CF04120C53F41007D
:10FBF000BCF04120B90D4100D50D4100002C6AD167
:10FC0000A84502D04046AA4B9847AA4BAA4D5E8908
:10FC100000215046A847022807D1002E55D099F858
:10FC20000030013E002BF3D041E701287FF43FAFC5
:10FC30000446CAE73CB30A2D02D00A209C4B9847E1
:10FC40009C4B9D4A5D8909A90E2005929047022888
:10FC500009D12DB199F80030013D059A002BF2D061
:10FC60004FF00A0823E70128FAD1099B04370A2537
:10FC70001A0A07F8043C07F8032C1A0C1B0E07F8A5
:10FC8000022C07F8013CD6F80130721D1AF0200F43
:10FC9000884C0993049204D02361A84600240120D3
:10FCA00093E7A84502D04046814B98476489824D2E
:10FCB00009A95046A847022809D1002C3FF4F7AE05
:10FCC00099F80030013C002BF2D00024EFE6012827
:10FCD000FBD1002479E7A84677E70536F0E601284E
:10FCE0007FF4AFAE099B04371A0A07F8043C07F803
:10FCF000032C1A0C1B0E07F8022C07F8013CA0E697
:10FD00005C89DFF8B88100210E20A84702287FF423
:10FD100098AE002C3FF495AE98F80030013C002BD3
:10FD2000F1D08EE6AE1C06908BE60278910704D5E2
:10FD3000D20602D40130013BA3E40530FBE75D4964
:10FD400000230A780291012A0AD0022A00F0BA8020
:10FD50008BF8013003208BF802308BF8033055E02C
:10FD6000564A0BF10404B0F802A013709046BAF1A1
:10FD7000000F00F099800779CDF80CA017F002066B
:10FD800017D1431D03934E4B039AB24502EB8602F3
:10FD900070D1029BDFF828915F8900210E20C847AF
:10FDA00002282AD14FB398F80030013F002BF4D03D
:10FDB00023E017F0010036D1A1460026404A039BFC
:10FDC000B2454C4603F1FF33039316D0039B1BB996
:10FDD00017F0010F18BF0E27029B5B8909A938464F
:10FDE0000492059390470228049A31D1059B23B1D0
:10FDF00098F80010013B0029F0D0019B8BF80160BE
:10FE0000360A8BF80300E01A8BF802602B799B0707
:10FE100057BF6E8840F48020B60406F5802658BF90
:10FE20003043FFF7BFBA029BDFF894905E89002150
:10FE30003846C847022808D1002EDED098F8003096
:10FE4000013E002BF3D00026D7E70128B4D0FAE713
:10FE5000012809F10409D0D1099B0136190A09F8D2
:10FE6000043C09F8031C190C1B0E09F8021C09F8C4
:10FE7000013CA4E712680992029AB2F80A9009A913
:10FE80003846049398470228049B09D1B9F1000F22
:10FE9000B3D098F8002009F1FF39002AEFD0ACE781
:10FEA0000128AAD101366FE750465646A5E700BFA4
:10FEB000B90D41007CF04120D50D4100BCF041203E
:10FEC000C53F41000BF104020299864F039242782C
:10FED0003B70CA75897D914240F2AE80B0F802A0B5
:10FEE000BAF1000F00F0AB8090F80480CDF814A0B8
:10FEF00018F0010FC1460CBF0A230B2304931846C8
:10FF0000794B984718F002061ED16A1DB24502EBE4
:10FF1000860376D1049B0A2B02D00A20724B9847A5
:10FF2000029BDFF8C891B3F80A8000210E20C84771
:10FF30000228044625D1B8F1000F22D03B7808F101
:10FF4000FF38002BF1D01CE0029B684A5E8900213B
:10FF50004046069290470228044607D18EB13B786E
:10FF6000013E069A002BF2D000260AE00128FBD1C0
:10FF7000039F0026059BB245039703F1FF330593CA
:10FF80000AD18BF80160360A039B019A8BF8026054
:10FF90008BF80340981A39E7059B3BB9049B0A2B61
:10FFA0001AD04FF00E090A204F4B9847029B4F4A38
:10FFB000B3F80A8009A948460692904702280ED154
:10FFC000B8F1000F06D0474B08F1FF38069A1B78AE
:10FFD000002BEFD00446D4E74FF00E09E6E70128E6
:10FFE00007F10407F6D1099B01361A0A07F8043C09
:10FFF00007F8032C1A0C1B0E07F8022C07F8013C1B
:020000040041B9
:10000000B8E71B680993029BB3F80A9009A9404618
:10001000364B0592984702280446059A08D1B9F153
:10002000000FAED03B7809F1FF39002BEED0A8E7E6
:100030000128A6D1013669E71C461E46A1E75446B1
:1000400056469EE72A4B1A78012A07D0022A13D077
:10005000FF2328488BF80130FFF7A4B9D0F802300D
:100060000AA9002041F8043D234B9847002321486A
:100070008BF80130FFF796B94278DA759B7D934291
:10008000E6D90820184B9847D5F802001B4B984733
:10009000002318488BF80130FFF784B901990298C2
:1000A000174B9847FFF77EB901990298154B98476F
:1000B000FFF778B901990298134B9847FFF772B987
:1000C00001990298114B9847FFF76CB90198104BB2
:1000D0009847FFF767B9019902980E4B9847FFF7C9
:1000E00061B900BFBCF04120B90D4100D50D410000
:1000F0007CF0412001000500C53F4100450C410056
:10010000B9464100E54641001147410029474100F9
:100110005D474100A1474100704770472DE9F04F0E
:1001200010F03F0585B02B4C804608BF402510F0ED
:10013000400F0091924614BF274B284B9847009BD5
:100140004FF00809002613F801BB0093002D30D0B2
:100150001BF0010F224A4FF0020338D013634FF413
:100160008001204A204B4FEA5B0B6163013D106820
:1001700003910292019398474FF400101B4B60616A
:10018000C4F8A0004FF480106061C4F8A0004FF4E0
:10019000803058630399E76B2163029AC7F30057D5
:1001A000019B1068FF019847B9F1010947EA56061B
:1001B000CCD118F0800F1EBF26FA09F68AF800602D
:1001C0000AF1010A002DBAD105B0BDE8F08F5363E2
:1001D000C5E700BF00140E40E13F4100ED3F410084
:1001E00000100E40DC0540201B014100000E0E40B7
:1001F0002DE9F04F484F4FF4800585B0DFF8288196
:100200008146464CC0477D63A0473D63A0477D6360
:10021000A047DFF818A13D63A047414ED0477D635A
:10022000A0473D63A0477D63A0473D63A0473D4B8A
:1002300002221A63F37D06EB4303B3F820B0BBF14F
:10024000000F37D1F37D0221364A4FF48005334445
:100250001B7E012B09F0010B33D1F37D314D06EBF1
:100260004306368E002E47D00223BBF1000F3CD050
:100270002B634FF480057D63A0473D63A0470222B6
:10028000284B1A63013E32D1C0477D63A0473D63CE
:10029000A0474FF480057D63A0473D63A047D0474A
:1002A0007D63A0473D63A04702221E4B1A6305B041
:1002B000BDE8F08F7D630BF1FF3BA0473D63A04796
:1002C000BDE7BBF1000F0ED0116303914FEA59094E
:1002D000029201937D63A0473D63A047019B039970
:1002E000013B029AB5E75163EFE76B63C1E77D63BA
:1002F000A0473D63A047C5E7C0470223BBF1000FFD
:1003000007D02B634FF480057D63A0473D63A04772
:10031000BFE76B63F6E700BF00140E401901410010
:100320007CF0412000100E40E13F4100ED3F4100D4
:100330002DE9F04FA94C87B04FF48006DFF8B0826A
:1003400007460191A64DC0476663A8472663A847A4
:10035000A44B98476663A8472663A8476663A847E7
:100360002663A847A04BCDF8008093F817909B46D2
:10037000B9F1000F75D117F0020F9C4B4FF002023C
:1003800076D01A634FF48008DFF868A2C4F834808E
:10039000A8474FF400136361C4F8A0304FF48013F2
:1003A0006361C4F8A0304FF48033CAF83430E66B90
:1003B000C4F83080A847C6F3005817F0040F8B4BE1
:1003C0004FEA48084FF0020254D01A634FF48006F7
:1003D0006663A8474FF400136361C4F8A0304FF47C
:1003E00080136361C4F8A0304FF48033CAF834300E
:1003F000E36BC3F3005302932663A84717F0080F7B
:100400007A4B4FF0020237D01A634FF480066663CE
:10041000A8474FF400114FF480134FF4803261610C
:10042000C4F8A01005916361C4F8A0300493CAF821
:100430003420E26B03922663A847039A029BC2F31F
:100440000052059948EA820843EA0803012B029307
:10045000049B13D0009B98476663A8472663A84770
:1004600057E0666309F1FF39A8472663A8477FE78D
:100470005A6387E75A63A9E75A63C6E7BA0779D58B
:100480001F2288461F464FF4803B04926663A847AC
:10049000C4F81480C4F8A0806761C4F8A070CAF8DA
:1004A00034B0E36B03932663A847039B049AC3F31A
:1004B0000053013A49EAC3794FEA5909E3D14A4B5B
:1004C0009A7DDB7DD21A012A039240D06663A84749
:1004D000C4F81480C4F8A0806761C4F8A070CAF89A
:1004E00034B0E76B26634FF48006A847039AC7F33E
:1004F0000057A2F10208B8F1000F21D1009B9847E4
:100500006663A8472663A847019B49EAC77703B1FA
:100510001F604FF480066663A8472663A847314BE7
:1005200098476663A8472663A847304B02221A63A0
:100530002D4B1F7A002F75D1029807B0BDE8F08FC0
:10054000666308F1FF38A8472663A847D3E7009BF6
:1005500098476663A847C4F81480C4F8A080676110
:10056000C4F8A070CAF834B0E76B2663C7F300572D
:10057000A847C9E7019B1F27DFF870904FF0020AD8
:10058000D3F8008018F0010F36D0C9F830A06663A8
:100590004FEA5808A8472663A847013FF2D19BF8C5
:1005A000167008F001069BF81730DFF84090FF1A2C
:1005B000012F27D0022316B3C9F830304FF480063C
:1005C000023F6663A8472663A847002F3FF442AF67
:1005D0006663013FA8472663A847F6E700140E406C
:1005E00019014100ED3F41007CF0412000100E4018
:1005F000E13F4100000E0E40C9F834A0C7E7C9F83A
:100600003430DBE7009B9847022346B1C9F830300D
:100610004FF480066663A8472663A84779E7C9F8C0
:100620003430F5E76663013FA8472663A84781E7B2
:100630002DE9F04F524C4FF48006524F85B0DFF851
:1006400050818146504DC0477E636068A8473E6335
:100650006068A8477E636068A847DFF838A13E63FA
:100660006068A847D0477E636068A8473E636068BB
:10067000A8477E636068A8473E636068A847434B0D
:1006800002221A63E37D04EB4303B3F820B0BBF10D
:10069000000F42D1E37D02213C4A4FF480062344FF
:1006A0001B7E012B09F0010B40D1E37D374E04EB9B
:1006B0004303B3F83090B9F1000F56D00223BBF1D9
:1006C000000F49D033634FF480067E636068A8470B
:1006D0003E636068A84702222C4B1A63B9F10109F6
:1006E0003CD1C0477E636068A8473E634FF48006F4
:1006F0006068A8477E636068A8473E636068A84753
:10070000D0477E636068A8473E636068A8470222BE
:100710001E4B1A6305B0BDE8F08F7E630BF1FF3B03
:100720006068A8473E636068A847B0E7BBF1000F68
:1007300010D0116303914FEA5909029201937E632D
:100740006068A8473E636068A847019B0399013B26
:10075000029AA6E75163EDE77363B4E77E636068CE
:10076000A8473E636068A847B8E7C0470223BBF1CB
:10077000000F03D033634FF48006B3E77363FAE7E7
:100780007CF0412000140E401B01410000100E407F
:10079000E13F4100ED3F41002DE9F04F9A4D87B018
:1007A0009A4C4FF48007DFF874A283460291D04739
:1007B000974E67636868B04727636868B047954B92
:1007C000984767636868B04727636868B04767639E
:1007D0006868B04727636868B04795F81780B8F134
:1007E000000F7AD11BF0020F8B4B4FF002027DD02D
:1007F0001A634FF48009C4F834906868B0474FF426
:1008000000134FF480326361C4F8A0304FF48013BA
:100810006361C4F8A03003F18043A3F5F9335A6350
:100820000193E76BC4F830906868C7F30059B0478C
:100830001BF0040F4FEA4909774A4FF0020157D0E5
:1008400011634FF4800767636868B0474FF4001383
:100850006361C4F8A0304FF480136361C4F8A03022
:100860004FF48033019A5363E36BC3F30053039354
:1008700027636868B0471BF0080F674B4FF0020210
:1008800038D01A634FF4800767636868B0474FF445
:1008900000136361C4F8A0304FF480136361C4F89F
:1008A000A0304FF48033019A5363E36B04932763C2
:1008B0006868B047049BC3F3005349EA8309039B6C
:1008C00043EA0903012B039316D0D0476763686896
:1008D000B04727636868B0476CE0676308F1FF388A
:1008E0006868B04727636868B04778E75A6380E76D
:1008F0005163A6E75A63C5E71BF0020F00F0A98019
:10090000414E1F22424FB2464FF480054FF4001B68
:100910004FF48019059265637068B847C4F814B045
:10092000C4F8A0B0C4F81490C4F8A090019B1A4673
:100930004FF480335363E36B049325637068B847C7
:10094000049B059AC3F30053013A48EAC3784FEA7F
:100950005808D9D1B27DF37DD31A012B04935FD00F
:1009600065637068B847C4F814B0C4F8A0B0C4F8A0
:100970001490C4F8A090019B1A464FF4803353633F
:10098000E26B25637068C2F30059B847049B204EA0
:100990009F1E002F2DD1214B98476563DAF8040084
:1009A000B0472563DAF80400B047029A48EAC973F1
:1009B00002B11360144D4FF48007154E67636868E9
:1009C000B04727636868B047124B98476763686809
:1009D000B04727636868B04702220F4B1A6395F847
:1009E0000880B8F1000F40F08680039807B0BDE89A
:1009F000F08F6563013FDAF80400B0472563DAF849
:100A00000400B047C5E700BF7CF0412000140E4051
:100A10001B014100ED3F410000100E40E13F41004D
:100A2000394B984765637068B847C4F814B0C4F888
:100A3000A0B0C4F81490C4F8A090019B1A464FF4DB
:100A400080335363E36B25637068C3F30059B84781
:100A5000ABE7029B4FF01F08DFF8B0B0D3F800906F
:100A6000022319F0010F35D0CBF8303001934FEA53
:100A7000590967636868B04727636868B047B8F189
:100A80000108019BEDD195F8168009F00107EB7D77
:100A9000DFF878B0A8EB0308B8F1010F20D00223EB
:100AA000DFB1CBF830304FF48007A8F1020867635C
:100AB0006868B04727636868B047B8F1000F3FF433
:100AC00004AF676308F1FF386868B0472763686858
:100AD000B047F2E7CBF83430C8E7CBF83430E2E780
:100AE000D047022327B1CBF830304FF48007EDE632
:100AF000CBF83430F9E7676308F1FF386868B0472E
:100B000027636868B0476CE7E13F410000100E4082
:100B10002DE9F74F454D4FF48008454CDFF8209103
:100B2000444FC847C4F834806868B847C4F8308078
:100B30006868B847404B9847C4F834806868B8473D
:100B4000C4F830806868B847C4F834806868B8472B
:100B5000C4F830806868B847EE7DCDF80090002E6C
:100B600059D11F214FF48008324F01914FF4001AE0
:100B7000C4F834804FF4801B6868B8472F4B4FF49B
:100B80008032C4F814A0C4F8A0A0C4F814B0C4F80B
:100B9000A0B05A63D4F83C90C4F830806868C9F3B8
:100BA0000059B847019946EAC97601394FEA560615
:100BB000DBD1009B9847C4F834806868B8474FF48D
:100BC00080321E4BC4F814A0C4F8A0A0C4F814B01E
:100BD000C4F8A0B05A63D4F83C90C4F83080686878
:100BE000C9F30059B847C4F83480686846EAC97642
:100BF000B847C4F830806868B8470F4B9847C4F8C6
:100C000034806868B847C4F830806868B8473046B0
:100C100003B0BDE8F08FC4F83480013E6868B8477F
:100C2000C4F830806868B84799E700BF7CF041207D
:100C300000140E401B014100ED3F4100000E0E402C
:100C4000E13F41002DE9F74F554C4FF48007554ED9
:100C50008046DFF85C91544DC84777636068A847C9
:100C6000DFF850A137636068A847D04777636068B2
:100C7000A84737636068A84777636068A847376309
:100C80006068A84794F817B0BBF1000F66D1022343
:100C90004FF48007DFF814B1CBF83430009377635A
:100CA0006068A84737636068A84777636068A847AB
:100CB00037636068A84777636068A84737636068F0
:100CC000A8471F22009B18F0010F50D0CBF83030FE
:100CD0004FEA58088DE80C0077636068A8473763CF
:100CE0006068A847009A019B013AECD1E37D08F0C7
:100CF000010794F816B0ABEB030B2C4BBBF1010FC3
:100D000043D00222002F35D01A634FF48007ABF195
:100D1000020B77636068A84737636068A847BBF138
:100D2000000F29D1C84777636068A84737634FF43D
:100D300080076068A84777636068A8473763606882
:100D4000A847D04777636068A84737636068A847BB
:100D50000222164B1A6303B0BDE8F08F77630BF1E4
:100D6000FF3B6068A84737636068A8478CE7CBF80B
:100D70003430ADE75A63C8E777630BF1FF3B606837
:100D8000A84737636068A847C9E70093C8470222AD
:100D9000009B1FB11A634FF48007C4E75A63FAE758
:100DA0007CF0412000140E401B01410000100E4059
:100DB000E13F4100ED3F4100034B5B780BB1034B3A
:100DC0001847034B184700BF7CF04120F101410058
:100DD00031064100034B5B780BB1034B1847034BC3
:100DE000184700BF7CF041203103410099074100C2
:100DF00030B5ADF5017D1C460B4B1546694698474D
:100E00000A4B82B284986946824228BF024628462D
:100E100022609847236823B9054B98470DF5017D5B
:100E200030BD0020FAE700BF89F24000BD4A420011
:100E3000ED26410030B585B00C4602210E4D02AAC8
:100E40008DF80900009103AB10468DF80810A847F3
:100E500030B9039B012B03D99DF80830022B07D032
:100E600041F21700054B984741F2170005B030BD1D
:100E70009DF809302370F9E7F10D4100356E41000E
:100E80001FB5032302AA01210D4C8DF8083002235F
:100E90001046009303ABA04748B9039B012B06D92A
:100EA0009DF80830032B02D19DF809302BB141F297
:100EB0001700044B984741F2170004B010BD00BF63
:100EC000F10D4100356E410010B5112386B00521AA
:100ED000124C8DF81030030A8DF8110004AA8DF819
:100EE0001230030C000E00918DF8133003AB8DF817
:100EF00014001046A04748B9039B012B06D99DF862
:100F00001030112B02D19DF811302BB141F2170096
:100F1000034B984741F2170006B010BDF10D410098
:100F2000356E4100402830B585B028DC39B3154C0A
:100F300015230D182370234603F8010FA94219D178
:100F40004FF400730F4A811C0F4D0093104603AB02
:100F5000A84738B9039B012B04D92378152B01D15D
:100F600063782BB141F21700084B984741F2170004
:100F700005B030BD11F8012B03F8012FDEE70D207D
:100F8000F6E700BFB81E4020F10D4100356E41006C
:100F90001FB51323022102AA8DF809008DF808302D
:100FA00003AB009110460A4CA04748B9039B012BA4
:100FB00006D99DF80830132B02D19DF809302BB1CA
:100FC00041F21700034B984741F2170004B010BDDF
:100FD000F10D4100356E4100B0F5807F4FF0080201
:100FE0004FF0120330B5184C85B018BF607000F197
:100FF0000700237008BF002390FBF2F008BF637066
:101000000A18124B914219D14FF400730E4A811CF9
:101010000F4D0093104603ABA84738B9039B012B33
:1010200004D92378122B01D163782BB141F2170038
:10103000084B984741F2170005B030BD11F8015B2D
:1010400003F8015FDEE700BFB81E4020B91E402054
:10105000F10D4100356E410007B58DF80400000A1E
:1010600001A9044B8DF805001020984703B05DF8E6
:1010700004FB00BFD90F4100FF2307B58DF80030F6
:1010800069468DF8013033208DF802308DF8033039
:101090008DF804308DF805308DF80630024B9847F6
:1010A00003B05DF804FB00BFD90F41002DE9F04704
:1010B000074686B00025DFF88C90DFF88CA0DFF8BB
:1010C0008C8006A90023082001F8103DC84704467B
:1010D00048BB052304AA8DF8110004218DF81030B7
:1010E000012310468DF8123002238DF813300723A8
:1010F000009303ABD047039B062B18D99DF8103003
:10110000052B14D19DF81160012E16D19DF81230D7
:10111000012B05D0082B10D17DB9C0473546D0E74B
:10112000DDF813303B60204606B0BDE8F08741F2A1
:1011300017042046024B9847F5E741F20D04F8E703
:10114000356E4100D90F4100F10D41007910410089
:1011500007B5044B984710B901A8034B984703B053
:101160005DF804FB79104100AD1041007FB589B2F4
:101170001646112975D8DFE801F05C5E092A2C2E8D
:101180003032713471747474747471710A23384C10
:1011900005220421374D22700122E3704FF40073C1
:1011A00060702046A2702246009303ABA847039BC1
:1011B000022B2CD92378052B29D1A378013B072BAF
:1011C00013D8DFE803F0463A12511212123D0E23F3
:1011D000DDE70323DBE70723D9E70B23D7E70F235B
:1011E000D5E7254B1968022902D041F20D0410E021
:1011F0001F4D16231F4C2B704FF4007368702A4646
:101200000093284603ABA047039B052B05D841F26A
:1012100017042046194B984708E02B78162BF6D177
:101220006C78002CF3D1D5F802303360204604B03E
:1012300070BD0223ABE70623A9E741F20E04E8E7FD
:101240000D4B1B68012BD0D10D4B41F20D0498477B
:10125000DFE7D4F8033000243360E7E741F21204FB
:10126000D7E741F21104D4E741F20F04D1E700BF00
:10127000B81E4020F10D4100CC054020356E4100E4
:101280005111410089B230B585B0112932D8DFE85B
:1012900001F0660968393B3D3F41437C7C31313187
:1012A00031317C7C04233C4C05213C4DE37013120E
:1012B000217001216371131422711216A3714FF46E
:1012C000007360702046A1700821E27122460093ED
:1012D00003ABA847039B022B36D92378052B33D1C8
:1012E000A378013B072B4DD8DFE803F049524C3D72
:1012F0004C4C374041F211042046294B9847204678
:1013000005B030BD0C23CEE70123CCE70523CAE7A7
:101310000923C8E70D23C6E71F4C082306211F4DEC
:10132000237042FA03F3A270E37013141216607074
:1013300023714FF40073627120460093224603AB81
:10134000A847039B012B02D841F21704D4E7237866
:10135000082BF9D16378002BF6D10024CFE70023C6
:10136000A1E708239FE741F20F04C5E70D4B1B6877
:10137000012B07D10C4B41F20D049847BCE7637871
:10138000012BEAD041F20D04B6E741F21204B3E7B3
:1013900041F20E04B0E700BFB81E4020F10D41003D
:1013A000356E4100CC05402051114100024B0246F0
:1013B00008211868014B1847B820402085124100C9
:1013C00041F20E03984210B5044609D10120094BA1
:1013D00098470446084B984704B90124204610BD9D
:1013E00041F20F03984201D10C20F0E7002818BF0A
:1013F0000224F3E7AD134100356E41002DE9F843B7
:101400000E4685080024094FDFF82480DFF8249079
:10141000324629463868C047C847012801D114B16F
:101420000320BDE8F8830446F2E700BFB82040205F
:101430006D114100C11341002DE9F8430E468508A6
:101440000024094FDFF82480DFF824903246294633
:101450003868C047C847012801D114B10320BDE84E
:10146000F8830446F2E700BFB8204020851241000F
:10147000C1134100082870B50CD1074E1140074B2D
:10148000356845EA010421469847002818BF2C46D4
:10149000347070BD002070BDA41E4020391441007E
:1014A0002DE9F0410F4D04460F462B78434013F0D1
:1014B000F00F09D00C4B00F0F006082019680B4B18
:1014C0003143984760B92E70C4F38101084B3A4606
:1014D00018680431074B9847074BBDE8F04118479F
:1014E000BDE8F081A01E4020A41E40203914410018
:1014F000B82040206D114100C113410007B50E4BCB
:1015000001A90420984758B90C4B01991B6853B1A5
:1015100011F0A00F04D00C20094B984700B901200E
:1015200003B05DF804FB8B06FAD50420054B984701
:101530000028F4D0F4E700BFFD134100D00540209F
:10154000AD134100391441002DE9F3410023064653
:101550000D4606240D4FDFF83880019331460420F4
:10156000B84718B1002002B0BDE8F0810DB90120E4
:10157000F9E701A90420C0470028F3D1019B35EA0F
:101580000303F4D0013CE9D1ECE700BF391441007A
:10159000FD13410070B500210646134B0820984703
:1015A000054638B94FF020414FF0A0400F4CA047FE
:1015B00010B90525284670BD76B94FF000614FF08F
:1015C000A840A04700210A4B0A488E4208BF18468F
:1015D000A0470028EDD0EDE71E20074B98470028D4
:1015E000EBD00546E6E700BF39144100491541003C
:1015F000320F0050000F0050AD134100174B012275
:1016000013B5042001A9164C1A60A047034640B93F
:10161000019B13F0220F07D101A90420A047034624
:1016200048B1184602B010BD0E4B1E219847034624
:101630000028F6D1F0E701998A06F2D50A4B1A681C
:10164000084B32B9042098470346002B08BF3223C9
:10165000E7E71E2198470346F7E700BFA81E402092
:10166000FD13410039144100D00540202DE9F0411F
:101670000F4D04460F462B78434013F0F00F09D06E
:101680000C4B00F0F006082019680B4B31439847CB
:1016900060B92E70C4F38101084B3A4618680431D2
:1016A000074B9847074BBDE8F0411847BDE8F0816C
:1016B000A01E4020A41E402039144100B820402024
:1016C00085124100C113410070B560B9074E114049
:1016D000074B356845EA010421469847002818BFA2
:1016E0002C46347070BD002070BD00BFB80540208E
:1016F0006D1641002DE9F04F002789B088469946C4
:101700003E46DFF870A1554D03900492464502DB3A
:101710004FF0000B98E0DAF800300424A8EB060242
:10172000053B93FBF4F4062394422B70A8BF1446A8
:101730009DF80C30AC706B702312EB70BDF810305C
:10174000112B00F28580DFE803F044460F3A3C3E5F
:1017500040420909098383838383090941F2120BFB
:1017600058463F4B98476FE008232B7109EB8602E0
:101770003C4B214601390433481C2ED14FF40073F1
:10178000A1002A4635480093053107ABDFF8E8B0E1
:10179000D847354B012226441A60079B032B5AD9A0
:1017A0002B78062B57D1EB78B5F80120013B072B9E
:1017B0003BD8DFE803F0243D3A373A3A3A400C236D
:1017C000D3E70123D1E70523CFE70923CDE70D2395
:1017D000CBE70023C9E70423C7E71068964603F860
:1017E000040C1068001203F8030C52F8040B0014E8
:1017F00003F8020C9EF9030003F8010CBAE74FF05E
:10180000000B3FB1194B1F68012F17D1184B0592E0
:101810009847059A944213D0BBF1000F08BF4FF4CC
:10182000805B9DE741F20F0BEBE741F20D0BE8E720
:1018300041F20E0BE5E741F20D0BE3E70127E9E783
:10184000BBF1000F3FF462AF584609B0BDE8F08F1E
:1018500041F2110B84E741F2170B81E7B81E4020DB
:10186000356E4100BD1E4020BC054020CC05402007
:1018700051114100C0054020F10D41002DE9F0411A
:1018800007460E461446002A33D0930731D11A4B2F
:101890001B689A422DD8194D2B7833B1184B08206C
:1018A0001968184B984728BB2870174B174D1968B3
:1018B00001F03702122A11D139460420A847C8B9CD
:1018C00013483346A10807220068124CA047124B68
:1018D000984778B9114BBDE8F041184721F037011E
:1018E000002041F012011960A8470028E4D0BDE8AB
:1018F000F0810420BDE8F081C4054020A01E4020F6
:10190000A41E402039144100B80540206D16410046
:10191000B8204020F5164100C1134100FD144100DC
:101920002DE9F04F002789B089465A4D3E46B8460A
:10193000039004920593C84502DB4FF0000A9FE034
:10194000554B0424A9EB08021B68053B93FBF4F4F8
:10195000062394422B70A8BF14469DF80C30AC703F
:101960006B702312EB70BDF81030112B00F28C80DD
:10197000DFE803F046480F3C3E4042440909098A2B
:101980008A8A8A8A090941F2120A5046434A9047D4
:1019900076E00A232B714FF400732A460521009349
:1019A00007AB3C48A044DFF808B1D8473C4B0122C4
:1019B0001A60079B032B6AD92B78062B67D1B5F8E1
:1019C00001B0059B95F803C00BEB0600354A03EB0D
:1019D0008601864218D10CF1FF3CBCF1070F40D8BC
:1019E000DFE80CF02B423F3C3F3F3F450E23D1E761
:1019F0000323CFE70723CDE70B23CBE70F23C9E76B
:101A00000223C7E70623C5E74E4502F10402E2DAE6
:101A100012F8043C01360B6012F803EC43EA0E2383
:101A20000B6012F802EC43EA0E430B6012F801EC73
:101A300043EA0E6341F8043BCBE74FF0000A2FB1B5
:101A4000194A1768012F15D1184A90475C4513D0E1
:101A5000BAF1000F08BF4FF4805A96E741F20F0A1F
:101A6000EDE741F20D0AEAE741F20E0AE7E741F23B
:101A70000D0AE5E70127E9E7BAF1000F3FF45BAF94
:101A8000504609B0BDE8F08F41F2110A7DE741F2FE
:101A9000170A7AE7B81E4020C0054020356E410085
:101AA000BC054020BC1E4020CC0540205111410007
:101AB000F10D41002DE9F04107460E461446002A7B
:101AC00033D0930731D11A4B1B689A422DD8194D48
