:020000040040BA
:10C00000482D4020F9EC4000F5EC4000F5EC4000F4
:10C01000F5EC4000F5EC4000F5EC400000000000BD
:10C02000000000000000000000000000F5EC4000EF
:10C03000F5EC400000000000F5EC4000F5EC40009D
:10C04000F5EC4000F5EC4000F5EC4000F5EC40006C
:10C05000F5EC4000F5EC4000F5EC4000F5EC40005C
:10C06000F5EC400000000000F5EC4000F5EC40006D
:10C07000F5EC4000F5EC4000F5EC4000F5EC40003C
:10C08000F5EC4000F5EC4000F5EC4000F5EC40002C
:10C09000F5EC4000F5EC4000F5EC4000F5EC40001C
:10C0A000F5EC4000F5EC4000F5EC4000F5EC40000C
:10C0B000F5EC40002DEA4000F5EC4000F5EC4000C6
:10C0C000F5EC4000F5EC400065D64000F5EC400092
:10C0D000F5EC4000F5EC4000F5EC4000F5EC4000DC
:10C0E0003DEA4000F5EC4000F5EC4000F5EC400086
:10C0F000F5EC4000F5EC4000F5EC4000F5EC4000BC
:10C10000F5EC4000F5EC4000F5EC4000F5EC4000AB
:10C11000F5EC4000000000000000000000000000FE
:10C12000F5EC4000F5EC400041C54000F5EC400066
:10C13000F5EC4000F5EC4000F5EC4000F5EC40007B
:10C14000F5EC4000F5EC4000F5EC4000F5EC40006B
:10C15000F5EC4000F5EC4000F5EC4000F5EC40005B
:10C16000F5EC4000F5EC400010B5054C237833B9F0
:10C17000044B13B10448AFF300800123237010BDBA
:10C180003C04402000000000787941000C4B43B192
:10C190000C480D4910B5AFF300800C48036823B973
:10C1A00010BD0A48036833B97047094B002BF7D01C
:10C1B000BDE810401847064B002BF5D0184700BFCC
:10C1C0000000000078794100400440207879410067
:10C1D00000000000094B1A681AB9EFF3108121B171
:10C1E0001A711A6801321A60704772B6BFF35F8F16
:10C1F00001221A711A6801321A6070475C044020EB
:10C20000054B1A68013A1A601A6822B91B7913B1F2
:10C21000BFF35F8F62B670475C04402008B51720FB
:10C22000054B9847054B01204FF48071042218609C
:10C2300019631A6008BD00BF6DEB400000C00040EC
:10C2400000B20A4901380A6900B29632431C92B220
:10C250000AD00B69D31A1BB2002BFADC01389632D4
:10C2600000B292B2431CF4D1704700BF00C000403E
:10C27000C8B10D4970B4002544F686260B699BB2FF
:10C2800003F19602334492B29CB20B69D31A1BB2EB
:10C29000002BFADC963292B2A242F6D10135ABB253
:10C2A0009842EBD870BC704700C000402DE9F041C7
:10C2B00082B00022214B02A840F8042D9847804606
:10C2C000002835D0019B1E4F1E681E4B98471E4C00
:10C2D000042268461D4B0236226298471C4D01E03D
:10C2E000A84720B9636A012168465B07F8D4164B5A
:10C2F0000421184AD3F8E440C3F8E460D9617D68AA
:10C300007E609047B8F1000F07D0601B80B238B94B
:10C310003868114B9847019B3B6002B0BDE8F08143
:10C320003A680E4B1168984738680D4B9847F2E70A
:10C33000034F0C4B98473B680193C5E7F9ED40006C
:10C3400064044020D5C14000008007406572410070
:10C350007572410001C2400009EE40007570410055
:10C3600019F440007DF84000F8B51B4C237A03B166
:10C37000F8BD1A4B204698472268194B1668984713
:10C38000237A0546002BF3D10422164F0236164BB2
:10C390003A6266609847637A8BB1023D114B042282
:10C3A00001210020ADB2C3F8EC002172C3F8E460B3
:10C3B000C3F8F050DA60C3F8D010DA61F8BD01229A
:10C3C0000A4B022062729847094A0A4BC7F8E020DC
:10C3D000C7F8F830E1E700BF64044020F9ED400001
:10C3E000B9ED400000800740F5C4400025C540007D
:10C3F00018C002400120040C10B5094C237A03B97F
:10C4000010BD084B9847084B0422206807491A6161
:10C410001A6288470022064B2272BDE81040184776
:10C4200064044020D5C140000080074009EE400070
:10C4300001C24000024B1B7A03B97047014B1847F9
:10C4400064044020ADC24000024B1B7A03B9704720
:10C45000014B184764044020ADC2400010B50C4B9E
:10C46000044698470B4B98470B4A01200B4B14602E
:10C4700098470B4B00210B4A0B48C3F8A420C3F884
:10C48000B8000A4AC3F8AC10BDE81040104700BF1E
:10C49000D5C14000F5C440007004402025C54000CF
:10C4A000008007401CC002401140010B01C2400047
:10C4B000F8B50A4B07460E4601249847084B02225E
:10C4C000084D1A62C3F8A070C3F8B060DA60C3F810
:10C4D0009040DA61A8472046F8BD00BFD5C14000B2
:10C4E0000080074001C24000014B1B68184700BF95
:10C4F0007004402008B5084B1A785AB90121074A40
:10C500003A2019709047064B40214FF0806283F823
:10C510003A135A6008BD00BF740440206DEB400020
:10C5200000E100E08001054B00220344D96D5A6709
:10C53000DA67C3F88020C3F8842070470080074082
:10C540000C4BD3F8DC30D90707D40A4BD3F89C3016
:10C55000DB0700D47047084B1847084B10B59847C5
:10C56000044BD3F89C30DA0700D410BD024BBDE871
:10C570001040184700800740E9C4400049C440000B
:10C5800030B4FF2A82B04FEA501300F01F00ADF81C
:10C59000041039D05B02274C012112F0010F1C441A
:10C5A00001FA00F0256F014614BF0543854312F0E0
:10C5B000020F214A2567D45814BF04438443D45042
:10C5C0001E4AD0509DF80520012A26D02BD3022ADE
:10C5D0000CD09DF8042092B1022A02D902B030BCDE
:10C5E0007047174AD15002B030BC7047114A1A4404
:10C5F0001166C2F894109DF80420002AECD1114A6B
:10C60000D15002B030BC704701210A4A5B02814020
:10C61000D1509DF80520012AD8D1064A1A44C2F803
:10C6200090105166D5E7034A1A441166C2F890107B
:10C63000CFE700BF000E0E40740E0E40040E0E40F9
:10C64000100E0E40140E0E40704700BF704700BF22
:10C65000704700BF704700BF704700BFF8B5182093
:10C660000E4CA0471920A04730270D4B01220D4E3C
:10C6700048F2070541F24F2440F6271004211A64BE
:10C68000C3F88020C3F8C4705E64C3F88450DC65CE
:10C690005865C3F8C0201964F8BD00BF6DEB4000B9
:10C6A00000C0004002C00900024BD3F8900080B2E5
:10C6B000704700BF00C00040704700BFF0B52A4E71
:10C6C00087B0054633780BB100233370274C012225
:10C6D0007020274F2378617843EA0121B8472378F7
:10C6E000617801226F2043EA0121B847214B0F20D6
:10C6F0009847AB792968C022012B8DE8060028D025
:10C70000022B0CBF00234FF4006302936B79022BC2
:10C7100025D0012B0CBF4FF480530023039300243A
:10C720006946154A154B1648049498471448154B0A
:10C7300098471348144B9847144B4FF480304FF4EC
:10C7400000410122C3F80406C3F80416327007B092
:10C75000F0BD4FF4007302936B79022BD9D14FF4E3
:10C7600000530393DBE700BF7C044020100040200F
:10C7700081C540006DEB400080D1F0083DEC4000E9
:10C7800000C00240DDEC4000E5EC4000000E0E4031
:10C79000014B00221A7070477C044020004B184760
:10C7A00069C34000004B1847F9C34000004B1847CD
:10C7B00035C4400008B5064B1B780BB9012008BDF5
:10C7C000044B05489847003018BF012008BD00BF42
:10C7D0007C044020EDEC400000C00240037D30B4FA
:10C7E0006FF30003046803756CB10D4613B207497B
:10C7F00051F8233081682846DB05234648BF42F0C4
:10C80000800230BC184730BC704700BF0081034035
:10C81000F0B585B0EFF31083B3FA83F35B090093AF
:10C8200072B6BFF35F8F4B4A0121009B116013B1B9
:10C83000BFF35F8F62B6484D484E2B78032B5AD01A
:10C840006A88B489A41AA4B2002C2DD011463F2CBA
:10C8500077D900234024AB71B268EFF31083B3FAA9
:10C8600083F35B09029372B6BFF35F8F3C4B029870
:10C870001B689B075DD44CB10A443A4B12F8011B6C
:10C88000013303F8011CD9B2A142F7D36B8801220E
:10C8900035491C44354B6C800A601A6010B1BFF3F7
:10C8A0005F8F62B605B0F0BDAB88F18813449BB2D0
:10C8B0009942AB800AD0AF7947B97369002B46D053
:10C8C000984700283FD169880123C4E704232B70CF
:10C8D000EFF31083B3FA83F35B09019372B6BFF3EE
:10C8E0005F8F1023019A2048204903600B60002AC3
:10C8F000D5D105B0F0BD336903B19847EFF310838C
:10C90000B3FA83F35B09039372B6BFF35F8F114AE7
:10C910000121039B116013B1BFF35F8F62B6002347
:10C92000114A0221116033617361B3812B7005B02C
:10C93000F0BD10B1BFF35F8F62B604232B7005B05A
:10C94000F0BD012387E76C803946B4897FE7114643
:10C95000012380E72082034084044020C81D40203A
:10C9600030810340000010A060810340F08103404B
:10C97000411E2DE9F0434D00654E83B06B1806EB68
:10C98000C3031A7FD4074AD5D3F814901B6999457D
:10C9900000F08680A3EB0903B3F5803F4BD84FEA44
:10C9A000034E02B25B4C54F822704FEA820CFF0532
:10C9B0000CEB040836D554F822700824C7F302178C
:10C9C000BC40013C1C4240F08E806C18524F06EB7C
:10C9D000C40407EB0217E2684A447A60EFF310825E
:10C9E000B2FA82F25209019272B6BFF35F8FDDF89C
:10C9F0000490FA68D20623D44EF021024FF0007062
:10CA0000464DBA6000FA01F16269A36113446361A3
:10CA1000A961B9F1000F02D0BFF35F8F62B603B016
:10CA2000BDE8F08354F82240C4F3C124012C64D043
:10CA30004EF0140EC9E74FF480334FF0000EB0E70C
:10CA4000B9F1000F02D0BFF35F8F62B66B1806EB2F
:10CA5000C3035A691A61D8F800201B7FD70501D596
:10CA60009C0729D4DB07DAD56B1806EBC30303F167
:10CA7000180214799B686FF300041471002BCED058
:10CA8000D8F800202944D70506EBC10648BF40F07E
:10CA90008000316902460020984703B0BDE8F0836A
:10CAA0001C4C03B24FEA830C54F823300CEB0408FF
:10CAB000DC05D9D59307D7D519490123194A4CF874
:10CAC00001305CF80220D20302D5174A4CF802303C
:10CAD0004FF4805215490124104B02FA00F04CF833
:10CAE000014098619BE76C184EF0080E06EBC404F9
:10CAF000277F6FF34107277767E7D8F8007008248E
:10CB0000C7F30217BC40A3423FF65FAF90E700BFF8
:10CB100084044020008103400083034000800340E0
:10CB2000608103403081034090810340F0810340E5
:10CB30002DE9F04383B0EFF31083B3FA83F35B097D
:10CB4000009372B6BFF35F8F584B2220009C98472A
:10CB5000574BA0259847574B0421574A83F8225337
:10CB60004FF4802059609047544B4FF000711A46A3
:10CB7000C3F80018D3F8001841F40041C3F80018B6
:10CB8000196821F480511960196821F44061196015
:10CB9000D3F8001821F48041C3F80018D2F8043803
:10CBA0005904FBD5464BD2F8001893F81C9093F823
:10CBB00034C041F4804893F84CE009F0FE0993F842
:10CBC00064700CF0FE0C93F87C600EF0FE0E93F88F
:10CBD000945007F0FE0793F8AC0006F0FE0693F8B9
:10CBE000C41005F0FE0500F0FE006FF3820901F0AD
:10CBF000FE016FF3820C6FF3820E6FF382076FF307
:10CC000082066FF382056FF382006FF3820183F86F
:10CC10001C9083F834C083F84CE083F8647083F888
:10CC20007C6083F8945083F8AC0083F8C410C2F899
:10CC30000088EFF31083B3FA83F35B09019372B6B4
:10CC4000BFF35F8F019ED2F800181C4B21F4804186
:10CC5000C2F80018D3F804285204FBD51A684FF024
:10CC6000080E0120102122F48072042702251A6088
:10CC7000C3F818E0986199619F619D61C3F808E06D
:10CC80009F609D60D8609960D3F8002842F480428C
:10CC9000C3F8002816B1BFF35F8F62B614B1BFF3BB
:10CCA0005F8F62B603B0BDE8F08300BF6DEB40005C
:10CCB00029E9400000E100E029EC40000080034049
:10CCC0008404402010B582B0EFF31083B3FA83F3ED
:10CCD0005B09019372B6BFF35F8F144B019CD3F8CD
:10CCE0000028134922F48042C3F80028D3F8002812
:10CCF00022F48042C3F800281A6842F480721A6055
:10CD0000D3F8002842F48042C3F80028D3F8002862
:10CD100022F40042C3F8002888472220054B984798
:10CD200014B1BFF35F8F62B602B010BD0080034044
:10CD300049E94000B5EB4000034BD3F8040810F478
:10CD4000405018BF0120704700800340084B00F09E
:10CD50007F011A6822F080021A60186820F07F00B4
:10CD6000084318601A6842F080021A60704700BFDA
:10CD700000800340024B186800F07F00704700BF3E
:10CD800000800340014B986099817047C81D402086
:10CD90002DE9F04F00F00F0487B0082C00F251810C
:10CDA000AF4D0123ED69A3402B4040F04A8101F0D3
:10CDB0000305012D00F0DA81C0F043819E4625B2C3
:10CDC000A84EA2F5806810F0800F56F825C04FEAF3
:10CDD000C121A54F1FFA88F801F4C05106EB850068
:10CDE0000CEA07070CBF4FF0000C4FF4807CB8F53D
:10CDF0007C4F80F02A81702341EA0E0241F67C1EAE
:10CE00000121082C42EA0C0201FA04F143EA020370
:10CE10001FFA81FA03EA0E0343EA070346F82530B6
:10CE200000F087808E4BDA69D6050CD5DA6941F4BB
:10CE300080718E4E22F480721FFA81FADA613368B3
:10CE400023F002033360072C73D0854BDA69110697
:10CE50000AD5DA694AF0800A854922F08002DA614F
:10CE60000B6823F002030B60062C62D07C4BDA695E
:10CE700052060AD5DA694AF0400A7E4922F0400299
:10CE8000DA610B6823F002030B60052C51D0744B60
:10CE9000DA6997060AD5DA694AF0200A764922F05B
:10CEA0002002DA610B6823F002030B60042C40D0EF
:10CEB0006B4BDA69D6060AD5DA694AF0100A6F496F
:10CEC00022F01002DA610B6823F002030B60032CDE
:10CED0002FD0634BDA6911070AD5DA694AF0080ADC
:10CEE000674922F00802DA610B6823F002030B6045
:10CEF000022C1ED05A4BDA6952070AD5DA694AF079
:10CF0000040A604922F00402DA610B6823F002038C
:10CF10000B6074B9524BDA6997070AD5DA694AF09F
:10CF2000020A594922F00202DA610B6823F0020377
:10CF30000B6005EB4503554A8346E5B202EBC30996
:10CF40004AFA04F32846DE0740F1F68004F1FF3C7C
:10CF500001234F4A0CFA03F8414FA34008EB0C069B
:10CF600002EBC606327F964602F001026FF3000E16
:10CF700086F81CE0DBF8001041F00201CBF800104D
:10CF8000F9690B43FB61DBF83030590340F1F18064
:10CF9000DBF8003043F40073CBF80030002A00F0D7
:10CFA000CB806B1E062B00F2D48059F80C2CDBF8DA
:10CFB00000302C49DF0548BF45F0800000F00F002D
:10CFC00003B2082851F823503BD8254E0121F669B9
:10CFD0008140314235D02F4951F823100E0330D40F
:10CFE000471E2B4E79000091394406EBC10101F137
:10CFF000080E9EF8146016F00406019621D159F827
:10D00000146CC44459F8108C0296214E06EBCC0CDB
:10D0100059F8186C03969CF81CC0CCF3400CEFF345
:10D020001086B6FA86F67609059672B6BFF35F8F5C
:10D030009EF814E0059E1EF0010F2DD0002E40F04A
:10D04000AD80002007B0BDE8F08F082A7FF6D4AE8F
:10D050005300013BB3FA83F3C3F11C031B01CBE67E
:10D06000008003400081034083E6FFFF20810340EE
:10D070001C81034018810340148103401081034048
:10D080000C81034008810340048103408C0440204C
:10D0900084044020C081034091F81CE04EF0010E52
:10D0A00081F81CE016B1BFF35F8F62B60099A8EB60
:10D0B00002064FF000083944002E08BF4CF0010C66
:10D0C000FFB28E460299062F11440A46374901EBFA
:10D0D000CE010E6101F1180E039ECA608E600E7FB4
:10D0E000C1F814806CF34106C1F818800E775AD944
:10D0F000EFF31082B2FA82F25209049272B6BFF3D1
:10D100005F8F4FF480522A4E049902FA00F0294AA8
:10D11000B061E80552F82320264D48BF012022F4D3
:10D12000007258BF022045F82320234A42F823000A
:10D1300011B1BFF35F8F62B6013409F118090BF129
:10D14000040BE5B2092D7FF4FBAE012007B0BDE86A
:10D15000F08FDBF8003059F80C2CDB053FF527AFDA
:10D1600059F8083CD21A49F80C2C20E74FF0040E6D
:10D1700025E6B368002B3FF464AFDBF8002008EB32
:10D180000C060A49D20501EBC60648BF45F08000EF
:10D190007169024601209847002053E7BFF35F8F73
:10D1A00062B601984EE7054B9847C5E784044020D6
:10D1B0000080034000810340F081034071C94000BA
:10D1C00000F00F02082A00D970472DE9F041012331
:10D1D000DFF87CE0561E17B2DEF81C1093401A48A8
:10D1E000750021EA0301194CAB19CEF81C1050F858
:10D1F000271004EBC30321F0020140F82710197F28
:10D20000C90708D4354404EBC504237F6FF38203B8
:10D210002377BDE8F08103F11801D3F808801B7F64
:10D220006FF300030B71B8F1000FEBD050F827300B
:10D230000120DB0505EB060304EBC30348BF42F006
:10D2400080021969C047DDE7008103408404402063
:10D2500000800340034B00F00F0053F82000C0F3A0
:10D26000C0407047C081034000F00F03082B36D840
:10D27000304AF0B51CB283B052F8242016032BD4E8
:10D280005A1E2D4902EB420201EBC202157F15F036
:10D29000040121D1ED0724D4EFF31081B1FA81F11B
:10D2A0004909019172B6BFF35F8F000601991AD444
:10D2B000224A4027224E4FF4002552F824302148BC
:10D2C00023F4007342F8243046F8247040F82450C8
:10D2D00011B1BFF35F8F62B6012003B0F0BD002033
:10D2E00070470846F9E7184850F8240010F4405FEA
:10D2F000DED0157F0120DFF858E04FF4805645F06E
:10D3000004050E4F06FA03F315774EF82400AEF12C
:10D31000300E57F824200D4D42F4007247F82420B7
:10D320004EF82460AB610029D6D0BFF35F8F62B6A0
:10D33000D3E700BFC0810340840440200081034044
:10D3400060810340F081034030810340008003404E
:10D350002082034000F00F00082847D8F8B5431E8C
:10D360002A4C5900CA1804EBC202157F6D0734D548
:10D3700092F81CE04FF4805705B2254E07FA00F0F2
:10D380006FF3820EDFF8A0C082F81CE0AA0046F816
:10D390002570CCF8140016441E4850F825000703E9
:10D3A0000BD51D481058450622D44FF400201B4DC4
:10D3B0003060505940F4007050510B4404EBC303EB
:10D3C0001A7FD40710D503F1180299681B7F6FF3F9
:10D3D0000003137188470120F8BD00B20D4A52F8CE
:10D3E0002050820028030DD40120F8BD0020704792
:10D3F0000B4F4FF0400E0B484FF4802542F807E0EA
:10D400001550D2E7024E1644CBE700BF84044020FB
:10D4100020820340C08103403081034000810340EB
:10D4200060810340F08103400080034000F00F0062
:10D430002DE9F04F08284D4E05B283B056F825E08F
:10D4400030D84B4F0124FF6984403C422AD0494CDC
:10D4500054F82540240325D400F1FF38DFF820C11B
:10D460004FEA480A0AEB08070CEBC70707F1080B5D
:10D470009BF8144014F0040414D1EFF31089B9FAA6
:10D4800089F94FEA5919CDF8009072B6BFF35F8F52
:10D490009BF814B0DDF800901BF0010F06D0B9F135
:10D4A000000F4FD1002003B0BDE8F08F3C7F44F067
:10D4B00001043C77B9F1000F02D0BFF35F8F62B671
:10D4C000C244002B08BF41F001015FFA88F8002731
:10D4D0000CEBCA0CB8F1060FCCF810309CF81C30DD
:10D4E000CCF80C2061F341030C9ACCF81470CCF802
:10D4F0000820CCF818708CF81C3028D9EFF3108372
:10D50000B3FA83F35B09019372B6BFF35F8F4FF4F5
:10D51000805317491EF4807F019A03FA00F0886156
:10D5200056F8253017D0012001F5F87123F4007367
:10D5300046F8253041F82500B2B1BFF35F8F62B6DF
:10D540000120B0E7BFF35F8F62B62046ABE70A4B1E
:10D5500098470120A7E70220084923F4007346F802
:10D56000253041F82500E7E701209CE700810340D2
:10D5700000800340C081034071C94000F081034036
:10D580008404402000F00F02F0B5541EE3B2062BD5
:10D590001BD94FF4805311B22A4D01269340DFF876
:10D5A000A8E00227CEF8143045F8217045F8216034
:10D5B000060625494B6119D460002449031901EB83
:10D5C000C3031D7FED0723D4F0BD4FF00075204944
:10D5D00000264FF4805301EB02111B4FA5409340EE
:10D5E0007D618E60060618494B61E5D593001948A8
:10D5F000194D4FF40056194918441D441944036845
:10D6000013F4405FD8D02E600B689F04FCD4F6E77B
:10D6100003F118059E682B796FF300032B71002E20
:10D62000D2D00F4B0444012053F8223001EBC40147
:10D63000DB050969334648BF42F08002BDE8F0408F
:10D64000184700BF2082034000800340840440202C
:10D650000083034030810340F0810340C0810340D8
:10D6600000810340A84B5A682DE9F04F55078BB055
:10D6700009D504229A60D3F8043813F4405F38D0F7
:10D680000BB0BDE8F08F5A6894072BD45B68D804C0
:10D6900038D59E4B082110209D4A186019601368E8
:10D6A000590700F177811368DA0704D5994B1B6895
:10D6B000DB0700F1CB81964B1A68970700F19A813E
:10D6C0001A6816071AD5944A082111601B68DD07ED
:10D6D000D6D4924B1B78032BD2D1914B4FF400221E
:10D6E0001A60CDE702218F4A996090470BB0BDE8E0
:10D6F000F08F8C4B98470BB0BDE8F08F1A68D406BA
:10D7000000F13881884D012388494FF0007E7E4C1E
:10D710004FF48058DFF82892DFF828B220E008FAAA
:10D7200003F722693A4215D0D1F890204FEA830AD4
:10D7300001F1900CD20703D50A68D20700F1898362
:10D74000DCF80020D20405D50A68C2F30132002AB1
:10D7500000F09A83013304311835092B00F0AE80B4
:10D760005E1E2769D8B20EFA06F2174203D0676828
:10D770003A4240F03382082BD1D122694FF480170E
:10D78000D202CED5D9F80020920746D5DBF800208A
:10D79000920742D5664A1821604C4FF0020C15687A
:10D7A00001FB0641DFF8A0E1C5F302150A6903FA9F
:10D7B00005F54869CF68CEF800C0D9F80030C3F34A
:10D7C0000A539D4240F21984002B40F05C84594B6F
:10D7D0004FF480421A601823564902204A4A03FB3C
:10D7E00006444FF4801308605361237F6169D807B2
:10D7F00021617FF545AF207FA3686FF3000020779C
:10D80000002B3FF43DAF4A4A0020126812F4807F9B
:10D8100014BF88220822984732E7D9F80020D2079F
:10D820003BD5DBF80020D20737D518233B4C404AC4
:10D83000082703FB0643106859691A69C0F30210F0
:10D84000914207FA00F7C0F0AC831B7F980700F104
:10D85000A883EFF31083B3FA83F35B09079372B6DF
:10D86000BFF35F8F33490120079B274A08604FF4BD
:10D870008011516113B1BFF35F8F62B6182303FBB0
:10D880000644237F6269D90722617FF5F9AE2846F5
:10D8900008220021284B9847F2E6D9F8002092068A
:10D8A00008D4D9F80020520704D4D9F80020520631
:10D8B0007FF537AF0820214B9847E1E6124B5A68B5
:10D8C000120700F1C6801A69D7073FD40E4A1369C0
:10D8D000DD067FF5D5AE5368DC067FF5D1AED2F814
:10D8E0000018134621F48041C2F8001802E05A687B
:10D8F000D00703D4D3F804285104F8D5024B1021E3
:10D90000012259619A61BBE60080034020820340F6
:10D9100030810340C0810340608103408404402083
:10D92000F08103403D5E41008C044020348103407F
:10D930002081034040820340DDC7400085D5400080
:10D9400050810340E0810340808103405A68D6073C
:10D95000BCD5D3F800280120102122F48042C3F85E
:10D96000002858619961D3F8002842F48042C3F836
:10D97000002885E6A54A102111601B6898073FF52D
:10D980007FAEA3490B78012B00F0A282042B7FF419
:10D9900077AEA2E69E4C2378E3B19E4D2B6903B18E
:10D9A0009847EFF31083B3FA83F35B09029372B6DF
:10D9B000BFF35F8F984A0121029B116013B1BFF33F
:10D9C0005F8F62B60023914A022111602B616B6167
:10D9D000AB812370914B1D68C5F30A55082D00F0EB
:10D9E000AD8005258E494FF4002004222570086083
:10D9F0001A6345E6864C2278012A00F02F81022A1C
:10DA000000F0E580042A00F0E2800521844B4FF409
:10DA10000022804D21701A60EFF31083B3FA83F374
:10DA20005B09059372B6BFF35F8F7B4A0121059BAB
:10DA3000116013B1BFF35F8F62B60023734A0221F6
:10DA400011602B616B61AB81237019E6754B9847B0
:10DA500016E608226E4C9A60237FDD0700F158819C
:10DA600094F83430D80700F1408194F84C30D9074D
:10DA700000F19B8194F86430DF0700F1838194F812
:10DA80007C30DE0700F16B8194F89430DD0700F103
:10DA9000518194F8AC30D80700F1AF8194F8C430CC
:10DAA000D90700F19581604B9847604A604910683A
:10DAB000604B20F07F001060106840F08000106024
:10DAC0000868034043F030030B600B6843F0020327
:10DAD0000B60D36943F00103D361EFF31083B3FA12
:10DAE00083F35B09099372B6BFF35F8F4C4B042637
:10DAF000099902254FF480501E601D60906111B19C
:10DB0000BFF35F8F62B6EFF31083B3FA83F35B0961
:10DB1000089372B6BFF35F8F3F4A0121089B1160E3
:10DB200013B1BFF35F8F62B600233A4A3749022030
:10DB300008601361536193812370A1E53E4B354E1C
:10DB40001A780333DFF810E132703C4F3C483D490E
:10DB50003D4A9EF800C0013297F800E01B78077834
:10DB6000087812F8011C86F801C01278F37086F864
:10DB700002E0364B37717071B171F271984700282D
:10DB800000F0A9800422214B1A6096F90020002A97
:10DB9000C0F2FE81F288002A40F044810322227004
:10DBA000EFF31082B2FA82F25209019272B6BFF319
:10DBB0005F8F012101981A4A196011601D6015607C
:10DBC00000283FF45DADBFF35F8F62B658E5114D9D
:10DBD0002B69002B3FF420AF98471DE71C4B03EB4C
:10DBE0000013D968C9073FF54BAD6261DB681B0CB8
:10DBF00008D006EB4606064A02EBC6025169CB1A6C
:10DC000053611361134B98473AE500BF60810340AD
:10DC100084044020C81D40202082034030810340FE
:10DC2000F081034011C84000B95D4100008003400D
:10DC30000081034083E6FFFF000010A0020010A057
:10DC4000040010A0050010A0060010A0715E4100A5
:10DC50000083034071C94000010010A01E6867885E
:10DC6000C6F30A56A54DBA19AB89934201DADB1BFC
:10DC70009EB2AA683A446EB1A14B18780133D9B26A
:10DC800002F8010BB142F8D33744402EBFB267808F
:10DC900000F054816B69AF811BB19847002800F0F8
:10DCA0006C81984A0221032311602370EFF31083E3
:10DCB000B3FA83F35B09049372B6BFF35F8F01205D
:10DCC000049C914B08211060186011601960002CB1
:10DCD0003FF4D6AC77E705258B494FF40020894BFC
:10DCE0000422257008601A60CAE46FF30003256AF5
:10DCF00084F83430002D3FF4B8AE844B0120A16A83
:10DD00001B6813F4807F14BF82220222A847ACE66E
:10DD10006FF30003A5682377002D3FF4A1AE7C4B81
:10DD2000012021691B6813F4807F14BF8122024601
:10DD3000A84795E66FF30003D4F8805084F8943038
:10DD4000002D3FF4A6AE734B0120D4F888101B6859
:10DD500013F4807F14BF86220622A84799E66FF34A
:10DD60000003A56E84F87C30002D3FF48DAE6A4B25
:10DD70000120216F1B6813F4807F14BF85220522C8
:10DD8000A84781E66FF30003256D84F86430002D09
:10DD90003FF475AE614B0120A16D1B6813F4807FC9
:10DDA00014BF84220422A84769E66FF30003A56B21
:10DDB00084F84C30002D3FF45DAE594B0120216CAE
:10DDC0001B6813F4807F14BF83220322A84751E607
:10DDD0006FF30003D4F8B05084F8C430002D3FF442
:10DDE00062AE504B0120D4F8B8101B6813F4807F4A
:10DDF00014BF88220822A84755E66FF30003D4F821
:10DE0000985084F8AC30002D3FF448AE464B0120CA
:10DE1000D4F8A0101B6813F4807F14BF8722072258
:10DE2000A8473BE6002101201022A18061802070DC
:10DE30001A60EFF31083B3FA83F35B09009372B6B1
:10DE4000BFF35F8F3049009B0A60002B7FF4BBAEAD
:10DE500016E406EB4606354B0121354A03EBC603B3
:10DE60004FF48044274E4AF802104AF806104AF848
:10DE700002401B7FD9077FF503AC024600212846EC
:10DE80002C4B9847FFF7FCBB06EB4606274B284870
:10DE90004FF4805403EBC60327494AF80040A0F52D
:10DEA00090704F614FF400261C7F01F5F8714FF41C
:10DEB000802562F382041C775AF8003023F4007343
:10DEC0004AF800304AF801604AF80150FFF7D8BB21
:10DED00003200870EFF31081B1FA81F1490906912E
:10DEE00072B6BFF35F8F08490820069C13600B6071
:10DEF00010600860002C3FF4C3AB64E6C81D4020EE
:10DF0000000010A060810340F081034008810340BD
:10DF100004810340188103401481034010810340B1
:10DF20000C810340208103401C8103408404402075
:10DF300020820340DDC7400000800340A388EA88B8
:10DF40003B449A427FF7A6AEAB89BB427BD0554B90
:10DF50000221102219601A60EFF31083B3FA83F3E1
:10DF60005B09039372B6BFF35F8F4F49039B0A604F
:10DF7000002B7FF428AEFFF783BB05254A494FF4F9
:10DF80000020484B0222257008601A60FFF778BB1A
:10DF900000230221454AA380638021709047FFF748
:10DFA0006FBB1821424B012201FB06411A604D69EB
:10DFB0000A69CB68521B2B44BA4228BF3A46154423
:10DFC00010468A614D61002A58D09D18394A13F8CD
:10DFD000011BAB4202F8011FF9D1374B4FF48042CD
:10DFE00087421A607FF64CAB182303FB06431A7F67
:10DFF0006FF341021A77FFF743BB121A9A422FD9E7
:10E000004A6900258B6102EB030E1A46C1F814E041
:10E01000AE46411E294BDFF8A8C0394403EB0C0083
:10E0200013F8017B824201F8017FF7D8224B4FF4AD
:10E0300080421A60BEF1000F7FF4CDAB002D3FF49B
:10E040001FABFFF7C8BB6B69002B96D09847002821
:10E0500093D0A3880021628861801344A38076E76F
:10E060000025182101FB06414B698A6113444B616D
:10E07000002A3FF4ACAB4FF0010ECAE70E4B4FF451
:10E0800080421A60B0E7121A934201D30125E8E7F3
:10E090004D691A468B614FF0000E2B4401254B61F0
:10E0A000B7E700BF60810340F081034011C8400022
:10E0B00080810340FFFF13A040820340000014A0B2
:10E0C0000100EC5F054A136823F4406343F40063E6
:10E0D0001360136843F400531360704700800340DB
:10E0E000054A136823F4406343F400631360136824
:10E0F00043F480431360704700800340034A136871
:10E1000023F4406343F400631360704700800340CE
:10E11000F0B4234C8EB004F130076E462068103402
:10E1200054F80C1C354654F8082C103654F8043CAE
:10E13000BC420FC5F2D11B4941F2301520686B4635
:10E1400022790DF1350430603271CF69164827F01D
:10E150000107164E164ACF6107683E4035430560F9
:10E16000056845F002050560C86940F00100C86116
:10E17000086820F4406040F400600860086840F4DB
:10E180000040086013F8011B0132A34202F8011C91
:10E19000F8D1084B4FF480421A600EB0F0BC7047C3
:10E1A00010784100008003400081034083E6FFFFB8
:10E1B000000010A020820340704700BF41F2883069
:10E1C000704700BF10B5074C237813B9064B98472A
:10E1D000606006496068064B9847064B984700B256
:10E1E00010BD00BF54054020F1E8400000007A4413
:10E1F00025754100C5774100F8B5124C0827102657
:10E200000120114D6761A84766610520A847E36BAF
:10E21000D90601D40C20F8BDE36B1A07FAD5052006
:10E220002761A84726610520A847E36BDB0601D5D7
:10E230000D20F8BDE36B13F0080F14BF0D20002074
:10E24000F8BD00BF000E0E40DD704100F8B50E4C69
:10E25000082710260D4D01206761A847052066613B
:10E26000A84705202761A84726610520A847E36B3A
:10E27000DB0601D50E20F8BDE36B13F0080F14BFC9
:10E280000E200020F8BD00BF000E0E40DD704100E2
:10E29000F8B50E4C102708260D4D01202761A84720
:10E2A00001202661A84705206761A847666105200F
:10E2B000A847E36BDB0601D40F20F8BDE36B13F036
:10E2C000080F0CBF0F200020F8BD00BF000E0E404D
:10E2D000DD7041002DE9F843082604461C4DB14687
:10E2E0001C4F0EE0C7F810906400A8470520C7F83F
:10E2F0001480A847C7F810800420E4B2A847013E64
:10E3000010D023064FF001004FF01008EAD54FF06F
:10E3100010080120C7F814906400A8470520C7F82A
:10E320001480E6E70B4C0823102601206361A84700
:10E3300066610520A847E36B2661052013F0080FEE
:10E340000CBF00240424A8472046BDE8F88300BF82
:10E35000DD704100000E0E402DE9F04F4FF0080B2C
:10E3600081B081464FF0000A154DD8465F46154CE6
:10E37000102601206761A84705206661A847E36B66
:10E3800004202661C3F3C00343EA4A035FFA83FA19
:10E39000A847BBF1010BEBD189F800A00120266151
:10E3A000A847C4F810800120A84766610520A84747
:10E3B00005202B46266101B0BDE8F04F184700BF8D
:10E3C000DD704100000E0E402DE9F04F4FF0080BBC
:10E3D00081B081464FF0000A154DD8465F46154C76
:10E3E000102601206761A84705206661A847E36BF6
:10E3F00004202661C3F3C00343EA4A035FFA83FAA9
:10E40000A847BBF1010BEBD189F800A001202661E0
:10E41000A847C4F814800120A84766610520A847D2
:10E4200005202B46266101B0BDE8F04F184700BF1C
:10E43000DD704100000E0E4003043BD4531E1B044C
:10E440002DE9F041144602D50320BDE8F0811D4BB3
:10E4500005460F46984700282ED1DFF880801A4ED7
:10E4600098F8000000F0FE00B04728BB280AB0472B
:10E4700010BBE8B2B047F8B9144B9847E0B998F828
:10E48000000040F00100B047B0B964B1104E03E0A5
:10E49000013C2F46B047A4B2012C384607F10105D4
:10E4A000F6D10C4B98470C4B9847003018BF012011
:10E4B000BDE8F08102207047074B98470120BDE876
:10E4C000F08100BFF9E14000D5E240004DE240009C
:10E4D00059E34000C9E3400091E2400012004020AF
:10E4E0002DE9F04F93B00C461546019000938AB188
:10E4F0000F462B4E02E0DBB2AB420BD217F8010BFA
:10E50000B0473B1B0028F6D0264B9847012013B09C
:10E51000BDE8F08F234FB84718B1012013B0BDE814
:10E52000F08FDFF88C8002A8DFF88890DFF888B0E1
:10E53000DFF86CA01C4B9847142102A8C04750B9C3
:10E54000C84770B99BF8000000F0FE00D04740B902
:10E55000B8470028F0D1009B2BB9002013B0BDE8CC
:10E56000F08FB847E8E702A901982A460F4B984771
:10E5700008B10220CBE7002DEFD09DF808202378CA
:10E580009A42F6D10346013312AADBB29D421A44E5
:10E59000E3D912F8402CE15C9142F4D0E9E700BFE6
:10E5A000D5E2400091E240006572410039E440004C
:10E5B000757241004DE240001200402010F4004FFF
:10E5C00011D12DE9F84F1F46531E14461A0407D4E3
:10E5D00003190546B3F5004F07DD0520BDE8F88FA8
:10E5E0000420BDE8F88F03207047C4B13F2C0E46CD
:10E5F0000FD9DFF8B490DFF8B4A0DFF8B880AB062D
:10E6000010D0403C40354036A4B2ADB23CB13F2CB6
:10E61000F5D805F03F03C3F14003A3421FDA002001
:10E62000BDE8F88FC847A8B99AF8000000F0FE00CE
:10E63000C04778B9280AC04760B9E8B2DFF870B0BF
:10E64000C04731463B46402220B92846D8470128DA
:10E65000D7D1C3E7134B98470120BDE8F88F124B81
:10E6600098470028F6D1114BDFF84880187800F061
:10E67000FE00C0470028EDD1280AC0470028E9D194
:10E68000E8B2C0470028E5D122463B46314628463D
:10E69000074CA047A0F10100B0FA80F04009BDE8A6
:10E6A000F88F00BF91E24000F9E1400012004020E5
:10E6B000E1E44000D5E2400000207047084B042010
:10E6C00008491A78012A5A704FF0000203D1C1F8A4
:10E6D00034069A707047C1F830069A70704700BFD0
:10E6E00074054020000E0E4038B50C4CFF2262200D
:10E6F0000B4D2378617843EA0121A847237861789C
:10E70000FF221D2043EA0121A847064B04214FF0B8
:10E710000052C3F834161A6338BD00BF040040200D
:10E7200081C54000000E0E4070B50C2808D8DFE807
:10E7300000F0353A070714233F442B3049233F00AC
:10E740002B4C2C4DE37893B92B78012B3FD0022230
:10E750004FF4FA7362706B8070BD254C0122264B1A
:10E76000201DE2709847E378224D002BECD0022266
:10E77000642362706B8070BD1D4C00221D4DE378D8
:10E780002A70002BE3D0F2E7194C0023194DA37235
:10E79000D8E7174C0123174DE372D3E7144C01233C
:10E7A000144D2370CEE7124C0023124D2370C9E79D
:10E7B000104D2B78ABB10E4CC4E70D4C01230D4D21
:10E7C000A372BFE70A4C00230A4DE372BAE7E37A6B
:10E7D000002BBCD1A37A002BB9D1084BBDE8704007
:10E7E000184702220648044B2A709847E3E700BF07
:10E7F000740540201400402065724100BDE64000D1
:10E800007C054020F8B5324D324C2E78022E29D0AE
:10E81000E3781BB96378022B38D0F8BD2E4F41F254
:10E820007E312E48B8470028F4D02B780022012BE7
:10E83000E2703FD002224FF4FA7362706B80A678C8
:10E8400036B369882648B8470028E6D0254B2448C7
:10E850009847A37B3BBB0121234B0422A173C3F840
:10E860003026DAE7C8211C4F04F10800B847002819
:10E87000CED00122E3782A702BBBE37A002BD9D1CA
:10E88000A37A002BD6D1194B9847C1E7124FD6E790
:10E89000144B134898470121134B0422A673A1700F
:10E8A000C3F83426CDE700210F4B0422A173C3F82F
:10E8B0003426F8BDE37A002BBCD1A37A002BB9D162
:10E8C0000A4B9847A6E7642366706B80A7E700BFF2
:10E8D00014004020740540207572410078054020E6
:10E8E0008005402065724100000E0E40BDE64000EC
:10E8F000004870473333534000207047704700BFD3
:10E90000704700BF014B1878704700BFFABF400046
:10E91000014B1878704700BFF9BF4000014B1878D1
:10E92000704700BFF8BF400010B5044B9847044B38
:10E9300000209847034BBDE81040184755EB4000B6
:10E94000FDEB400011EC4000004B18471DEC40006F
:10E95000104B3E21104A002010B51A600F4B104C8E
:10E960009847A0470028FCD00E4B98470E4C0F4B01
:10E970000F4A9A62A0470028FCD002200D4B98470E
:10E980000D4B002098470D4B9847024B024A1A60E6
:10E9900010BD00BF000C0E4000060004D1EA40008C
:10E9A00025EB400035EB400045EB400000060E40F3
:10E9B000013F18204DEA40007DEA400071ED400023
:10E9C0002DE9F041174F82B0026B0024C71BC36AC8
:10E9D000DFF854800126B7FA87F713407F090193C7
:10E9E000BF0108EB070509E0019A134202D02B682A
:10E9F00003B1984701340435102C10D00B2C06FAC3
:10EA000004F3F1D904F10C030F2C06FA03F3EBD154
:10EA1000019B5B0003D54744FB6B03B1984702B0F1
:10EA2000BDE8F08100400640E01D40200148024B57
:10EA3000184700BF00C00340C1E940000148024B35
:10EA4000184700BF00400640C1E9400002380228D4
:10EA50000DD8084B53F8200007490B6B0A4623F4E6
:10EA6000407303430B63936E1B07FCD57047002074
:10EA7000F2E700BF4878410000060E4013490B6BD7
:10EA800023F07003184308638B6E180707D44FF404
:10EA9000805301E0013B16D08A6E1207FAD50B496C
:10EAA0000B6B23F0030343F002030B638B6E180719
:10EAB00007D44FF4805301E0013B04D08A6E120763
:10EAC000FAD5002070470120704700BF00060E40B5
:10EAD000A0B90E4B09020E4889B21A4630B41D6A1D
:10EAE0000C4C2C40204301431962936EDB07FCD58C
:10EAF000116A094B0B4330BC136270470349074A44
:10EB0000086A074B024013430B62704700060E4031
:10EB100001003700FCFFC8FF00003701FCFFC8FE02
:10EB200002003701024B986E00F48030704700BF3E
:10EB300000060E40024B4FF000529A62704700BF31
:10EB400000060E40024B986E00F00200704700BFB6
:10EB500000060E40044B4FF444111A46D961936EDF
:10EB60005B06FCD5704700BF00060E403F281AD850
:10EB70001F280AD801230E4A03FA00F0916930EAEF
:10EB8000010312D010610020704701232038084A89
:10EB900003FA00F0D2F8083130EA030305D0C2F8D6
:10EBA000000100207047012070470020704700BF1F
:10EBB00000060E403F2819D81F2809D801230E4A05
:10EBC00003FA00F0916930EA010311D00020704788
:10EBD00001232038084A03FA00F0D2F8083130EA5D
:10EBE0000303F3D1C2F804010020704701207047ED
:10EBF00050610020704700BF00060E400002034B2A
:10EC000000F4706040F001009863704700060E4009
:10EC1000014B20221A60704700060E40014B202253
:10EC20005A60704700060E40034BC0F312001A6F83
:10EC300010431867704700BF00060E40F0B503464A
:10EC4000244C00204FF0880EC3F8E44024274FF4F2
:10EC500080764FF40025204C5860206058629862FE
:10EC6000C3F800E01F601E601D6061B30868050105
:10EC7000AA421CD368084FF6FE7700EBC202B2FB33
:10EC8000F5F2D608701EB8421DD88F6812044D6880
:10EC9000002002F4E0223D430F693243C9683D433E
:10ECA0001A620D435968294325605960F0BDC000C0
:10ECB0004FF6FE75D20002EB5002B2FBF0F2D6081E
:10ECC000701EA84201D90120F0BD586840F4002010
:10ECD0005860DAE700415355840540204023036023
:10ECE000704700BF10230360704700BF4069C0F346
:10ECF00040207047FEE700BF12491348814210B51B
:10ED000009D0124B984206D2C243114C1A4422F049
:10ED100003020432A0470F480F4B984207D2C24368
:10ED200000210E4C1A4422F003020432A0470C4B7F
:10ED30000C4923F07F030C4A8B6090470B4B98479C
:10ED4000FEE700BF78794100000040203C044020ED
:10ED5000ED7441003C0440204827402003754100E9
:10ED600000C0400000ED00E0A57441009D7241002C
:10ED7000014B024A1A60704718004020001BB70080
:10ED800070B5094D4223094C4FF496722946084844
:10ED9000A04705F59671A44642234FF41672054824
:10EDA000BDE87040604700BF9805402009704100F1
:10EDB000601E4020701E40200148024B184700BFD3
:10EDC000601E4020597041000146014B0148184720
:10EDD00075714100601E402010B50146034B044888
:10EDE0009847044BBDE81040184700BF39714100F7
:10EDF000601E402021F840000146014B01481847A1
:10EE000075714100701E40200146014B01481847B2
:10EE100039714100701E402038B54FF41652054C30
:10EE20000025054B22606571A571257198472572F3
:10EE300038BD00BF1C09402029F04000014B187A62
:10EE4000704700BF1C094020024A0121024B117289
:10EE5000184700BF1C09402015F84000024A002155
:10EE6000024B1172184700BF1C09402021F84000D6
:10EE7000034B1B7A0BB100207047024B184700BFB1
:10EE80001C094020C1F0400010B5044B984708B160
:10EE9000002010BD024BBDE81040184739F040007B
:10EEA000B5C74000014B1868704700BF1C094020DF
:10EEB00010B5064C637A5A1C0A2B627204D9044BB3
:10EEC000002098470023637210BD00BF1C0940203A
:10EED000ADC74000014B987A704700BF1C09402025
:10EEE000704700BF0B4B9A7A824211D010B59872CE
:10EEF00030B9094B98470120084BBDE8104018472E
:10EF000018460121064B9847064BBDE810401847AC
:10EF1000704700BF1C094020A5C74000B9F240005F
:10EF2000A5F140009DC7400070B503790546184A19
:10EF3000012B567923D0022B0CBF022100216B79C3
:10EF4000013BDBB2032B18D81248C05C2B68124C73
:10EF5000B3F5967F38BF4FF496739C4228BF1C468A
:10EF6000B1420ED0937A5171907114601BB101219E
:10EF700007480A4B98472C6070BD0020E6E7194609
:10EF8000DDE793798342EDD11368A342EAD1F2E73A
:10EF90001C0940205478410040420F00D5F0400049
:10EFA0002DE9F04F184C81B0DFF87080C047174F43
:10EFB0002068A346B8470023DFF86490144EDFF8BA
:10EFC00064A02360C8470CE05846D04723681868FF
:10EFD000104B9847054660B9C0472068B847256080
:10EFE000C847B0470028EFD00023237101B0BDE827
:10EFF000F08F206801222946074B006822710230F9
:10F0000001B0BDE8F04F184728094020D9ED400075
:10F0100089F440007D704100B1C44000D5C140007A
:10F0200001C2400079F440000148024B184700BF7C
:10F03000A1EF40005DC44000014B1879704700BF4C
:10F04000280940202DE9F047154C23790BB1BDE884
:10F05000F087144EA146DFF86480134F0EE0484657
:10F06000C04723681868B847104B054668B99847E9
:10F070000F4B206898470F4B25609847B0470028F2
:10F08000EDD000232371BDE8F087206801222946D6
:10F09000094B006822710230BDE8F047184700BFF5
:10F0A0002809402089F440007D704100D5C140000E
:10F0B000D9ED400001C24000B1C4400079F44000E5
:10F0C00008B5034B984702288CBF0020012008BDDB
:10F0D00099F44000274B1A788A4208D05B788B421B
:10F0E00000D07047244B03C883E803007047F0B595
:10F0F000224F83B0026804463B689A4226D0204BD8
:10F1000001A8204D204E984702E001A8B04760B901
:10F11000A8474FF496710028F7D002201B4DA8474E
:10F120001B4B9847B0F5165F1DD31A4B98471A4BE7
:10F1300098471A4B0121002098472046184B9847C2
:10F1400094E8030087E8030003B0F0BD02793B793F
:10F150009A42D4D18279BB799A42D0D142797B79D3
:10F160009A42CCD1ECE742F21073B3FBF0F0A8471F
:10F17000DBE700BF2D094020881E4020801E402074
:10F180006572410089EE400075724100E5704100F2
:10F19000A5EE400091C74000096F4100116F41008A
:10F1A000BDC64000F0B5354C83B005460E46237809
:10F1B000012B27D00BD3022B07D1314B9847314B72
:10F1C000667095E8030083E8030003B0F0BD2E4BA2
:10F1D000217098472D4E01210020B04728462C4B26
:10F1E00098472C4A274B95E8030082E8030095E8EE
:10F1F000030083E8030001210020B047002363706F
:10F2000003B0F0BD02290CD00329DED121491D4AEB
:10F21000214D637003C982E80300A8471F4B98473C
:10F22000D3E7174B984701A81D4B1E4E1E4F98471A
:10F2300002E001A8B84760B9B0474FF496710028C2
:10F24000F7D00220194EB047194B9847B0F5165F1A
:10F250000DD301200F4902230A4A60702370154C18
:10F2600003C982E8030028461946A047ADE742F2E9
:10F270001073B3FBF0F0B047EBE700BF2D0940205F
:10F2800049EE4000881E4020096F4100116F410087
:10F29000BDC64000801E402091C74000156F410050
:10F2A0006572410089EE400075724100E5704100D1
:10F2B000A5EE4000D5F040000228F0B583B021D083
:10F2C00003280DD0012801D003B0F0BD3F4E3378A4
:10F2D000012B4ED0022BF7D17378012BF4D138E0FB
:10F2E0003B4B98473B4B984701213B4B00209847AD
:10F2F0003A483B4B9847354B00215A7859701A7061
:10F3000003B0F0BD01AC374B374D2046374E984720
:10F3100002E02046B04760B9A8474FF49671002834
:10F32000F7D00220324CA047324B9847B0F5165F19
:10F3300019D3264E7178012931700ED02E4B984783
:10F340002E4B98470021244C0846A0470021084630
:10F35000A0470023737003B0F0BD2048284B9847A6
:10F36000284B9847F5E742F21073B3FBF0F0A04743
:10F37000DFE701AC1B4B1C4D20461C4F984702E0B9
:10F380002046B84760B9A8474FF496710028F7D0D7
:10F390000220174CA047174B9847B0F5165F0ED3C5
:10F3A0000024154B0C4D747034709847134B9847DC
:10F3B00021462046A84721462046A84784E742F236
:10F3C0001073B3FBF0F0A047EAE700BF2D0940201F
:10F3D000196F4100096F4100116F4100881E4020E4
:10F3E000BDC640006572410089EE40007572410063
:10F3F000E5704100A5EE400091C740000D6F41004F
:10F40000D5F040005DEE40000148024B184700BFB8
:10F41000901E4020297141000146014B01481847C8
:10F4200039714100901E40200146014B01481847A8
:10F4300075714100901E40200148024B184700BFE3
:10F44000901E4020B57141000148024B184700BF93
:10F450009C1E40202971410010B50146034B044811
:10F460009847044BBDE81040184700BF3971410070
:10F470009C1E402045F040000146014B01481847C2
:10F48000757141009C1E40200148024B184700BF87
:10F490009C1E4020B57141000148024B184700BF37
:10F4A0009C1E40203571410030B4094B00220121DF
:10F4B000A125202002241A70587108461D715C8114
:10F4C0005A80DA809A811981197030BC704700BF68
:10F4D00030094020014B00221A707047300940204B
:10F4E000014B00229A73704730094020002070477A
:10F4F000002070470148024B184700BF40094020D8
:10F5000029EF4000004B1847B1EE400010B5194CF0
:10F51000237813F0800F03F0600314D1202B01D067
:10F52000002010BD6378202B1AD0222BF8D1A078B0
:10F53000114B00F0010098476088104BC0F3400069
:10F540009847012010BD202BEAD16378212BE7D109
:10F55000E388072BE4D10A4A0120A381A26010BDF1
:10F56000E388072BDCD107490120054AA3812161EB
:10F57000A26010BDC81D4020E5EE4000E1EE400055
:10F5800040094020F5F4400070B50F4C002182B0D6
:10F590006388A58923F07C03E17525F07C051B04B5
:10F5A000ADB21B0CA581638063889BB29D4209D0DC
:10F5B000064B10466688221D00930A23044DA6813F
:10F5C000A847E07502B070BD3009402089F54000C1
:10F5D0002DD4400070B5294C012584B0284BA5736B
:10F5E0009847284B9847284B9847284B9847A3693A
:10F5F00033B3274D274B9847C0B9274B2748984727
:10F60000E269274B10689847E2690346254E126865
:10F6100084203F2B009602F102028CBF00210121C1
:10F62000A84701231846A37304B070BD00261D4AE5
:10F6300001218420009233463246E661A847F0E774
:10F64000194B984704F11800184B984780B1A269EC
:10F650002946174D402312680620009502320C4DB2
:10F66000A847144B0390984703980028DCD0C1E7C3
:10F67000104B039098470398D6E700BF300940200D
:10F6800019EE400081ED400049F4400009F44000CB
:10F690002DD4400039F4400029F440004C094020AA
:10F6A0007D70410095F74000D5C14000C9ED400094
:10F6B000B9F6400001C24000012870B582B035D0D3
:10F6C0000C4611B1284B9847C0B9284C284BA0696B
:10F6D00098470022274BA261984704F11800264B57
:10F6E0009847E8B1A2694023244C01211268062002
:10F6F00000940232224CA047224B13E01B4DA0B2D3
:10F70000214BAC691B4E21689847204B20469847F7
:10F71000B04700221E4BAA61984708B1AB696BB194
:10F72000184C234602B0BDE8704018470F4C104BF0
:10F73000A06998470023A36102B070BDB04705F1EE
:10F7400018000D4B984760B1AA6940230B4C01216A
:10F7500012680620009402320A4C094DA847A047BF
:10F76000DFE7084CA047DCE7D5EE40003009402039
:10F77000D9ED4000D5C14000C9ED4000B9F64000C8
:10F780002DD4400001C240007570410059F4400082
:10F7900071EE400000282CD170B5164C82B0E069A3
:10F7A00008B1154B9847154B9847B0B9144B1548FD
:10F7B0009847E269144B10689847E2690346134C76
:10F7C000126884203F2B009402F10202104C8CBF7F
:10F7D00000210121A04702B070BD00250B4E012180
:10F7E000842000962B462A46094EE561B04702B0B8
:10F7F00070BD70473009402009EE400039F44000E8
:10F8000029F440004C0940207D70410095F74000EC
:10F810002DD440000620014B184700BF85D540007D
:10F8200010B50F4B82B0984710B90E4CA3690BB1BD
:10F8300002B010BD0C4B984704F118000B4B9847D1
:10F8400048B1A26940230A4C0121126806200094A5
:10F850000232084CA047084B02B0BDE810401847E0
:10F860003DEE400030094020D5C14000C9ED4000C8
:10F87000B9F640002DD4400001C2400070B584B0FC
:10F88000EFF31083B3FA83F35B09039372B6BFF30C
:10F890005F8F0F4C039A63889BB243F040036380F1
:10F8A00012B1BFF35F8F62B6E17D71B96388A2893F
:10F8B0009BB29A4209D0074A0A23668885200092A3
:10F8C000054D064AA681A847E07504B070BD00BF8B
:10F8D0003009402089F540002DD4400034094020F3
:10F8E0002DE9F04F03788FB004468A460B700378F9
:10F8F000852B00F26F82DFE813F0A90138029E0128
:10F90000D401C8012C0120016D02650249025A028E
:10F910006D026D026D026D026D0238012102E0017F
:10F920001201F300EA00E600E000DA00D400CE00A5
:10F93000C800C2006D02BC006D026D026D026D0256
:10F940006D026D026D026D026D026D026D026D023F
:10F950006D026D026D026D026D026D026D026D022F
:10F960006D026D026D026D026D026D026D026D021F
:10F970006D026D026D026D026D026D026D026D020F
:10F980006D026D026D026D026D026D026D026D02FF
:10F990006D026D026D026D026D026D026D026D02EF
:10F9A0006D026D026D026D026D026D026D026D02DF
:10F9B0006D026D026D026D026D026D026D026D02CF
:10F9C0006D026D026D026D026D026D026D026D02BF
:10F9D0006D026D026D026D026D026D026D026D02AF
:10F9E0006D026D026D026D026D026D026D026D029F
:10F9F0006D026D026D026D026D02B800B400B000C0
:10FA00009E00AA008600B64D2B78002B00F047849C
:10FA1000002385228AF801308AF80020A378E6784E
:10FA2000657846EA0326002D40F0FC811EB9AD4BF7
:10FA300080221A611A63832220465146AA4B8AF813
:10FA400000209847051D28460FB0BDE8F08F84229E
:10FA5000A64B05250A709847F5E7A54B052598475D
:10FA6000F1E7A44B9847051DEDE7A34B0525984703
:10FA7000E9E701310130A14B9847451CE3E701312B
:10FA800001309F4B9847451CDDE7013101309D4B0C
:10FA90009847451CD7E7013101309B4B9847451CDF
:10FAA000D1E701310130994B9847451CCBE7013133
:10FAB0000130974B9847451CC5E701310130954B04
:10FAC0009847451CBFE7FF23934D4B70BBE7457834
:10FAD000FF2301354B702D0445F001050135B2E7D8
:10FAE000FF23811C8AF801304378581E002B00F058
:10FAF0001D8601240A78013802F03F02D31D002A36
:10FB00004FEAD30303F1010308BF092319441C443E
:10FB1000431CEFD1250445F00105013593E74378F7
:10FB200000207E4903F00302C3F380037A4D0132C3
:10FB30004B770A778AF8010085E7DFF8E0B19BF898
:10FB40000460012E00F0D48300230B704B708B7087
:10FB500079E7DFF8C8B19BF80430012B089300F077
:10FB6000D28100230B704B706DE75D4D2B78002B1D
:10FB700000F02484A67894F801B016F00103D4F8BC
:10FB8000035008D01BF0010F564A4FF4800100F0DB
:10FB90007684C2F8301616F0020708D01BF0020F68
:10FBA000504A4FF0080100F08184C2F830124FFA39
:10FBB00086F8B8F1000FC0F259840193002D00F0CF
:10FBC0001D8157490DAC06F00403564A8D4220466C
:10FBD00002934FEA5B0928BF0D469047019B06F050
:10FBE00020064FEA9B024FEA5B114FEADB10ADB2F1
:10FBF000002B40F04884002840F0D486002940F0D3
:10FC00003985DFF8E0B0484E002A40F0ED8007E08B
:10FC1000B8F1000F80F2F280B047002840F0EE808B
:10FC200029462046002FF3D0DBF83C32C3F3C00353
:10FC30009945F1D1ECE743784B704378002B40F0C5
:10FC40000581364B012202251A71FCE64378072B09
:10FC500000F0048700F20381032B00F0F88640F2E5
:10FC6000BB84052B00F0DB8600F2B6862F4A8C1C85
:10FC70000D250B2303CA17889678CAF80200616025
:10FC80002781A6728AF80130DDE641780022234BF5
:10FC90000225197441885982818899828AF8012045
:10FCA000D1E600241D4A224B0225204614719847B4
:10FCB0000B4B8AF801401C70C5E6094D2B78002BD0
:10FCC00000F0A5836078A11C002840F00281194D46
:10FCD0004FF48070184B984700238AF80130B2E641
:10FCE00058094020000E0E40096B41009D6B4100F9
:10FCF0003523410075224100ED214100F90E4100FC
:10FD0000CD0E4100E10E4100790E4100350E41005B
:10FD1000590E4100F90D410002000100A81E4020CB
:10FD2000C0C62D006572410075724100987841008F
:10FD3000F56D410002002100DD0F4100D0F80120E7
:10FD4000002A6CD0B04B9A4200F2DA80AF4B002010
:10FD50001344B3FBF2F30B331B09AD4A0021022518
:10FD6000936050718AF801106DE600234B70437860
:10FD7000002B00F0B680012B51D183780225DA07E1
:10FD8000A44B4CBF0B200C2098475CE6B0F8013028
:10FD900003EBC30203EB4203013B02D00046013BED
:10FDA000FCD100234FF002158AF801304BE69A4D42
:10FDB0002B78002B66D0002303258AF802308AF8BE
:10FDC000013040E6924F3E79012E00F05582FF232C
:10FDD0000B7038E6052536E6DBF83C32C3F3C0038A
:10FDE000994505D0B04748B929462046002FF3D1A0
:10FDF000029B002BF6D1B8F1000FF3DB874A884D48
:10FE0000D2F83C36D2F83C22C3F38053C2F3C0028E
:10FE100043F0800343EA42038AF8013013E6FF23EC
:10FE200002252FE72279100602F0010300F1B083CA
:10FE3000002B40F0458398467A4F08F10108304680
:10FE4000B8475FFA88F39D42F7D8F4E5012B3FF4F9
:10FE5000F8AE022B50D16E4A1D461371F3E5F02B1C
:10FE600000F0398640F24B83FE2B00F0458600F20D
:10FE70003886FD2B40F02083802206250423C1F81C
:10FE80000220FFE6624B1B79012B01D0022B1DD013
:10FE9000654B07209847654BFF2276201978082686
:10FEA0005B78634F41EA03215C4CB8474FF4800113
:10FEB000604BFF22C4F83016232019785B78C4F811
:10FEC000306241EA0321B847C4F8106201232B7065
:10FED00071E7C51DED0801352D0445F0010501351B
:10FEE000F8E68378D90700F18C830C20494CA047B1
:10FEF0000A20A0470225A6E5002302254B70A2E5B3
:10FF00000123184629E700234B4D421C424E2B701B
:10FF10004B1C0A92CA1C0B9333780792002B00F0FB
:10FF2000B184A378E71C0293002B00F0D68600234F
:10FF3000424ECDF80CA019460993059306933C78E0
:10FF40007B1C14F002090493069B00F0C6807BB36F
:10FF500004F01103BBF812804FF00009012B09D106
:10FF6000A8E0C84509F1010900F07E812B78002B3B
:10FF700040F07A810DA90E20B0470228F1D000236D
:10FF800001460693012940F0AF860D9B00224FEAFF
:10FF9000132E63F30702180C6EF30F221B0E60F38F
:10FFA0001742079863F31F62034604330260079306
:10FFB00014F0100300F0EC80D7F80130BBF8149077
:10FFC00001937B1DE707049316D5BBF812704FF021
:10FFD000000808E0474508F1010800F033812B785C
:10FFE000002B40F0358100212046B0470228F1D097
:10FFF0000128014640F02D814FF00008BBF8127037
:020000040041B9
:100000004FF0000A23E000BF5AF946017FD1F00803
:10001000A81E402029E7400058094020000E0E404D
:1000200002000600DD704100F56D4100080040202F
:1000300081C5400058044020C81E4020111D4100C9
:1000400057450AF1010A3CD02B78002B39D10DA974
:100050002046B04702280146F2D0012831D10D9A3E
:10006000DBF818301340019A9A4200F0F881C1453C
:1000700004D02B7808F10108002BBFD0DDF80CA0CC
:1000800040F01001029B049AC9B205E0C40606D4F0
:100090000132013B00F00E8210788607F6D405325B
:1000A000F7E7C84509F1010900F0CC802B78002B57
:1000B00040F0CE800DA92046B0470228F1D001467D
:1000C00060E7DBF818200D9BDDF80CA01340019AC7
:1000D0009342D5D1029B049ADEE733B3BBF812807A
:1000E00008E0C84509F1010900F0AC802B78002B2D
:1000F00040F0AE800DA90E20B0470228F1D00128B3
:10010000014640F0F1850D9B0022180A63F30702B7
:10011000190C60F30F221B0E61F31742079963F36A
:100120001F620B4604330A600793D7F8013014F0BE
:10013000200907F105070D936FD0CBF81830012186
:1001400000230693059A2B7801320592002B40F08C
:100150007D83029B013B02937FF4F1AEDDF80CA09E
:100160000497012900F05682CBB20893049B0A9AA7
:100170000B999B1A079A551A9DF8142045EA0345D6
:100180009DF820308AF801208AF8023001355AE4BF
:1001900014F00107BBF8128021D0069A002A40F023
:1001A0006281174606E0B84507F101074AD02B786F
:1001B000002B4DD100212046B0470228F3D0012862
:1001C000014640F091850023049F06900993B9E70A
:1001D000B84507F1010735D02B78002B38D10DA990
:1001E0002046B0470228F3D00128014640F07C8524
:1001F0000D9B0022049F180A099263F3070260F323
:100200000F22180C1B0E60F31742079863F31F624E
:10021000034604330260079394E7BBF8128005E0BD
:10022000C84509F1010917D02B78ABB90DA92046B3
:10023000B0470228F4D0012801460ED100230990CE
:1002400006937FE70146029B049ADDF80CA023E7A2
:100250000146DDF80CA03DE701460023DDF80CA0C7
:100260003A460693029B17E700230146DDF80CA0EF
:100270000693049A029B0FE7B64D2B78002B00F0F3
:10028000BB82D4F802200EA9B34B002041F8042D04
:10029000984700238AF801300225FFF7D4BBAF4B03
:1002A0001B79012B01D0022B1ED0AD4B07209847A4
:1002B000AC4BFF227620197808275B78DFF8CC82D8
:1002C00041EA0321A84EC0474FF48001A74BFF220B
:1002D000C6F83016232019785B78C6F8307241EAE8
:1002E0000321C047C6F8107201232B70FFF790BBA3
:1002F00000239F4D974F4A1C2B700B1D05920293B4
:100300003B78002B00F0158263880193002B00F0EE
:100310007E8194F8048018F0020940F02D82631D5C
:100320004A46CDF810A00DAC8B4F99469246CDF8B9
:100330000CB059F8042B4FF0000B039B0D925E8A12
:1003400005E05E450BF1010B31D02B787BBB2146DC
:100350004046B8470228F4D0012828D10AF1010A02
:10036000019B5345E5D1DDF80CB0D0460026DDF801
:1003700010A0BBF8124005E0A64206F1010606D027
:100380002B7823B900210E20B8470228F4D05FFA59
:1003900088F3C8F30729029A05998AF80130551A9B
:1003A0008AF802908AF803000135FFF74CBB5246E9
:1003B000DDF810A0D3B2C2F30729ECE7674B1B7935
:1003C000012B01D0022B1ED0654B07209847654BAF
:1003D000FF227620197808275B78DFF8B08141EAA0
:1003E0000321614EC0474FF48001604BFF22C6F8E5
:1003F0003016232019785B78C6F8307241EA032161
:10040000C047C6F8107201232B70FFF7B3BB534BE4
:100410001B79012B01D0022B1ED0514B072098478E
:10042000504BFF227620197808275B78DFF85C8133
:1004300041EA03214C4EC0474FF480014B4BFF2251
:10044000C6F83016232019785B78C6F8307241EA76
:100450000321C047C6F8107201232B7032E4002339
:10046000049F09936EE6049F09936BE63E4A802140
:100470001161BBF1000F69D01163FFF79EBBC2F899
:100480003416FFF788BB002840F02182002940F095
:100490002481002A00F03583364E334F294620460A
:1004A000D7F83C36B0470028F8D0A7E4C2F8341299
:1004B000FFF77DBB049254E602250023FFF7E2BB61
:1004C000013D04F1040B2C4F4FF48009EDB2DFF82D
:1004D0009880053525441BF8013F3046D90707D5DC
:1004E000C8F830963046B8475D45F4D1FFF7A3BA57
:1004F000C8F83496B8475D45EDD1FFF79CBA082B94
:1005000000F01C82092BD7D11C4B2E2698470222C3
:1005100001461B4C0AEB02000023A047194B8AF846
:1005200004600C2598470222014600230AF10500C9
:10053000A047154B8AF8076098470023014604221C
:100540000AF10800A0470A23FFF79CBB5163FFF79D
:1005500034BB00BF58094020111D4100A81E402097
:10056000F56D410008004020000E0E405804402068
:10057000C81E402075724100DD7041008174410049
:10058000ED7041008D7441009974410081C54000B7
:10059000013D04F10408B04F002B40F07882EDB229
:1005A0004FF0800BDFF8C0920535254405E0C9F80F
:1005B00034B0B84745453FF43AAA18F9013F3046F0
:1005C000C9F810B0002BF2DA3046C9F830B0B8479D
:1005D0004545F2D1FFF72BBA012B00F03F82022BE9
:1005E0007FF46AAF9D4C8E1C11250F2307CC278802
:1005F000A478CAF802007160B260B781B473FFF7E3
:1006000041BB0920964B98470225FFF71CBA1846B4
:100610009946C0E6069B002B00F0AC81BBF8126047
:100620004FF000080DAC8F4F08E0464508F1010877
:1006300000F0B4812B78002B40F0B08121460E20D1
:10064000B8470228F1D0012840F0A8810D9B002274
:10065000180A63F30702190C60F30F221B0E61F3F3
:100660001742079963F31F620B4604330A6007932E
:10067000049B7CE5DFF8F4B10ABB0AE07A4BD3F8BF
:100680003C32C3F3C003994507D0D84700287FF414
:10069000B5AB29462046002FF0D1002EF5D1B8F198
:1006A000000FF2DBFFF7AABB6F4BD3F83C32C3F36A
:1006B000C003994507D0D84700287FF49FAB29464F
:1006C0002046002FF0D1029B002BF4D1002EF2D156
:1006D000B8F1000FEFDBFFF791BBAAB1634E624F99
:1006E00029462046D7F83C36B0470028F8D0FFF717
:1006F00085BB9FB91EB9B8F1000FBFF67FAB5B4B4E
:10070000984700287FF47AAB574B29462046D3F808
:100710003C36C3F380539B45F1D1EAE7524BD3F803
:100720003C32C3F3C0039945E9D1E3E7504DFFF7ED
:100730008AB9504B072098474F4BFF2276201978F3
:100740005B78DFF83C9141EA0321DFF81C81C84760
:100750004FF48001494BFF22C8F8301608212320AE
:10076000C8F8301219785B7841EA0321C84708239A
:10077000C8F810323E70C7E518F0010F40F025822E
:10078000384F0023019A0DACCDF810A0013A9946DC
:100790000392039B994500F09A82BBF812604FF0D8
:1007A000000A05E056450AF1010A1ED02B78E3B98C
:1007B00021464046B8470228F4D0012815D10D9BA8
:1007C000002209F1010963F307021E0A190C66F3FE
:1007D0000F221B0E61F3174263F31F62029B43F863
:1007E000042B0293019B9945D3D15FFA89F3DDF87D
:1007F00010A0C9F30729CEE51E4B072098471E4BD2
:10080000FF22762019784FF008095B78DFF870B086
:1008100041EA0321DFF85080D8474FF48001174B9D
:10082000FF22C8F83016232019785B78C8F8309278
:1008300041EA0321D8473B79C8F81092012B2E706A
:100840003FF41FADFF238AF8013025E5DDF80CA049
:100850003A46029B20E400BFDD7041007C784100F5
:1008600029E74000111D4100000E0E407572410045
:1008700002000100F56D41000800402058044020AE
:1008800081C54000BB4B07209847BB4BFF22762019
:1008900019784FF008085B78DFF8109341EA0321DC
:1008A000B64FC8474FF48001B54BFF22C7F830164A
:1008B000232019785B78C7F8308241EA0321C847C2
:1008C0009DF82030C7F810823370FFF72ABB00294B
:1008D00040F06E81A94EDFF8C08232BB03E0C04712
:1008E00000287FF48BAAD6F83C3629462046C3F36D
:1008F00080539B45F3D1002F3FF480AAD6F83C32B9
:10090000C3F3C0039945EAD1FFF778BA2FB1D6F8FF
:100910003C32C3F3C003994503D1029B002B3FF443
:100920006DAAC04700287FF469AAD6F83C3629464C
:100930002046C3F380539B45F3D1E7E7914B98479B
:1009400000283FF4B9AD904B984700287FF4B4AD30
:100950000AF102043C2148208C4B224698478C4BDC
:1009600020469847C3B2472B40F2AE813E253C2338
:10097000FFF788B9099B002B00F06B81BBF8124090
:10098000069E844F05E0B44206F1010606D02B789E
:1009900023B900210E20B8470228F4D00890049B08
:1009A000FFF7E5BB002A40F0CB80002940F03B81F7
:1009B000DFF8C881784E002F3FF420AAD8F83C32E7
:1009C00029462046C3F3C0034B453FF417AAB0475E
:1009D0000028F0D0FFF712BA6A4B984700283FF47E
:1009E0006BAD694B9847024600287FF465AD012145
:1009F00013206A4B984700283FF45EAD0AF10204C9
:100A00002021C020614B22469847614B20469847E1
:100A1000C3B2202B28BF20239D1CFFF733B9604EA3
:100A20008C1C06F120073546103410360FCDBD4220
:100A300044F8100C44F80C1C44F8082C44F8043C0E
:100A4000F1D13278232521232270FFF71BB9554BB2
:100A5000881C98470346851CFFF714B9494B9847F3
:100A6000002840F0CA804E4E0AF1020406F1200729
:100A70003546103410360FCDBD4244F8100C44F802
:100A80000C1C44F8082C44F8043CF1D1D9E7EDB231
:100A90004FF08009DFF8E4B00535254418F8013F30
:100AA000CBF810901A0648D4CBF8349013F0010F0D
:100AB00030464FF4800307D1CBF834363046B84780
:100AC0004545EBD1FEF7B3BFCBF83036B8474545C7
:100AD000E4D1FEF7ACBF4522032501238A70FFF75E
:100AE000D1B8314B042598470223020A8AF8020044
:100AF0008AF80320FFF7C6B8012303258B70FFF7A0
:100B0000C1B81E4E04E0244B984700287FF476A914
:100B1000D6F83C3629462046C3F380539B45F2D194
:100B200027B9B8F1000FEEDBFFF768B9D6F83C3211
:100B3000C3F3C0039945E6D1F3E7CBF83090B5E7AE
:100B4000002940F08A80DFF83480134E09E0D8F89D
:100B50003C32C3F3C003994507D0B04700287FF467
:100B60004DA929462046002FF1D1029B002BF4D13C
:100B7000FFF744B9F56D410008004020000E0E401B
:100B800058044020F5654100056641008D6641002E
:100B900013754100111D4100757241001966410035
:100BA00058784100416F4100D51D410081C540008A
:100BB000002A6CD04F4E504F29462046D7F83C367D
:100BC000B0470028F8D0FFF719B9BBF8124000264B
:100BD0004A4F05E0A64206F1010609D02B783BB941
:100BE00000214046B8470228F4D001283FF4C9AD9F
:100BF0004FF000094B46FFF7CEBB414B984700280A
:100C00007FF431AF0AF102043C2184203D4B22469F
:100C100098473D4B20469847C3B23C2B28BF3C2306
:100C20009D1CFFF72FB8DFF8D0B0DFF8C880294649
:100C300020463FB9002E3FF4E1A8C0470028F6D077
:100C4000FFF7DCB8DBF83C32C3F3C0039945F4D1BD
:100C5000F0E70891049BFFF78ABADFF89CB0DFF851
:100C6000948009E0DBF83C32C3F3C0034B4507D066
:100C7000C04700287FF4C2A829462046002FF1D1A2
:100C8000029B002BF4D1002E3FF4B8A8F0E7DFF868
:100C90006880184B05E001939847019B00287FF47A
:100CA000ADA8D8F83C2629462046C2F38052934589
:100CB000F1D12FB1D8F83C22C2F3C0029145EAD15C
:100CC000002E3FF49BA8E6E79D1CFEF7DBBF18F063
:100CD000010F18BF4FF00E085FE5029B04970593C4
:100CE00008933B46FFF743BA029B049ADDF80CA039
:100CF000FFF7D2B975724100000E0E40111D410080
:100D0000056641008D6641001375410008B5044B2E
:100D10009847044B0021502259719A6008BD00BFCA
:100D20008D234100A81E402000230122C0F80C3270
:100D3000C0F80422C0F81032C0F80832704700BF73
:100D40000346D0F80802B8B10138F0B4D3F8104225
:100D50000026D3F8045204F5807703EB44240135D0
:100D6000C3F8080233F8177001200C601760C3F84D
:100D70000452C3F81062F0BC704700BFF8B5D0F859
:100D8000045255B30446B2F5007FD0F80C0205F1C9
:100D9000FF35A8BF4FF400721E46C4F8045204EB9E
:100DA00040200F4B0F469847D4F80C1238460D4B95
:100DB00004EB412101259847D4F80C22D4F80832DD
:100DC000002102F5807704EB4222013324F817005A
:100DD0003260C4F80832C4F80C122846F8BD00BFCF
:100DE000ED744100E1F84000024A137A63F07F039A
:100DF00013727047600940200378022B0BD0012B3F
:100E00000FD01BB1FF2301200B707047084A01204F
:100E100013700B7070470020054A08700120137092
:100E2000704703480022037001200A70704700BF1A
:100E30006009402010B4074C002203680420CA70E7
:100E4000A34228BF234610BC1A0A0B701B0C4A7021
:100E50008B70704720A1070003780022012B0A70D5
:100E600004D01BB1FF2301200B707047014A012001
:100E7000537070476009402008B500230B70037859
:100E8000012B0DD01BB1FF230B70012008BD0A4BB5
:100E900098470A4A0120137A23F00103137208BD10
:100EA000074B9847074B9847074B9847034A137AD5
:100EB00043F001031372E8E7352041006009402048
:100EC000390F41009D0F41000D204100034A0023CE
:100ED000127A18464B700A708B7070476009402078
:100EE000044A00230520127A4B700A708B70CB7075
:100EF0000B71704760094020037813F001020FD096
:100F00000C4B052210B404461B7A01200B70237889
:100F100001449C0702D5002310460B6010BC7047AB
:100F20009B0710464FF00402F9D5002310460B60D2
:100F3000704700BF600940200848082340F214426F
:100F4000074930B40468074DC4F302140648AC46A0
:100F5000A340023330BC9BB2604700BF088103400E
:100F60006C09402009704100D81E40200148024B06
:100F7000184700BFD81E4020597041000146014B60
:100F80000148184775714100D81E40200146014BA9
:100F90000148184739714100D81E40200148024BD2
:100FA000184700BFCC1E4020297141000146014B6B
:100FB0000148184739714100CC1E40200146014BC1
:100FC0000148184775714100CC1E40200148024B72
:100FD000184700BFCC1E4020B5714100002835D015
:100FE0001B4BF0B500264FF480079D68441E324627
:100FF0001848BC464FF0080E013D1EB3013ED30712
:1010000013D5C0F830E2C0F834C6A5B12B4600466F
:10101000013BFCD12B46C0F830760046013BFCD1A9
:10102000013C5208631CE8D1F0BDC0F834E2C0F8BE
:1010300034C6002DEAD1013CC0F830765208631C5A
:10104000DBD1F1E70A7807260131D8E7704700BF06
:10105000A81E4020000E0E402DE9F041A54B4FF098
:10106000007408221C63C3F81022004600460046A4
:101070004FF48004C3F83022C3F8344600460046DB
:1010800000460046C3F8304600460046004600468B
:10109000C40740F13681C3F83022964A4FF48003EA
:1010A000C2F834360046004600460046C2F83036E4
:1010B000004600460046004643080824DF0740F18A
:1010C0001D81C2F830428B4A4FF48004C2F8344686
:1010D0000046004600460046C2F83046004600463C
:1010E00000460046840814F0010F23444FF0080422
:1010F00000F0FC80C2F830427E4A4FF48004C2F80F
:1011000034460046004600460046C2F830460046D7
:10111000004600460046C40803440825E60740F19F
:10112000E280C2F83052734A4FF48005C2F8345658
:101130000046004600460046C2F8305600460046CB
:1011400000460046234413F0010F4FF0080300F05F
:10115000C780C2F83032674A4FF48005C2F834566F
:101160000046004600460046C2F83056004600469B
:10117000004600460823C2F83432C2F8345600460E
:10118000004600460046C2F830560046004600467B
:101190000046C2F83032C2F83456004600460046D7
:1011A0000046C2F8305600460046004600464FF062
:1011B0000074C2F8143254630046004600464E4E96
:1011C000337F73B11C46C2F83456004600460046D1
:1011D0000046C2F830560046004600460046013C34
:1011E000F1D1444A4FF48004C2F834460046004628
:1011F00000460046004600460046004600460046BF
:10120000004600460046004600460046D2F83C72C2
:10121000C2F830460046004600460046C2F8344652
:10122000004600460046004600460046004600468E
:10123000004600460046004600460046004600467E
:10124000D2F83CE2C2F8304600460046004600466E
:10125000C2F83446004600460046004600460046B6
:10126000004600460046004600460046004600464E
:1012700000460046D2F83C52C2F8304600460046CE
:1012800000460046C5F3C005CEF3C00EC7F3C00745
:10129000AD0045EA4E053D43012D00F08580022D4D
:1012A00032D0042D30D02133C2F8344600460046F7
:1012B00000460046C2F8304600460046004600465A
:1012C000013BF1D14FF0007108231163C2F81032D5
:1012D000004600460046E8B2C2F83032BDE8F08170
:1012E000C2F8343237E7C2F834521CE7C2F834424D
:1012F00002E700BF000E0E40A81E4020C2F8344294
:10130000E1E6C3F83422C8E6767F9EB1820711D5A4
:101310002122934C4FF48001C4F834160046004655
:1013200000460046C4F83016004600460046004617
:10133000013AF1D183B18A494FF48002C1F83426D1
:101340000046004600460046C1F8302600460046EA
:1013500000460046013BF1D1814C4FF00073082755
:101360002363C4F81072004600460046AEB18307FE
:1013700013D4214621234FF48002C4F83472C1F8FB
:1013800034260046004600460046C1F83026004696
:10139000004600460046013BF1D1714B0822E8B2FD
:1013A000C3F83022BDE8F081800740F18680002735
:1013B000A04610462025BE46C0F8344600460046EA
:1013C00000460046004600460046004600460046ED
:1013D000004600460046004600460046D0F83C2243
:1013E000C0F83046C2F3C002004600460046004640
:1013F0004FEAC27C013D17444CEA5E0EDCD1C0F8D6
:101400003486004600460046004600460046004638
:10141000004600460046004600460046004600469C
:101420000046D0F83C22C0F8308600460046004610
:10143000004687EAD20717F0010F14BF08200120E9
:1014400011B1C1F800E0337F83B145494FF4800208
:10145000C1F834260046004600460046C1F8302652
:101460000046004600460046013BF1D13C4B4FF0A0
:10147000007108221963C3F8102200460046004696
:10148000337CA3B1364C08254FF480012246C4F8C2
:101490003452C2F834160046004600460046C2F8F0
:1014A00030160046004600460046013BF1D12C4B69
:1014B0000822C3F83022BDE8F0816BB1C2F834468F
:1014C0000046004600460046C2F830460046004648
:1014D00000460046013BF1D1214A4FF00073082538
:1014E0001363C2F8105200460046004620200B68E5
:1014F0004FF48004002112E0C2F83052C2F83446A2
:101500000046004600460046C2F830460046004607
:1015100000460046013819444FEA530304D0DF0760
:10152000EAD4C2F83452E9E7C9070D4B4FF008027C
:1015300012D5C3F830220A4B4FF48002C3F8342688
:101540000046004600460046C3F8302600460046E6
:1015500000460046012093E7C3F83422EBE700BFC2
:10156000000E0E402DE9F043C14B4FF000740822ED
:1015700089461C63C3F81022004600460046BD4C55
:101580004FF48005C3F83022A268C3F83456013AFC
:1015900000F0AA8313460046013BFCD1B44D4FF442
:1015A00080061346C5F830660046013BFCD1C107F2
:1015B000AF4B4FF0080540F1C681C3F830524FF4ED
:1015C0008005AB4BC3F83456002A00F0C6811346A1
:1015D0000046013BFCD1A64D4FF480061346C5F8EA
:1015E00030660046013BFCD14508A14B0826EF07B9
:1015F00040F19C81C3F830624FF480069C4BC3F8E5
:101600003466002A00F09C8113460046013BFCD161
:10161000974E4FF480071346C6F830760046013BDC
:10162000FCD18308082613F0010F1D44904B00F0F5
:101630007081C3F830624FF480068D4BC3F8346676
:10164000002A00F0708113460046013BFCD1884E11
:101650004FF480071346C6F830760046013BFCD1B4
:101660004FEAD00E0544824B08261EF0010F00F011
:101670004381C3F830624FF480067D4BC3F8346673
:10168000002A00F0438113460046013BFCD1784E0E
:101690004FF480071346C6F830760046013BFCD174
:1016A0007544734B15F0010F4FF0080500F00A81E7
:1016B000C3F830524FF480056D4BC3F83456002AFE
:1016C00000F00A8113460046013BFCD1684D4FF4FF
:1016D00080061346C5F830660046013BFCD1644DD8
:1016E00008274FF480061346C5F83472C5F83466EF
:1016F0000046013BFCD15E4D4FF480061346C5F811
:1017000030660046013BFCD1594D08274FF4800656
:101710001346C5F83072C5F834660046013BFCD16B
:10172000534D4FF480061346C5F830660046013B22
:10173000FCD14F4F08254FF00073C7F814527B635C
:10174000004600460046257FA5B14FF4800E2E4688
:101750007146C7F83416002A00F0AE8013460046E2
:10176000013BFCD11346C7F830E60046013BFCD1F3
:10177000013EEED13E4B4FF4800EC3F834E6002A12
:1017800000F0998213460046013BFCD11346004607
:10179000013BFCD113460046013BFCD113460046F9
:1017A000013BFCD1324E4FF4800E1346D6F83C720A
:1017B000C6F830E6C7F3C0060046013BFCD12C4F0B
:1017C0004FF4800E1346C7F834E60046013BFCD1C7
:1017D00013460046013BFCD113460046013BFCD1B9
:1017E00013460046013BFCD1DFF884E04FF4800C47
:1017F0001346DEF83C72CEF830C6C7F3C007004689
:10180000013BFCD1DFF868E04FF4800C46EA470763
:101810001346CEF834C60046013BFCD113460046C1
:10182000013BFCD113460046013BFCD11346004668
:10183000013BFCD1DFF838E04FF4800C1346DEF8B2
:101840003C62CEF830C6C6F3C0060046013BFCD170
:1018500047EA8606012E00F0EE80022E00F080801E
:10186000042E7DD04FF4800021350149044603E069
:10187000000E0E40A81E4020C1F83446002A00F099
:10188000D48013460046013BFCD11346C1F8300614
:101890000046013BFCD1013DEED1A84B4FF0007159
:1018A00008221963C3F81022004600460046C3F818
:1018B0003022F0B2BDE8F083013EC7F830E67FF495
:1018C00048AF57E7C3F834524FF480059B4BC3F839
:1018D0003456002A7FF4F6AE0826C3F83056C3F813
:1018E0003462C3F83456C3F83056C3F83062C3F8D4
:1018F0003456C3F830561CE7C3F834624FF4800600
:101900008E4BC3F83466002A7FF4BDAEC3F8306650
:10191000C6E6C3F834624FF48006884BC3F83466D9
:10192000002A7FF490AEC3F8306699E6C3F83462BB
:101930004FF48006814BC3F83466002A7FF464AE0E
:10194000C3F830666DE6C3F834524FF480057B4B24
:10195000C3F83456002A7FF43AAEC3F8305643E653
:1019600094F81DE0BEF1000F17D0840715D54FF491
:1019700080072121714CBC46C4F834C6002A00F00F
:10198000838113460046013BFCD11346C4F83076F0
:101990000046013BFCD10139EED19DB14FF48004EA
:1019A00066492746C1F83476002A39D013460046E6
:1019B000013BFCD11346C1F830460046013BFCD147
:1019C000013DEFD15D4B4FF0007108241963C3F85E
:1019D0001042004600460046BEF1000F19D08107B4
:1019E00017D44FF48005C3F83442184621212C4601
:1019F000C0F83446002A00F0418113460046013BFE
:101A0000FCD11346C0F830560046013BFCD10139E9
:101A1000EED14A4B0822F0B2C3F83022BDE8F08381
:101A2000013DC1F83046BDD1CCE7013DC1F83006DB
:101A30007FF422AF31E7810700F18280A5B14FF436
:101A400080063E483746C0F83476002A00F02D81E3
:101A500013460046013BFCD11346C0F830660046F1
:101A6000013BFCD1013DEED134484FF00073082713
:101A70000363C0F810720046004600464FF4800E23
:101A8000D9F8001020250026F446CB0740F1D78076
:101A9000C0F83072C0F834C6002A00F0D780134670
:101AA0000046013BFCD11346C0F830E60046013B3E
:101AB000FCD1013D0E444FEA5101E6D1F5071F4B21
:101AC0004FF0080140F11381C3F830121B4B4FF463
