:020000040000fa
:10000000f0ff0320213505002b680500b76b0500c4
:100010008f8705001b9305002f9805000000000046
:1000200000000000000000000000000077590500fb
:10003000eb820500000000007759050077590500a4
:10004000775905007759050077590500775905005c
:10005000775905007759050077590500775905004c
:10006000775905007759050077590500775905003c
:10007000775905007759050077590500775905002c
:10008000775905007759050077590500775905001c
:10009000775905007759050077590500775905000c
:1000a00077590500775905007759050077590500fc
:1000b00077590500775905007759050097ae050077
:1000c00077590500775905007759050077590500dc
:1000d00077590500775905007759050077590500cc
:1000e0007759050077590500000000000000000066
:1000f0000000000077590500775905007759050081
:10010000775905007759050077590500775905009b
:10011000775905007759050077590500775905008b
:10012000775905007759050077590500775905007b
:1001300077590500775905004dc704004dc70400e5
:100140004dc704004dc704007759050077590500d5
:10015000775905007759050077590500775905004b
:10016000775905007759050077590500775905003b
:10017000775905007759050077590500775905002b
:10018000775905007759050077590500775905001b
:10019000775905007759050077590500775905000b
:1001a00077590500775905007759050077590500fb
:1001b00077590500775905007759050077590500eb
:1001c00077590500775905007759050077590500db
:1001d00077590500775905007759050077590500cb
:1001e000775905007759050077590500bd8d050041
:1001f00077590500775905007759050077590500ab
:10020000775905007759050077590500775905009a
:10021000775905007759050077590500775905008a
:10022000775905007759050077590500775905007a
:10023000775905007759050077590500775905006a
:10024000775905007759050077590500775905005a
:10025000775905007759050077590500775905004a
:0402600077590500c5
:020000040000fa
:10026400f8b500bff8bc08bc9e467047ed750500a4
:10027400f8b500bff8bc08bc9e467047c9750500b8
:020000040000fa
:08028400809904000100000054
:020000040000fa
:10028c000000000000000000000000000000000062
:10029c0000000000000005356a9abad9ebf5fdf7ad
:1002ac00eee1c6a983501b00000000000000000016
:1002bc000000000000000000000000000000000032
:1002cc000000000000000000000000000000000022
:1002dc000350a5efffffffffffffffffffffffff37
:1002ec00ffffffffd2872900000000000000000084
:1002fc0000000000000000000000000000000000f2
:10030c0000000000000000000000000975e2ffff83
:10031c00ffffffffffffffffffffffffffffffffe1
:10032c00ffffffffc04700000000000000000000be
:10033c0000000000000000000000000000000000b1
:10034c00000000000000005ae3fffffffffffffd6d
:10035c00d4ae90786f666c7586a3c2f1ffffffff79
:10036c00ffffffbe2a00000000000000000000009c
:10037c000000000000000000000000000000000071
:10038c00000013adffffffffffe494450d000000dc
:10039c00000000000000000001276db9fcffffff0a
:1003ac00fff77200000000000000000000000000d9
:1003bc00000000000000000000000000000028de2b
:1003cc00ffffffffca550300000000000000000003
:1003dc000000000000000000001e86f2ffffffff7f
:1003ec00a507000000000000000000000000000055
:1003fc000000000000000000000037eeffffffe5ea
:10040c005a01000000000000000000000000000085
:10041c000000000000000000169affffffffbd085f
:10042c0000000000000000000000000000000000c0
:10043c0000000000000030efffffffb314000000cd
:10044c0000000000000000000000000000000000a0
:10045c00000000000000004bebffffffb5050000a3
:10046c000000000000000000000000000000000080
:10047c0000001ee9ffffff8e0100000000000000dd
:10048c000000000000000000000000000000000060
:10049c00000000000025ddffffff980000000000b9
:1004ac0000000000000000000000000000000ace68
:1004bc00ffffff82000000000000000000000000b1
:1004cc000000000000000000000000000000000020
:1004dc000000001adfffffff6500000000000000b5
:1004ec0000000000000000000000009affffff99d0
:1004fc0000000000000000000000000000000000f0
:10050c0000000000000000000000000000000000df
:10051c000026edfffff525000000000000000000a4
:10052c00000000000000004bffffffc404000000af
:10053c0000000000000000000000000000000000af
:10054c000000000000000000000000000000004b54
:10055c00feffffc6010000000000000000000000cc
:10056c000000000be4ffffed1b000000000000008a
:10057c00000000000000000000000000000000006f
:10058c00000000000000000000000000008fffffd2
:10059c00ff610000000000000000000000000000ef
:1005ac0088ffffff5d00000000000000000000005d
:1005bc00000000000000000000000000000000002f
:1005cc00000000000000000000000bdfffffe70c44
:1005dc000000000000000000000000001cf8fffffd
:1005ec00bb00000000000000000000000000000044
:1005fc0000000000000000000000000000000000ef
:10060c00000000000000000051ffffff760000001a
:10061c0000000000000000000096fffffd2f00000e
:10062c0000000000000000000000000000000000be
:10063c0000000000000000000000000000000000ae
:10064c00000000000000c6ffffe8090000000000e9
:10065c00000000000019f9ffffa5000000000000d9
:10066c00000000000000000000000000000000007e
:10067c00000000000000000000000000000000006e
:10068c0000000049ffffff630000000000000000b5
:10069c00000081ffffff2e000000000000000000a2
:1006ac00000000000000000000000000000000003e
:1006bc00000000000000000000000000000000002e
:1006cc0001d5ffffca00000000000000000005e794
:1006dc00ffffb90000000000000000000000000057
:1006ec0000000000000000000000000000000000fe
:1006fc0000000000000000000000000000006dff82
:10070c00ffff2e00000000000000004dffffff5413
:10071c0000000000000000000000000000000000cd
:10072c0000000000000000000000000000000000bd
:10073c00000000000000000000000014faffff841d
:10074c000000000000000000a7ffffeb0500000008
:10075c00000000000000000000000000000000008d
:10076c00000000000000000000000000000000007d
:10077c00000000000000000000b3ffffd9000000e3
:10078c000000000008f5ffff9b00000000000000c7
:10079c00000000000000000000000000000000004d
:1007ac00000000000000000000000000000000003d
:1007bc0000000000000065ffffff260000000000a5
:1007cc000049ffffff49000000000000000000008e
:1007dc00000000000000000000000000000000000d
:1007ec0000000000000000000000000000000000fd
:1007fc0000000018ffffff6c00000000000094ffd9
:10080c00fff50700000000000000000000000000e1
:10081c0000000000000000000000000000000000cc
:10082c0000000000000000000000000000000000bc
:10083c0000d7ffffb0000000000000d5ffffb9009b
:10084c00000000000000000000000000000000009c
:10085c00000000000000000000000000000000008c
:10086c00000000000000000000000000000098ffe5
:10087c00ffe8000000000010feffff780000000001
:10088c00000000000000000000000000000000005c
:10089c00000000000000000000000000000000004c
:1008ac0000000000000000000000005fffffff1dc3
:1008bc000000000047ffffff4200000000000000a6
:1008cc00000000000000000000000000000000001c
:1008dc00000000000000000000000000000000000c
:1008ec00000000000000000031ffffff510000007d
:1008fc00007fffffff100000000000000000000060
:10090c0000000000000000000000000000000000db
:10091c0000000000000000000000000000000000cb
:10092c00000000000007fbffff8600000000b8ff7e
:10093c00ffdc0000000000000000000000000000d0
:10094c00000000000000000000000000000000009b
:10095c00000000000000000000000000000000008b
:10096c00000000d4ffffba00000000eeffffaa0059
:10097c00000000000000000000000000000000006b
:10098c00000000000000000000000000000000005b
:10099c00000000000000000000000000000000004b
:1009ac00a5ffffeb0000001cffffff77000000001d
:1009bc00000000000000000000000000000000002b
:1009cc00000000000000000000000000000000001b
:1009dc000000000000000000000000000078ffff95
:1009ec00ff10000041ffffff4d0000000000000061
:1009fc0000000000000000000000000000000000eb
:100a0c0000000000000000000000000000000000da
:100a1c000000000000000000000057ffffff330043
:100a2c000067ffffff2c000000000000000000002a
:100a3c0000000000000000000000000000000000aa
:100a4c00000000000000000000000000000000009a
:100a5c000000000000000038ffffff5600008dff73
:100a6c00ffff0a0000000000000000000000000072
:100a7c00000000000000000000000000000000006a
:100a8c00000000000000000000000000000000005a
:100a9c000000000019ffffff790000b3ffffe80022
:100aac00000000000000000000000000000000003a
:100abc00000000000000000000000000000000002a
:100acc00000000000000000000000000000000001a
:100adc000001f8ffff9c0000d8ffffc600000000db
:100aec0000000000000000000000000000000000fa
:100afc0000000000000000000000000000000000ea
:100b0c00000000000000000000000000000000dcfd
:100b1c00ffffbe0000f5ffffa50000000000000075
:100b2c0000000000000000000000000000000000b9
:100b3c0000000000000000000000000000000000a9
:100b4c00000000000000000000000000c0ffffd407
:100b5c00000affffff8e00000000000000000000f4
:100b6c000000000000000000000000000000000079
:100b7c000000000000000000000000000000000069
:100b8c00000000000000000000aeffffe80020ffa6
:100b9c00ffff7b00000000000000000000000000d0
:100bac000000000000000000000000000000000039
:100bbc000000000000000000000000000000000029
:100bcc000000000000009dfffffb0035ffffff68e9
:100bdc000000000000000000000000000000000009
:100bec0000000000000000000000000000000000f9
:100bfc0000000000000000000000000000000000e9
:100c0c000000008cffffff0f4bffffff54000000a4
:100c1c0000000000000000000000000000000000c8
:100c2c0000000000000000000000000000000000b8
:100c3c0000000000000000000000000000000000a8
:100c4c007bffffff2360ffffff410000000000005f
:100c5c000000000000000000000000000000000088
:100c6c000000000000000000000000000000000078
:100c7c00000000000000000000000000006affff00
:100c8c00ff3672ffffff2e00000000000000000086
:100c9c000000000000000000000000000000000048
:100cac000000000000000000000000000000000038
:100cbc000000000000000000000059ffffff457a13
:100ccc00ffffff25000000000000000000000000f6
:100cdc000000000000000000000000000000000008
:100cec0000000000000000000000000000000000f8
:100cfc000000000000000053ffffff4c81ffffffce
:100d0c001f000000000000000000000000000000b8
:100d1c0000000000000000000000000000000000c7
:100d2c0000000000000000000000000000000000b7
:100d3c00000000004dffffff5287ffffff1900006e
:100d4c000000000000000000000000000000000097
:100d5c000000000000000000000000000000000087
:100d6c000000000000000000000000000000000077
:100d7c000048ffffff588effffff1300000000002c
:100d8c000000000000000000000000000000000057
:100d9c000000000000000000000000000000000047
:100dac00000000000000000000000000000043fff5
:100dbc00ffff5f95ffffff0d00000000000000002b
:100dcc000000000000000000000000000000000017
:100ddc000000000000000000000000000000000007
:100dec0000000000000000000000003dffffff6558
:100dfc009cffffff07000000000000000000000047
:100e0c0000000000000000000000000000000000d6
:100e1c0000000000000000000000000000000000c6
:100e2c00000000000000000038ffffff6b9effff7a
:100e3c00ff050000000000000000000000000000a2
:100e4c000000000000000000000000000000000096
:100e5c000000000000000000000000000000000086
:100e6c00000000000035ffffff6d99ffffff090038
:100e7c000000000000000000000000000000000066
:100e8c000000000000000000000000000000000056
:100e9c000000000000000000000000000000000046
:100eac0000003affffff6894ffffff0e00000000f8
:100ebc000000000000000000000000000000000026
:100ecc000000000000000000000000000000000016
:100edc000000000000000000000000000000003fc7
:100eec00ffffff638fffffff1200000000000000f8
:100efc0000000000000000000000000000000000e6
:100f0c0000000000000000000000000000000000d5
:100f1c0000000000000000000000000043ffffff85
:100f2c005e8affffff1700000000000000000000b9
:100f3c0000000000000000000000000000000000a5
:100f4c000000000000000000000000000000000095
:100f5c0000000000000000000047ffffff5985ff64
:100f6c00ffff1b000000000000000000000000005c
:100f7c000000000000000000000000000000000065
:100f8c000000000000000000000000000000000055
:100f9c000000000000004bffffff547dffffff2609
:100fac000000000000000000000000000000000035
:100fbc000000000000000000000000000000000025
:100fcc000000000000000000000000000000000015
:100fdc0000000056ffffff4c6dffffff35000000c7
:100fec0000000000000000000000000000000000f5
:100ffc0000000000000000000000000000000000e5
:10100c0000000000000000000000000000000000d4
:10101c0065ffffff3d5cffffff4400000000000088
:10102c0000000000000000000000000000000000b4
:10103c0000000000000000000000000000000000a4
:10104c000000000000000000000000000073ffff23
:10105c00ff2d4cffffff53000000000000000000bc
:10106c000000000000000000000000000000000074
:10107c000000000000000000000000000000000064
:10108c000000000000000000000081ffffff1d3b7e
:10109c00ffffff62000000000000000000000000e5
:1010ac000000000000000000000000000000000034
:1010bc000000000000000000000000000000000024
:1010cc00000000000000008fffffff0d2bffffff53
:1010dc00750000000000000000000000000000008f
:1010ec0000000000000000000000000000000000f4
:1010fc0000000000000000000000000000000000e4
:10110c0000000000a0fffffc0013ffffff8f00009a
:10111c0000000000000000000000000000000000c3
:10112c0000000000000000000000000000000000b3
:10113c0000000000000000000000000000000000a3
:10114c0000b9ffffe40000f6ffffaa00000000005a
:10115c000000000000000000000000000000000083
:10116c000000000000000000000000000000000073
:10117c000000000000000000000000000000d2ff92
:10118c00ffc80000d9ffffc40000000000000000f1
:10119c000000000000000000000000000000000043
:1011ac000000000000000000000000000000000033
:1011bc000000000000000000000000ebffffab008f
:1011cc0000bbffffdf00000000000000000000007b
:1011dc000000000000000000000000000000000003
:1011ec0000000000000000000000000000000000f3
:1011fc000000000000000005feffff8f00009dffb7
:10120c00fffa0400000000000000000000000000d5
:10121c0000000000000000000000000000000000c2
:10122c0000000000000000000000000000000000b2
:10123c000000000022ffffff7200007cffffff2771
:10124c000000000000000000000000000000000092
:10125c000000000000000000000000000000000082
:10126c000000000000000000000000000000000072
:10127c000049ffffff50000050ffffff500000002f
:10128c000000000000000000000000000000000052
:10129c000000000000000000000000000000000042
:1012ac0000000000000000000000000000006fffc4
:1012bc00ffff25000022ffffff7a00000000000066
:1012cc000000000000000000000000000000000012
:1012dc000000000000000000000000000000000002
:1012ec00000000000000000000000095fffff60267
:1012fc00000001f3ffffa30000000000000000004d
:10130c0000000000000000000000000000000000d1
:10131c0000000000000000000000000000000000c1
:10132c000000000000000000bbffffce000000002a
:10133c00c8ffffd700000000000000000000000004
:10134c000000000000000000000000000000000091
:10135c000000000000000000000000000000000081
:10136c000000000000ecffffa30000000094ffff52
:10137c00fe11000000000000000000000000000052
:10138c000000000000000000000000000000000051
:10139c000000000000000000000000000000000041
:1013ac000023ffffff6f0000000056ffffff490006
:1013bc000000000000000000000000000000000021
:1013cc000000000000000000000000000000000011
:1013dc00000000000000000000000000000058ffaa
:1013ec00ffff330000000018ffffff820000000029
:1013fc0000000000000000000000000000000000e1
:10140c0000000000000000000000000000000000d0
:10141c0000000000000000000000008dfffff3033f
:10142c000000000000d8ffffc60000000000000014
:10143c0000000000000000000000000000000000a0
:10144c000000000000000000000000000000000090
:10145c000000000000000000cfffffba00000000f9
:10146c00000098fffffd15000000000000000000c8
:10147c000000000000000000000000000000000060
:10148c000000000000000000000000000000000050
:10149c000000000018feffff7b0000000000004968
:1014ac00ffffff60000000000000000000000000d3
:1014bc000000000000000000000000000000000020
:1014cc000000000000000000000000000000000010
:1014dc00005fffffff2c00000000000005eeffff87
:1014ec00ae00000000000000000000000000000042
:1014fc0000000000000000000000000000000000e0
:10150c000000000000000000000000000000a7ff29
:10151c00ffdb00000000000000009ffffff813003d
:10152c0000000000000000000000000000000000af
:10153c00000000000000000000000000000000009f
:10154c00000000000000000000000cf4ffff8b0006
:10155c000000000000000049ffffff7200000000c7
:10156c00000000000000000000000000000000006f
:10157c00000000000000000000000000000000005f
:10158c00000000000000005fffffff3800000000bb
:10159c000000000003dfffffd60000000000000089
:1015ac00000000000000000000000000000000002f
:1015bc00000000000000000000000000000000001f
:1015cc0000000000bdffffd2000000000000000082
:1015dc00000073ffffff4600000000000000000049
:1015ec0000000000000000000000000000000000ef
:1015fc0000000000000000000000000000000000df
:10160c0027fdffff69000000000000000000000f34
:10161c00f3ffffc900000000000000000000000004
:10162c0000000000000000000000000000000000ae
:10163c0000000000000000000000000000a0ffff00
:10164c00f20c00000000000000000000008fffff03
:10165c00ff4e000000000000000000000000000031
:10166c00000000000000000000000000000000006e
:10167c000000000000000000001efaffff8d0000bb
:10168c000000000000000000000013efffffd60771
:10169c00000000000000000000000000000000003e
:1016ac00000000000000000000000000000000002e
:1016bc00000000000000a1fffff11400000000007a
:1016cc00000000000000000071ffffff860000001a
:1016dc0000000000000000000000000000000000fe
:1016ec0000000000000000000000000000000000ee
:1016fc00000040ffffff7e00000000000000000023
:10170c00000000000005d9fffffb340000000000c2
:10171c0000000000000000000000000000000000bd
:10172c00000000000000000000000000000007d8ce
:10173c00ffffe60c000000000000000000000000ad
:10174c0000000036fbffffe0170000000000000067
:10175c00000000000000000000000000000000007d
:10176c000000000000000000000000a0ffffff4a86
:10177c00000000000000000000000000000000005d
:10178c000078ffffffc80800000000000000000008
:10179c00000000000000000000000000000000003d
:1017ac000000000000000073ffffff9b0000000022
:1017bc00000000000000000000000000000002b962
:1017cc00ffffffb60a000000000000000000000050
:1017dc0000000000000000000000000000000000fd
:1017ec0000000060fdffffd80d00000000000000ad
:1017fc000000000000000000000000000ecdffff04
:10180c00ffc81300000000000000000000000000f2
:10181c000000000000000000000000000000007547
:10182c00ffffffe8210000000000000000000000a6
:10183c000000000000000000000016daffffffddd2
:10184c003c00000000000000000000000000000050
:10185c000000000000000000000010a1fffffff4da
:10186c003400000000000000000000000000000038
:10187c0000000000000000001cd0fffffffd8d0ddc
:10188c00000000000000000000000000000000004c
:10189c000000000000004de4ffffffeb39000000ea
:1018ac00000000000000000000000000000000002c
:1018bc000000000000000cb3ffffffffed7e1000e6
:1018cc00000000000000000000000000000000000c
:1018dc000152cbffffffffdb2400000000000000e3
:1018ec0000000000000000000000000000000000ec
:1018fc0000000000027af8fffffffff5ae5d130059
:10190c00000000000000000000000a4796e4ffff02
:10191c00ffffffa312000000000000000000000009
:10192c0000000000000000000000000000000000ab
:10193c0000000027c2ffffffffffffffe3b58f7f13
:10194c007167717e8caedbfdffffffffffffe1498e
:10195c00000000000000000000000000000000007b
:10196c00000000000000000000000000000000006b
:10197c00000048bfffffffffffffffffffffffff60
:10198c00ffffffffffffffffffd964060000000011
:10199c00000000000000000000000000000000003b
:1019ac00000000000000000000000000000000002b
:1019bc0000338cdbffffffffffffffffffffffff8d
:1019cc00ffffffe89b490200000000000000000040
:1019dc0000000000000000000000000000000000fb
:1019ec0000000000000000000000000000000000eb
:1019fc0000295f8cb9d7e5f3fcf2e5d7bd916534ce
:101a0c0001000000000000000000000000000000c9
:101a1c0000000000000000000000000000000000ba
:101a2c0000000000000000000000000000000000aa
:101a3c00000690ffffff34000000000000000000d3
:101a4c000000000000000000000000000000002466
:101a5c00ccffffffff34000000000000000000007e
:101a6c00000000000000000000000000005af2ff1f
:101a7c00ffffffff3400000000000000000000002a
:101a8c00000000000000000000000a9effffffffa6
:101a9c00ffffff3400000000000000000000000009
:101aac0000000000000000002dd6fffffff789ffab
:101abc00ffff3400000000000000000000000000e8
:101acc0000000000000068f7ffffffea393bffff52
:101adc00ff340000000000000000000000000000c7
:101aec000000000fabffffffffd5210043fffffffe
:101afc0034000000000000000000000000000000a6
:101b0c000037dfffffffffa90c000048ffffff3489
:101b1c000000000000000000000000000000017642
:101b2c00fafffffff96c000000004cffffff3400d0
:101b3c0000000000000000000000000016b8ffffcd
:101b4c00ffffdb3200000000004fffffff340000fe
:101b5c000000000000000000000042e6ffffffff55
:101b6c00a80d00000000000050ffffff3400000033
:101b7c00000000000000000384fdfffffff767007a
:101b8c000000000000000050ffffff3400000000c8
:101b9c0000000000001dc3ffffffffd72e00000058
:101bac0000000000000050ffffff340000000000a8
:101bbc000000004eedffffffffa10b000000000036
:101bcc00000000000050ffffff3400000000000088
:101bdc000691fffffffff560000000000000000011
:101bec000000000050ffffff34000000000025ce75
:101bfc00ffffffffd32900000000000000000000e1
:101c0c0000000050ffffff34000000005cf3fffffa
:101c1c00ffff9c0900000000000000000000000015
:101c2c00000050ffffff3400000b9ffffffffff38e
:101c3c005a0000000000000000000000000000003e
:101c4c000050ffffff34002fd7ffffffffcf250011
:101c5c000000000000000000000000000000000078
:101c6c0050ffffff340eeeffffffff960700000052
:101c7c000000000000000000000000000000005008
:101c8c00ffffff340063fffff05300000000000073
:101c9c00000000000000000000000000000050ffe9
:101cac00ffff340000a0ca2100000000000000006b
:101cbc000000000000000000000000000050ffffca
:101ccc00ff340000080600000000000000000000c7
:101cdc0000000000000000000000000050ffffffab
:101cec0034000000000000000000000000000000b4
:101cfc00000000000000000000000050ffffff3457
:101d0c0000000000000000000000000000000000c7
:101d1c000000000000000000000050ffffff340036
:101d2c0000000000000000000000000000000000a7
:101d3c0000000000000000000050ffffff34000016
:101d4c000000000000000000000000000000000087
:101d5c00000000000000000050ffffff34000000f6
:101d6c000000000000000000000000000000000067
:101d7c000000000000000050ffffff3400000000d6
:101d8c000000000000000000000000000000000047
:101d9c0000000000000050ffffff340000000000b6
:101dac000000000000000000000000000000000027
:101dbc00000000000050ffffff3400000000000096
:101dcc000000000000000000000000000000000007
:101ddc000000000050ffffff340000000000000076
:101dec0000000000000000000000000000000000e7
:101dfc0000000050ffffff34000000000000000056
:101e0c0000000000000000000000000000000000c6
:101e1c00000050ffffff3400000000000000000035
:101e2c0000000000000000000000000000000000a6
:101e3c000050ffffff340000000000000000000015
:101e4c000000000000000000000000000000000086
:101e5c0050ffffff340000000000000000000000f5
:101e6c000000000000000000000000000000005016
:101e7c00ffffff3400000000000000000000000025
:101e8c00000000000000000000000000000050fff7
:101e9c00ffff340000000000000000000000000004
:101eac000000000000000000000000000050ffffd8
:101ebc00ff340000000000000000000000000000e3
:101ecc0000000000000000000000000050ffffffb9
:101edc0034000000000000000000000000000000c2
:101eec00000000000000000000000050ffffff3465
:101efc0000000000000000000000000000000000d6
:101f0c000000000000000000000050ffffff340044
:101f1c0000000000000000000000000000000000b5
:101f2c0000000000000000000050ffffff34000024
:101f3c000000000000000000000000000000000095
:101f4c00000000000000000050ffffff3400000004
:101f5c000000000000000000000000000000000075
:101f6c000000000000000050ffffff3400000000e4
:101f7c000000000000000000000000000000000055
:101f8c0000000000000050ffffff340000000000c4
:101f9c000000000000000000000000000000000035
:101fac00000000000050ffffff34000000000000a4
:101fbc000000000000000000000000000000000015
:101fcc000000000050ffffff340000000000000084
:101fdc0000000000000000000000000000000000f5
:101fec0000000050ffffff34000000000000000064
:101ffc0000000000000000000000000000000000d5
:10200c00000050ffffff3400000000000000000043
:10201c0000000000000000000000000000000000b4
:10202c000050ffffff340000000000000000000023
:10203c000000000000000000000000000000000094
:10204c0050ffffff34000000000000000000000003
:10205c000000000000000000000000000000005024
:10206c00ffffff3400000000000000000000000033
:10207c00000000000000000000000000000050ff05
:10208c00ffff340000000000000000000000000012
:10209c000000000000000000000000000050ffffe6
:1020ac00ff340000000000000000000000000000f1
:1020bc0000000000000000000000000050ffffffc7
:1020cc0034000000000000000000000000000000d0
:1020dc00000000000000000000000050ffffff3473
:1020ec0000000000000000000000000000000000e4
:1020fc000000000000000000000050ffffff340053
:10210c0000000000000000000000000000000000c3
:10211c0000000000000000000050ffffff34000032
:10212c0000000000000000000000000000000000a3
:10213c00000000000000000050ffffff3400000012
:10214c000000000000000000000000000000000083
:10215c000000000000000050ffffff3400000000f2
:10216c000000000000000000000000000000000063
:10217c0000000000000050ffffff340000000000d2
:10218c000000000000000000000000000000000043
:10219c00000000000050ffffff34000000000000b2
:1021ac000000000000000000000000000000000023
:1021bc000000000050ffffff340000000000000092
:1021cc000000000000000000000000000000000003
:1021dc0000000050ffffff34000000000000000072
:1021ec0000000000000000000000000000000000e3
:1021fc00000050ffffff3400000000000000000052
:10220c0000000000000000000000000000000000c2
:10221c000050ffffff340000000000000000000031
:10222c0000000000000000000000000000000000a2
:10223c0050ffffff34000000000000000000000011
:10224c000000000000000000000000000000005032
:10225c00ffffff3400000000000000000000000041
:10226c00000000000000000000000000000050ff13
:10227c00ffff340000000000000000000000000020
:10228c000000000000000000000000000050fffff4
:10229c00ff340000000000000000000000000000ff
:1022ac0000000000000000000000000050ffffffd5
:1022bc0034000000000000000000000000000000de
:1022cc00000000000000000000000050ffffff3481
:1022dc0000000000000000000000000000000000f2
:1022ec000000000000000000000050ffffff340061
:1022fc0000000000000000000000000000000000d2
:10230c0000000000000000000050ffffff34000040
:10231c0000000000000000000000000000000000b1
:10232c00000000000000000050ffffff3400000020
:10233c000000000000000000000000000000000091
:10234c000000000000000050ffffff340000000000
:10235c000000000000000000000000000000000071
:10236c0000000000000050ffffff340000000000e0
:10237c000000000000000000000000000000000051
:10238c00000000000050ffffff34000000000000c0
:10239c000000000000000000000000000000000031
:1023ac000000000050ffffff3400000000000000a0
:1023bc000000000000000000000000000000000011
:1023cc0000000050ffffff34000000000000000080
:1023dc0000000000000000000000000000000000f1
:1023ec00000050ffffff3400000000000000000060
:1023fc0000000000000000000000000000000000d1
:10240c000050ffffff34000000000000000000003f
:10241c0000000000000000000000000000000000b0
:10242c0050ffffff3400000000000000000000001f
:10243c000000000000000000000000000000005040
:10244c00ffffff340000000000000000000000004f
:10245c00000000000000000000000000000050ff21
:10246c00ffff34000000000000000000000000002e
:10247c000000000000000000000000000050ffff02
:10248c00ff3400000000000000000000000000000d
:10249c0000000000000000000000000050ffffffe3
:1024ac0034000000000000000000000000000000ec
:1024bc00000000000000000000000050ffffff348f
:1024cc000000000000000000000000000000000000
:1024dc000000000000000000000050ffffff34006f
:1024ec0000000000000000000000000000000000e0
:1024fc0000000000000000000050ffffff3400004f
:10250c0000000000000000000000000000000000bf
:10251c00000000000000000050ffffff340000002e
:10252c00000000000000000000000000000000009f
:10253c000000000000000050ffffff34000000000e
:10254c00000000000000000000000000000000007f
:10255c0000000000000050ffffff340000000000ee
:10256c00000000000000000000000000000000005f
:10257c00000000000050ffffff34000000000000ce
:10258c00000000000000000000000000000000003f
:10259c000000000050ffffff3400000000000000ae
:1025ac00000000000000000000000000000000001f
:1025bc0000000050ffffff3400000000000000008e
:1025cc0000000000000000000000000000000000ff
:1025dc00000050ffffff340000000000000000006e
:1025ec0000000000000000000000000000063b702e
:1025fc0097bddbe9f6faede0d2b2865a280000006e
:10260c0000000000000000000000000000000000be
:10261c0000000000000000000000000000000000ae
:10262c000000000000002679c0f7ffffffffffff4e
:10263c00ffffffffffffffffffdb8c3b00000000f5
:10264c00000000000000000000000000000000007e
:10265c000000000000000000000000000000001559
:10266c0079d3ffffffffffffffffffffffffffff20
:10267c00ffffffffffffffffca5302000000000037
:10268c00000000000000000000000000000000003e
:10269c00000000000000000000309ff8ffffffff6b
:1026ac00fffffff7d2aa897b6e67717b94b1d9fecd
:1026bc00ffffffffffffd63e000000000000000000
:1026cc0000000000000000000000000000000000fe
:1026dc000000001fa6fefffffffffffbbb783703c8
:1026ec0000000000000000000000000e4794e4ff12
:1026fc00fffffffe970e000000000000000000002e
:10270c00000000000000000000000000000a87f735
:10271c00ffffffffffc76b1400000000000000006c
:10272c00000000000000000000000351c3ffffff89
:10273c00ffd7220000000000000000000000000095
:10274c00000000000000000035d9fffffffffdadc9
:10275c003600000000000000000000000000000037
:10276c000000000000000000004fddffffffeb3b0e
:10277c00000000000000000000000000000000004d
:10278c000000037efbffffffffb1260000000000ee
:10279c00000000000000000000000000000000002d
:1027ac000000000000000d9ffffffff53600000049
:1027bc00000000000000000000000000000fb9ff46
:1027cc00ffffffd5440000000000000000000000e7
:1027dc0000000000000000000000000000000000ed
:1027ec000000000073feffffea2400000000000060
:1027fc00000000000000000024d7fffffffd8a0648
:10280c0000000000000000000000000000000000bc
:10281c0000000000000000000000000000000000ac
:10282c000061ffffffda0b00000000000000000059
:10283c000000000be9ffffffe34100000000000077
:10284c00000000000000000000000000000000007c
:10285c00000000000000000000000000000079fff4
:10286c00ffff9300000000000000000000000000cb
:10287c0076ffffc5160000000000000000000000fd
:10288c00000000000000000000000000000000003c
:10289c000000000000000000000000b4fffffe3f3d
:1028ac0000000000000000000000000001b3a307be
:1028bc00000000000000000000000000000000000c
:1028cc0000000000000000000000000000000000fc
:1028dc000000000000000015efffffd00100000019
:1028ec0000000000000000000009000000000000d3
:1028fc0000000000000000000000000000000000cc
:10290c0000000000000000000000000000000000bb
:10291c000000000072ffffff4e00000000000000ee
:10292c00000000000000000000000000000000009b
:10293c00000000000000000000000000000000008b
:10294c00000000000000000000000000000000007b
:10295c0006e8ffffca0000000000000000000000b5
:10296c00000000000000000000000000000000005b
:10297c00000000000000000000000000000000004b
:10298c000000000000000000000000000080ffffbd
:10299c00ff2e0000000000000000000000000000fe
:1029ac00000000000000000000000000000000001b
:1029bc00000000000000000000000000000000000b
:1029cc0000000000000000000021ffffff8100005c
:1029dc0000000000000000000000000000000000eb
:1029ec0000000000000000000000000000000000db
:1029fc0000000000000000000000000000000000cb
:102a0c00000000000000d1ffffd300000000000018
:102a1c0000000000000000000000000000000000aa
:102a2c00000000000000000000000000000000009a
:102a3c00000000000000000000000000000000008a
:102a4c0000008cffffff17000000000000000000da
:102a5c00000000000000000000000000000000006a
:102a6c00000000000000000000000000000000005a
:102a7c00000000000000000000000000000057fff4
:102a8c00ffff4500000000000000000000000000f7
:102a9c00000000000000000000000000000000002a
:102aac00000000000000000000000000000000001a
:102abc000000000000000000000027ffffff730073
:102acc0000000000000000000000000000000000fa
:102adc0000000000000000000000000000000000ea
:102aec0000000000000000000000000000000000da
:102afc0000000000000009ffffff9c000000000028
:102b0c0000000000000000000000000000000000b9
:102b1c0000000000000000000000000000000000a9
:102b2c000000000000000000000000000000000099
:102b3c00000000ecffffae000000000000000000f1
:102b4c000000000000000000000000000000000079
:102b5c000000000000000000000000000000000069
:102b6c00000000000000000000000000000000e079
:102b7c00ffffbd000000000000000000000000008e
:102b8c000000000000000000000000000000000039
:102b9c000000000000000000000000000000000029
:102bac000000000000000000000000d6ffffcb007a
:102bbc000000000000000000000000000000000009
:102bcc0000000000000000000000000000000000f9
:102bdc0000000000000000000000000000000000e9
:102bec0000000000000000d4ffffcf000000000038
:102bfc0000000000000000000000000000000000c9
:102c0c0000000000000000000000000000000000b8
:102c1c0000000000000000000000000000000000a8
:102c2c00000000dfffffc5000000000000000000f6
:102c3c000000000000000000000000000000000088
:102c4c000000000000000000000000000000000078
:102c5c00000000000000000000000000000000e97f
:102c6c00ffffbb000000000000000000000000009f
:102c7c000000000000000000000000000000000048
:102c8c000000000000000000000000000000000038
:102c9c000000000000000000000000f4ffffb10085
:102cac000000000000000000000000000000000018
:102cbc000000000000000000000000000000000008
:102ccc0000000000000000000000000000000000f8
:102cdc000000000000000fffffff9c000000000040
:102cec0000000000000000000000000000000000d8
:102cfc0000000000000000000000000000000000c8
:102d0c0000000000000000000000000000000000b7
:102d1c0000002fffffff7c000000000000000000ff
:102d2c000000000000000000000000000000000097
:102d3c000000000000000000000000000000000087
:102d4c0000000000000000000000000000004fff29
:102d5c00ffff5c000000000000000000000000000d
:102d6c000000000000000000000000000000000057
:102d7c000000000000000000000000000000000047
:102d8c000000000000000000000077ffffff3b0088
:102d9c000000000000000000000000000000000027
:102dac000000000000000000000000000000000017
:102dbc000000000000000000000000000000000007
:102dcc00000000000000b0fffffc0c000000000041
:102ddc0000000000000000000000000000000000e7
:102dec0000000000000000000000000000000000d7
:102dfc0000000000000000000000000000000000c7
:102e0c000000e7ffffd00000000000000000000001
:102e1c0000000000000000000000000000000000a6
:102e2c000000000000000000000000000000000096
:102e3c000000000000000000000000000025ffff63
:102e4c00ff980000000000000000000000000000df
:102e5c000000000000000000000000000000000066
:102e6c000000000000000000000000000000000056
:102e7c0000000000000000000076ffffff5700007c
:102e8c000000000000000000000000000000000036
:102e9c000000000000000000000000000000000026
:102eac000000000000000000000000000000000016
:102ebc000000000000cafffff70c0000000000003b
:102ecc0000000000000000000000000000000000f6
:102edc0000000000000000000000000000000000e6
:102eec0000000000000000000000000000000000d6
:102efc0022ffffffaf0000000000000000000000f8
:102f0c0000000000000000000000000000000000b5
:102f1c0000000000000000000000000000000000a5
:102f2c000000000000000000000000008dffffff0b
:102f3c00580000000000000000000000000000002d
:102f4c000000000000000000000000000000000075
:102f5c000000000000000000000000000000000065
:102f6c00000000000000000befffffe60500000072
:102f7c000000000000000000000000000000000045
:102f8c000000000000000000000000000000000035
:102f9c000000000000000000000000000000000025
:102fac000000006dffffff7c00000000000000002f
:102fbc000000000000000000000000000000000005
:102fcc0000000000000000000000000000000000f5
:102fdc0000000000000000000000000000000ae6f5
:102fec00fffff614000000000000000000000000cd
:102ffc0000000000000000000000000000000000c5
:10300c0000000000000000000000000000000000b4
:10301c000000000000000000000077ffffff8900a7
:10302c000000000000000000000000000000000094
:10303c000000000000000000000000000000000084
:10304c000000000000000000000000000000000074
:10305c00000000000013edffffef11000000000066
:10306c000000000000000000000000000000000054
:10307c000000000000000000000000000000000044
:10308c000000000000000000000000000000000034
:10309c00009effffff790000000000000000000010
:1030ac000000000000000000000000000000000014
:1030bc000000000000000000000000000000000004
:1030cc000000000000000000000000003dfeffffbb
:1030dc00d907000000000000000000000000000004
:1030ec0000000000000000000000000000000000d4
:1030fc0000000000000000000000000000000000c4
:10310c000000000000000009d6ffffff4100000096
:10311c0000000000000000000000000000000000a3
:10312c000000000000000000000000000000000093
:10313c000000000000000000000000000000000083
:10314c0000000096ffffff9f000000000000000041
:10315c000000000000000000000000000000000063
:10316c000000000000000000000000000000000053
:10317c0000000000000000000000000000004cfff8
:10318c00ffffdf0f00000000000000000000000047
:10319c000000000000000000000000000000000023
:1031ac000000000000000000000000000000000013
:1031bc000000000000000000001deafffffb3900ca
:1031cc0000000000000000000000000000000000f3
:1031dc0000000000000000000000000000000000e3
:1031ec0000000000000000000000000000000000d3
:1031fc000000000007cbffffff7a0000000000007a
:10320c0000000000000000000000000000000000b2
:10321c0000000000000000000000000000000000a2
:10322c000000000000000000000000000000000092
:10323c009effffffb2010000000000000000000034
:10324c000000000000000000000000000000000072
:10325c000000000000000000000000000000000062
:10326c0000000000000000000000006dffffffd711
:10327c000e00000000000000000000000000000034
:10328c000000000000000000000000000000000032
:10329c000000000000000000000000000000000022
:1032ac0000000000000049fcfffff02600000000b9
:1032bc000000000000000000000000000000000002
:1032cc0000000000000000000000000000000000f2
:1032dc0000000000000000000000000000000000e2
:1032ec00002bf1fffffb4600000000000000000077
:1032fc0000000000000000000000000000000000c2
:10330c0000000000000000000000000000000000b1
:10331c0000000000000000000000000019e0ffffaa
:10332c00ff6700000000000000000000000000002b
:10333c000000000000000000000000000000000081
:10334c000000000000000000000000000000000071
:10335c00000000000000000dcfffffff8d000000fb
:10336c000000000000000000000000000000000051
:10337c000000000000000000000000000000000041
:10338c000000000000000000000000000000000031
:10339c00000006bcffffffac0200000000000000b4
:1033ac000000000000000000000000000000000011
:1033bc000000000000000000000000000000000001
:1033cc000000000000000000000000000001a6ff4b
:1033dc00ffffc1070000000000000000000000001b
:1033ec0000000000000000000000000000000000d1
:1033fc0000000000000000000000000000000000c1
:10340c0000000000000000000096ffffffd310003a
:10341c0000000000000000000000000000000000a0
:10342c000000000000000000000000000000000090
:10343c000000000000000000000000000000000080
:10344c000000000086ffffffe01b000000000000f2
:10345c000000000000000000000000000000000060
:10346c000000000000000000000000000000000050
:10347c0000000000000000000000000000000075cb
:10348c00ffffffe825000000000000000000000026
:10349c000000000000000000000000000000000020
:1034ac000000000000000000000000000000000010
:1034bc000000000000000000000066ffffffef2e80
:1034cc0000000000000000000000000000000000f0
:1034dc0000000000000000000000000000000000e0
:1034ec0000000000000000000000000000000000d0
:1034fc00000000000059fdfffff43a00000000003e
:10350c0000000000000000000000000000000000af
:10351c00000000000000000000000000000000009f
:10352c00000000000000000000000000000000008f
:10353c004dfbfffff84500000000000000000000fc
:10354c00000000000000000000000000000000006f
:10355c00000000000000000000000000000000005f
:10356c00000000000000000000000042f8fffffc1b
:10357c0050000000000000000000000000000000ef
:10358c00000000000000000000000000000000002f
:10359c00000000000000000000000000000000001f
:1035ac0000000000000037f3fffffe5d000000008c
:1035bc0000000000000000000000000000000000ff
:1035cc0000000000000000000000000000000000ef
:1035dc0000000000000000000000000000000000df
:1035ec00002deeffffff6b0000000000000000004c
:1035fc0000000000000000000000000000000000bf
:10360c0000000000000000000000000000000000ae
:10361c0000000000000000000000000025e8ffff93
:10362c00ff79000000000000000000000000000016
:10363c00000000000000000000000000000000007e
:10364c00000000000000000000000000000000006e
:10365c00000000000000001de1ffffff88000000db
:10366c00000000000000000000000000000000004e
:10367c00000000000000000000000000000000003e
:10368c00000000000000000000000000000000002e
:10369c00000016d8ffffff9600000000000000009d
:1036ac00000000000000000000000000000000000e
:1036bc0000000000000000000000000000000000fe
:1036cc000000000000000000000000000010cfff10
:1036dc00ffffa4010000000000000000000000003b
:1036ec0000000000000000000000000000000000ce
:1036fc0000000000000000000000000000000000be
:10370c0000000000000000000bc5ffffffb104002b
:10371c00000000000000000000000000000000009d
:10372c00000000000000000000000000000000008d
:10373c00000000000000000000000000000000007d
:10374c0000000007bbffffffbc07000000000000eb
:10375c00000000000000000000000000000000005d
:10376c00000000000000000000000000000000004d
:10377c00000000000000000000000000000003af8b
:10378c00ffffffc60b00000000000000000000005f
:10379c00000000000000000000000000000000001d
:1037ac00000000000000000000000000000000000d
:1037bc0000000000000000000001a2ffffffd0107d
:1037cc0000000000000000000000000000000000ed
:1037dc0000000000000000000000000000000000dd
:1037ec0000000000000000000000000000000000cd
:1037fc00000000000094ffffffd91600000000003d
:10380c0000000000000000000000000000000000ac
:10381c00000000000000000000000000000000009c
:10382c00000000000000000000000000000000008c
:10383c0086ffffffe11e00000000000000000000fa
:10384c00000000000000000000000000000000006c
:10385c00000000000000000000000000000000005c
:10386c00000000000000000000000077ffffffe8f0
:10387c002500000000000000000000000000000017
:10388c00000000000000000000000000000000002c
:10389c00000000000000000000000000000000001c
:1038ac0000000000000069ffffffee2e000000008a
:1038bc0000000000000000000000000000000000fc
:1038cc0000000000000000000000000000000000ec
:1038dc0000000000000000000000000000000000dc
:1038ec00005bfefffff43800000000000000000049
:1038fc0000000000000000000000000000000000bc
:10390c0000000000000000000000000000000000ab
:10391c000000000000000000000000004efbffff54
:10392c00f843000000000000000000000000000050
:10393c00000000000000000000000000000000007b
:10394c00000000000000000000000000000000006b
:10395c000000000000000043f8fffffb4e000000d9
:10396c00000000000000000000000000000000004b
:10397c00000000000000000000000000000000003b
:10398c00000000000000000000000000000000002b
:10399c00000038f3fffffd5b00000000000000009a
:1039ac00000000000000000000000000000000000b
:1039bc0000000000000000000000000000000000fb
:1039cc00000000000000000000000000002fefffce
:1039dc00ffff680000000000000000000000000075
:1039ec0000000000000000000000000000000000cb
:1039fc0000000000000000000000000000000000bb
:103a0c00000000000000000026e9ffffff76000028
:103a1c00000000000000000000000000000000009a
:103a2c00000000000000000000000000000000008a
:103a3c00000000000000000000000000000000007a
:103a4c000000001ee2ffffff8500000000000000e8
:103a5c00000000000000000000000000000000005a
:103a6c00000000000000000000000000000000004a
:103a7c00000000000000000000000000000017da49
:103a8c00ffffff9400000000000000000000000099
:103a9c00000000000000000000000000000000001a
:103aac00000000000000000000000000000000000a
:103abc0000000000000000000011d1ffffffa10179
:103acc0000000000000000000000000000000000ea
:103adc0000000000000000000000000000000000da
:103aec0000000000000000000000000000000000ca
:103afc00000000000bc7ffffffae0300000000003a
:103b0c0000000000000000000000000000000000a9
:103b1c000000000000000000000000000000000099
:103b2c000000000000000000000000000000000782
:103b3c00bcffffffba0700000000000000000000ff
:103b4c000000000000000000000000000000000069
:103b5c000000000000000000000000000000000059
:103b6c000000000000000000000004b0ffffffc5d3
:103b7c000b0000000000000000000000000000002e
:103b8c000000000000000000000000000000000029
:103b9c000000000000000000000000000000000019
:103bac00000000000001a4ffffffcf100000000088
:103bbc0000000000000000000000000000000000f9
:103bcc0000000000000000000000000000000000e9
:103bdc0000000000000000000000000000000000d9
:103bec000096fffffffb796464646464646464643e
:103bfc006464646464646464646464646464646479
:103c0c006464646464646464646464646464646468
:103c1c0064646464646464646464641c08ffffff2b
:103c2c00ffffffffffffffffffffffffffffffff98
:103c3c00ffffffffffffffffffffffffffffffff88
:103c4c00ffffffffffffffffffffffffffffffff78
:103c5c00ffffffffffffff4808ffffffffffffff16
:103c6c00ffffffffffffffffffffffffffffffff58
:103c7c00ffffffffffffffffffffffffffffffff48
:103c8c00ffffffffffffffffffffffffffffffff38
:103c9c00ffffff4808ffffffffffffffffffffffd6
:103cac00ffffffffffffffffffffffffffffffff18
:103cbc00ffffffffffffffffffffffffffffffff08
:103ccc00ffffffffffffffffffffffffffffff48af
:103cdc0000000000000000000000000000000000d8
:103cec00000000000021547594b4d1dee8f2fbfa18
:103cfc00f1e8d3b99c71420f0000000000000000f5
:103d0c0000000000000000000000000000000000a7
:103d1c0000000000000000000000000000002d79f1
:103d2c00b3eafffffffffffffffffffffffffffff8
:103d3c00fffffffffcc8822900000000000000000c
:103d4c000000000000000000000000000000000067
:103d5c000000000000000000338adbffffffffffc4
:103d6c00ffffffffffffffffffffffffffffffff57
:103d7c00ffffffffffcb5e0400000000000000000f
:103d8c000000000000000000000000000000000027
:103d9c000000085fcafffffffffffffffffffadd18
:103dac00be9e867c72686a717b93acd1f8ffffff74
:103dbc00ffffffffe05f01000000000000000000bb
:103dcc00000000000000000000000000000e7dec70
:103ddc00ffffffffffffffe19f6a330500000000bc
:103dec0000000000000000000003306fb6faffff77
:103dfc00ffffffc42a0000000000000000000000cc
:103e0c0000000000000000000c79edffffffffff39
:103e1c00ffd17f3000000000000000000000000017
:103e2c0000000000000000000000126cdbffffff30
:103e3c00fff563000000000000000000000000001f
:103e4c000000000056e5fffffffffff49c3500006b
:103e5c000000000000000000000000000000000056
:103e6c00000000000000000000025ae1ffffffff0d
:103e7c00930100000000000000000000000000257d
:103e8c00baffffffffffeb7a0e00000000000000fe
:103e9c000000000000000000000000000000000016
:103eac000000000000000000098ffeffffffa402cd
:103ebc00000000000000000000000067f6ffffff9c
:103ecc00ffeb740b0000000000000000000000007d
:103edc0000000000000000000000000000000000d6
:103eec000000000000000049f2ffffff8e00000000
:103efc0000000000000012aefffffffffb9010005f
:103f0c0000000000000000000000000000000000a5
:103f1c000000000000000000000000000000000095
:103f2c00000000000031ecffffff6000000000000b
:103f3c000000004bffffffffbd2900000000000048
:103f4c000000000000000000000000000000000065
:103f5c000000000000000000000000000000000055
:103f6c000000003cf8fffff01b0000000000000008
:103f7c0000a0fff36801000000000000000000003a
:103f8c000000000000000000000000000000000025
:103f9c000000000000000000000000000000000015
:103fac00006dffffffab00000000000000000fa53c
:103fbc0020000000000000000000000000000000d5
:103fcc0000000000000000000000000000000000e5
:103fdc00000000000000000000000000000001c410
:103fec00fffffe2f0000000000000000000000009a
:103ffc0000000000000000000000000000000000b5
:10400c0000000000000000000000000000000000a4
:10401c000000000000000000000000003dffffff5a
:10402c00a7000000000000000000000000000000dd
:10403c000000000000000000000000000000000074
:10404c000000000000000000000000000000000064
:10405c0000000000000000000000c3fffff60e008f
:10406c000000000000000000000000000000000044
:10407c000000000000000000000000000000000034
:10408c000000000000000000000000000000000024
:10409c000000000000000066ffffff5e0000000053
:1040ac000000000000000000000000000000000004
:1040bc0000000000000000000000000000000000f4
:1040cc0000000000000000000000000000000000e4
:1040dc000000000013feffffa20000000000000023
:1040ec0000000000000000000000000000000000c4
:1040fc0000000000000000000000000000000000b4
:10410c0000000000000000000000000000000000a3
:10411c000000d3ffffe000000000000000000000e2
:10412c000000000000000000000000000000000083
:10413c000000000000000000000000000000000073
:10414c0000000000000000000000000000000099ca
:10415c00ffffff0f00000000000000000000000047
:10416c000000000000000000000000000000000043
:10417c000000000000000000000000000000000033
:10418c0000000000000000000000000075ffffffb1
:10419c0032000000000000000000000000000000e1
:1041ac000000000000000000000000000000000003
:1041bc0000000000000000000000000000000000f3
:1041cc0000000000000000000054ffffff52000040
:1041dc0000000000000000000000000000000000d3
:1041ec0000000000000000000000000000000000c3
:1041fc0000000000000000000000000000000000b3
:10420c0000000000000043ffffff60000000000002
:10421c000000000000000000000000000000000092
:10422c000000000000000000000000000000000082
:10423c000000000000000000000000000000000072
:10424c0000000038ffffff6b0000000000000000c2
:10425c000000000000000000000000000000000052
:10426c000000000000000000000000000000000042
:10427c000000000000000000000000000000000032
:10428c0035ffffff70000000000000000000000080
:10429c000000000000000000000000000000000012
:1042ac000000000000000000000000000000000002
:1042bc000000000000000000000000000045ffffaf
:1042cc00ff6600000000000000000000000000007d
:1042dc0000000000000000000000000000000000d2
:1042ec0000000000000000000000000000000000c2
:1042fc000000000000000000000056ffffff5a0005
:10430c0000000000000000000000000000000000a1
:10431c000000000000000000000000000000000091
:10432c000000000000000000000000000000000081
:10433c000000000000000067ffffff3e00000000cf
:10434c000000000000000000000000000000000061
:10435c000000000000000000000000000000000051
:10436c000000000000000000000000000000000041
:10437c00000000008fffffff1e0000000000000087
:10438c000000000000000000000000000000000021
:10439c000000000000000000000000000000000011
:1043ac000000000000000000000000000000000001
:1043bc0000c7ffffed00000000000000000000003f
:1043cc0000000000000000000000000000000000e1
:1043dc0000000000000000000000000000000000d1
:1043ec000000000000000000000000000006f8ffc4
:1043fc00ffb70000000000000000000000000000fb
:10440c0000000000000000000000000000000000a0
:10441c000000000000000000000000000000000090
:10442c000000000000000000000042ffffff7100d0
:10443c000000000000000000000000000000000070
:10444c000000000000000000000000000000000060
:10445c000000000000000000000000000000000050
:10446c0000000000000000a8ffffff21000000007a
:10447c000000000000000000000000000000000030
:10448c000000000000000000000000000000000020
:10449c000000000000000000000000000000000010
:1044ac0000000016faffffc0000000000000000032
:1044bc0000000000000000000000000000000000f0
:1044cc0000000000000000000000000000000000e0
:1044dc0000000000000000000000000000000000d0
:1044ec0087ffffff530000000000000000000000e9
:1044fc0000000000000000000000000000000000b0
:10450c00000000000000000000000000000000009f
:10451c000000000000000000000000002efaffff69
:10452c00d0020000000000000000000000000000ad
:10453c00000000000000000000000000000000006f
:10454c00000000000000000000000000000000005f
:10455c00000000000000000003cbffffff43000041
:10456c00000000000000000000000000000000003f
:10457c00000000000000000000000000000000002f
:10458c00000000000000000000000000000000001f
:10459c00000000000098ffffff9c000000000000de
:1045ac0000000000000000000000000000000000ff
:1045bc0000000000000000000000000000000000ef
:1045cc0000000000000000000000000000000000df
:1045dc000081ffffffd80d0000000000000000006c
:1045ec0000000000000000000000000000000000bf
:1045fc0000000000000000000000000000000000af
:10460c00000000000000000000000000007dffff23
:10461c00ffec24000000000000000000000000007f
:10462c00000000000000000000000000000000007e
:10463c00000000000000000000000000000000006e
:10464c00000000000000000009a7fffffff036008b
:10465c00000000000000000000000000000000004e
:10466c00000000000000000000000000000000003e
:10467c00000000000000000000000000000000002e
:10468c000000000033cfffffffeb34000000000000
:10469c00000000000000000000000000000000000e
:1046ac0000000000000000000000000000000000fe
:1046bc000000000000000000000000000000000ee0
:1046cc0092fdffffffd5210000000000000000005c
:1046dc0000000000000000000000000000000000ce
:1046ec0000000000000000000000000000000000be
:1046fc00000000000000000000001d8aefffffff1b
:10470c00ff9a0b00000000000000000000000000f9
:10471c00000000000000000000000000000000008d
:10472c00000000000000000000000000000000007d
:10473c00000000000e5aadfbffffffffd846000043
:10474c00000000000000000000000000000000005d
:10475c00000000000000000000000000000000004d
:10476c00000000000000000000000000000d437c71
:10477c00b8f9ffffffffffdd660500000000000039
:10478c00000000000000000000000000000000001d
:10479c0000000000000000005d64646464646464f4
:1047ac0064646466707b86a0c1e2fdffffffffffbf
:1047bc00fff7ad4d030000000000000000000000fa
:1047cc0000000000000000000000000000000000dd
:1047dc000000000000f0ffffffffffffffffffffe7
:1047ec00fffffffffffffffffffffdbe894a090030
:1047fc0000000000000000000000000000000000ad
:10480c00000000000000000000000000000000009c
:10481c000000f0ffffffffffffffffffffffffffa9
:10482c00fffffffffffffffdc89e733c0800000069
:10483c00000000000000000000000000000000006c
:10484c00000000000000000000000000000000f06c
:10485c00ffffffffffffffffffffffffffffffff5c
:10486c00fffffffffffffffffff9c27527000000ee
:10487c00000000000000000000000000000000002c
:10488c00000000000000000000000000000000001c
:10489c0000000000000000020b131b243b556f8925
:1048ac00b2e1ffffffffffffffffc9670a00000037
:1048bc0000000000000000000000000000000000ec
:1048cc0000000000000000000000000000000000dc
:1048dc0000000000000000000000000000000010bc
:1048ec004083cafdffffffffffeb7a0b00000000c7
:1048fc0000000000000000000000000000000000ac
:10490c00000000000000000000000000000000009b
:10491c00000000000000000000000000000000008b
:10492c001262c9ffffffffffe45800000000000007
:10493c00000000000000000000000000000000006b
:10494c00000000000000000000000000000000005b
:10495c00000000000000000000000000000000004b
:10496c002e9dfdffffffffad1100000000000000b9
:10497c00000000000000000000000000000000002b
:10498c00000000000000000000000000000000001b
:10499c000000000000000000000000000000002edd
:1049ac00bbffffffffe02b00000000000000000039
:1049bc0000000000000000000000000000000000eb
:1049cc0000000000000000000000000000000000db
:1049dc0000000000000000000000000000005cf57a
:1049ec00ffffffef3c000000000000000000000093
:1049fc0000000000000000000000000000000000ab
:104a0c00000000000000000000000000000000009a
:104a1c000000000000000000000000002ddbffff84
:104a2c00fff02f000000000000000000000000005c
:104a3c00000000000000000000000000000000006a
:104a4c00000000000000000000000000000000005a
:104a5c000000000000000000000012d2ffffffe584
:104a6c001300000000000000000000000000000027
:104a7c00000000000000000000000000000000002a
:104a8c00000000000000000000000000000000001a
:104a9c00000000000000000018dbffffffb2000068
:104aac0000000000000000000000000000000000fa
:104abc0000000000000000000000000000000000ea
:104acc0000000000000000000000000000000000da
:104adc0000000000000020f1ffffff52000000006a
:104aec0000000000000000000000000000000000ba
:104afc0000000000000000000000000000000000aa
:104b0c000000000000000000000000000000000099
:104b1c000000000067ffffffdc0500000000000044
:104b2c000000000000000000000000000000000079
:104b3c000000000000000000000000000000000069
:104b4c000000000000000000000000000000000059
:104b5c000001bfffffff5900000000000000000033
:104b6c000000000000000000000000000000000039
:104b7c000000000000000000000000000000000029
:104b8c0000000000000000000000000000000039e0
:104b9c00ffffffc600000000000000000000000046
:104bac0000000000000000000000000000000000f9
:104bbc0000000000000000000000000000000000e9
:104bcc0000000000000000000000000000d2ffff09
:104bdc00ff1d0000000000000000000000000000ad
:104bec0000000000000000000000000000000000b9
:104bfc0000000000000000000000000000000000a9
:104c0c00000000000000000000006bffffff6b00c5
:104c1c000000000000000000000000000000000088
:104c2c000000000000000000000000000000000078
:104c3c000000000000000000000000000000000068
:104c4c00000000000000001affffffab0000000096
:104c5c000000000000000000000000000000000048
:104c6c000000000000000000000000000000000038
:104c7c000000000000000000000000000000000028
:104c8c000000000000e4ffffe00000000000000056
:104c9c000000000000000000000000000000000008
:104cac0000000000000000000000000000000000f8
:104cbc0000000000000000000000000000000000e8
:104ccc000000aeffffff0f0000000000000000001e
:104cdc0000000000000000000000000000000000c8
:104cec0000000000000000000000000000000000b8
:104cfc000000000000000000000000000000007c2c
:104d0c00ffffff2d0000000000000000000000006d
:104d1c000000000000000000000000000000000087
:104d2c000000000000000000000000000000000077
:104d3c0000000000000000000000000067ffffff03
:104d4c004a0000000000000000000000000000000d
:104d5c000000000000000000000000000000000047
:104d6c000000000000000000000000000000000037
:104d7c0000000000000000000057ffffff5900007a
:104d8c000000000000000000000000000000000017
:104d9c000000000000000000000000000000000007
:104dac0000000000000000000000000000000000f7
:104dbc0000000000000046ffffff63000000000041
:104dcc0000000000000000000000000000000000d7
:104ddc0000000000000000000000000000000000c7
:104dec0000000000000000000000000000000000b7
:104dfc000000003bffffff68000000000000000007
:104e0c000000000000000000000000000000000096
:104e1c000000000000000000000000000000000086
:104e2c000000000000000000000000000000000076
:104e3c0045ffffff5e0000000000000000000000c6
:104e4c000000000000000000000000000000000056
:104e5c000000000000000000000000000000000046
:104e6c000000000000000000000000000050ffffe8
:104e7c00ff530000000000000000000000000000d4
:104e8c000000000000000000000000000000000016
:104e9c000000000000000000000000000000000006
:104eac000000000000000000000065ffffff410053
:104ebc0000000000000000000000000000000000e6
:104ecc0000000000000000000000000000000000d6
:104edc0000000000000000000000000000000000c6
:104eec000000000000000088ffffff1f0000000012
:104efc0000000000000000000000000000000000a6
:104f0c000000000000000000000000000000000095
:104f1c000000000000000000000000000000000085
:104f2c0000000000acfffff80200000000000000d1
:104f3c000000000000000000000000000000000065
:104f4c000000000000000000000000000000000055
:104f5c000000000000000000000000000000000045
:104f6c0000e4ffffcd000000000000000000000086
:104f7c000000000000000000000000000000000025
:104f8c000000000000000000000000000000000015
:104f9c000000000000000000000000000022ffffe5
:104fac00ff8e000000000000000000000000000068
:104fbc0000000000000000000000000000000000e5
:104fcc0000000000000000000000000000000000d5
:104fdc00000000000000000000006dffffff4f000c
:104fec0000000000000000000000000000000000b5
:104ffc0000000000000000000000000000000000a5
:10500c000000000000000000000000000000000094
:10501c0000000000000000c8fffff20900000000c3
:10502c000000000000000000000000000000000074
:10503c000000000000000000000000000000000064
:10504c000000000000000000000000000000000054
:10505c000000002bffffff9f00000000000000007d
:10506c000000000000000000000000000000000034
:10507c000000000000000000000000000000000024
:10508c000000000000000000000000000000000014
:10509c00a6ffffff3b000000000000000000000026
:1050ac0000000000000000000000000000000000f4
:1050bc0000000000000000000000000000000000e4
:1050cc000000000000000000000000002bfdffffae
:1050dc00c000000000000000000000000000000004
:1050ec0000000000000000000000000000000000b4
:1050fc0000000000000000000000000000000000a4
:10510c00000000000000000002c5ffffff4100008e
:10511c000000000000000000000000000000000083
:10512c000000000000000000000000000000000073
:10513c000000000000000000000000000000000063
:10514c00000000000071ffffffa90000000000003c
:10515c000000000000000000000000000000000043
:10516c000000000000000000000000000000000033
:10517c000000000000000000000000000000000023
:10518c000041fbffffee17000000000000000000d4
:10519c000000000000000000000000000000000003
:1051ac0000000000000000000000000000000000f3
:1051bc00000000000000000000000000002cecffcc
:1051cc00fffe520000000000000000000000000084
:1051dc0000000000000000000000000000000000c3
:1051ec0000000000000000000000000000000000b3
:1051fc000000000000000000002eebffffff850008
:10520c000000000000280200000000000000000068
:10521c000000000000000000000000000000000082
:10522c000000000000000000000000000000000072
:10523c0000000000004cefffffffa7020000000081
:10524c000000a8d965090000000000000000000063
:10525c000000000000000000000000000000000042
:10526c000000000000000000000000000000000032
:10527c000786feffffffab0400000000000000a843
:10528c00fffff09736000000000000000000000057
:10529c000000000000000000000000000000000002
:1052ac0000000000000000000000000046daffffd4
:1052bc00ffff9d050000000000000000a8ffffff9d
:1052cc00ffffde8d3c02000000000000000000002b
:1052dc0000000000000000000000000000000000c2
:1052ec00000000000000004bc3fffffffffb6e003f
:1052fc0000000000000000000052d7ffffffffff7e
:10530c00ffffeead6a280100000000000000000065
:10531c000000000000000000000000000000000081
:10532c00002882dbffffffffffd2360000000000e9
:10533c00000000000000000148aff9ffffffffff75
:10534c00ffffffefbb86542e0a0000000000000098
:10535c00000000000000000000082f5f9edfffff30
:10536c00fffffffff17a05000000000000000000c5
:10537c00000000000000001269befbfffffffffff2
:10538c00fffffffffffee3c6af9882787169656c83
:10539c00737b8ca4bcdafcffffffffffffffffef6a
:1053ac008010000000000000000000000000000061
:1053bc0000000000000000115ca5e6ffffffffffee
:1053cc00ffffffffffffffffffffffffffffffffe1
:1053dc00fffffffffffffffffffdb95a09000000b1
:1053ec0000000000000000000000000000000000b1
:1053fc00000000000000000028669bcefaffffffb3
:10540c00ffffffffffffffffffffffffffffffffa0
:10541c00ffffffdf9e5a1600000000000000000096
:10542c000000000000000000000000000000000070
:10543c00000000000000000000072c4f7293abc06e
:10544c00d4e6eef5fbfef7efe8dac2a98f6c3e115d
:10545c000000000000000000000000000000000040
:10546c000000000000000000000000000000000030
:10547c000000000000000000000000000000000020
:10548c000000000000000000000000000000000010
:10549c0000000000000000000000a2ffffff8400dd
:1054ac0000000000000000000000000000000000f0
:1054bc0000000000000000000000000000000000e0
:1054cc0000000000000000000000000000000000d0
:1054dc0000000000000000000000000000000000c0
:1054ec00000061ffffffff840000000000000000cf
:1054fc0000000000000000000000000000000000a0
:10550c00000000000000000000000000000000008f
:10551c00000000000000000000000000000000007f
:10552c000000000000000000000029f5ffffffff55
:10553c0084000000000000000000000000000000db
:10554c00000000000000000000000000000000004f
:10555c00000000000000000000000000000000003f
:10556c00000000000000000000000000000000002f
:10557c00000009d3ffffffffff84000000000000c4
:10558c00000000000000000000000000000000000f
:10559c0000000000000000000000000000000000ff
:1055ac0000000000000000000000000000000000ef
:1055bc0000000000000000000000009affffe5f270
:1055cc00ffff84000000000000000000000000004d
:1055dc0000000000000000000000000000000000bf
:1055ec0000000000000000000000000000000000af
:1055fc00000000000000000000000000000000009f
:10560c0000000057ffffff49e4ffff84000000008b
:10561c00000000000000000000000000000000007e
:10562c00000000000000000000000000000000006e
:10563c00000000000000000000000000000000005e
:10564c00000000000000000000000023f1ffffa597
:10565c0000ecffff840000000000000000000000d0
:10566c00000000000000000000000000000000002e
:10567c00000000000000000000000000000000001e
:10568c00000000000000000000000000000000000e
:10569c0000000006ccffffeb1400f3ffff840000ba
:1056ac0000000000000000000000000000000000ee
:1056bc0000000000000000000000000000000000de
:1056cc0000000000000000000000000000000000ce
:1056dc0000000000000000000000000091ffffff30
:1056ec00580000f9ffff84000000000000000000db
:1056fc00000000000000000000000000000000009e
:10570c00000000000000000000000000000000008d
:10571c00000000000000000000000000000000007d
:10572c00000000004fffffffaf000000fcffff84f4
:10573c00000000000000000000000000000000005d
:10574c00000000000000000000000000000000004d
:10575c00000000000000000000000000000000003d
:10576c000000000000000000000000001eeeffff23
:10577c00ec17000000ffffff840000000000000099
:10578c00000000000000000000000000000000000d
:10579c0000000000000000000000000000000000fd
:1057ac0000000000000000000000000000000000ed
:1057bc000000000004c6ffffff5600000000ffffc2
:1057cc00ff8400000000000000000000000000004a
:1057dc0000000000000000000000000000000000bd
:1057ec0000000000000000000000000000000000ad
:1057fc000000000000000000000000000088ffff17
:10580c00ffa30000000000ffffff84000000000069
:10581c00000000000000000000000000000000007c
:10582c00000000000000000000000000000000006c
:10583c00000000000000000000000000000000005c
:10584c00000000000047feffffde0e00000000001d
:10585c00ffffff84000000000000000000000000bb
:10586c00000000000000000000000000000000002c
:10587c00000000000000000000000000000000001c
:10588c000000000000000000000000000019eaff0a
:10589c00fffb37000000000000ffffff840000004a
:1058ac0000000000000000000000000000000000ec
:1058bc0000000000000000000000000000000000dc
:1058cc0000000000000000000000000000000000cc
:1058dc00000000000002beffffff76000000000089
:1058ec000000ffffff84000000000000000000002b
:1058fc00000000000000000000000000000000009c
:10590c00000000000000000000000000000000008b
:10591c0000000000000000000000000000007ffffd
:10592c00ffffb60100000000000000ffffff840035
:10593c00000000000000000000000000000000005b
:10594c00000000000000000000000000000000004b
:10595c00000000000000000000000000000000003b
:10596c000000000000003ffcffffe41400000000fa
:10597c0000000000ffffff8400000000000000009a
:10598c00000000000000000000000000000000000b
:10599c0000000000000000000000000000000000fb
:1059ac00000000000000000000000000000015e5f1
:1059bc00fffffc3e000000000000000000ffffffa6
:1059cc008400000000000000000000000000000047
:1059dc0000000000000000000000000000000000bb
:1059ec0000000000000000000000000000000000ab
:1059fc0000000000000001b7ffffff7b000000006b
:105a0c00000000000000ffffff8400000000000009
:105a1c00000000000000000000000000000000007a
:105a2c00000000000000000000000000000000006a
:105a3c0000000000000000000000000000000077e3
:105a4c00ffffffba0200000000000000000000ff92
:105a5c00ffff8400000000000000000000000000b8
:105a6c00000000000000000000000000000000002a
:105a7c00000000000000000000000000000000001a
:105a8c000000000000000039fbffffe716000000db
:105a9c000000000000000000ffffff840000000079
:105aac0000000000000000000000000000000000ea
:105abc0000000000000000000000000000000000da
