:1000000040100020D107000105220001BD070001BA
:10001000BD070001BD070001BD0700010000000091
:10002000000000000000000000000000C108000106
:10003000BD070001000000005D0800013D10000147
:10004000450A0001450A0001450A0001450A000170
:10005000450A0001450A0001450A0001450A000160
:10006000450A0001450A0001450A0001450A000150
:10007000450A0001450A0001450A0001450A000140
:10008000450A0001450A0001450A0001450A000130
:10009000450A0001450A0001450A0001450A000120
:1000A000450A0001450A0001450A0001450A000110
:1000B000450A0001450A0001450A0001450A000100
:1000C000450A0001450A0001450A0001450A0001F0
:1000D000450A0001450A0001450A0001450A0001E0
:020000024000BC
:105E8800FFFF000000400E8438FF745F3B4410148D
:085E98000B0000710200008004
:045EBC0000000010D2
:045EDC00FFFFFF7F46
:105F8800FFFF000000400E8438FC745F3844101492
:085F980003000071000000008D
:045FBC0000000010D1
:045FDC00FFFFFF7F45
:020000020000FC
:020000040100F9
:1000000053B94AB9002908BF00281CBF4FF0FF317F
:100010004FF0FF3000F00CB8ADF1080C6DE904CEE4
:1000200000F008F8DDF804E0DDE9022304B07047D1
:10003000704700BF2DE9F04786468C460846089E6B
:10004000154674461946002B40F0C2808542B2FA2C
:1000500082F245D94AB1C2F1200300FA02FC2EFA1D
:1000600003F3954043EA0C0C94404FEA154EA8B2B6
:10007000BCFBFEF8230C0EFB18CC08FB00F943EA8E
:100080000C43994528D9EB1808F1FF3704D299455C
:1000900002D9A8F102072B44A3EB0903A4B2B3FBD6
:1000A000FEFC0EFB1C330CFB00F044EA0344A042B0
:1000B00014D92C190CF1FF3304D2A04202D9ACF1AF
:1000C00002032C44241A43EA07401EB1D440002303
:1000D00034607360BDE8F0874746DDE76346F1E7CB
:1000E00092BB431B01214FEA154EAFB2B3FBFEFC9E
:1000F000200C0EFB1C330CFB07F840EA0343984529
:1001000062D9EB180CF1FF3004D2984502D9ACF15A
:1001100002002B44A3EB0803A4B2B3FBFEFC0EFBCE
:100120001C330CFB07F744EA0344A7424ED92C19B1
:100130000CF1FF3304D2A74202D9ACF102032C44E4
:10014000E41B43EA0040C0E7C2F1200320FA03F1B8
:10015000954090402EFA03F303434FEA154EAFB299
:10016000B1FBFEFC0EFB1C10190C0CFB07F841EA5E
:100170000041884504FA02F422D969180CF1FF30D5
:1001800004D2884502D9ACF102002944A1EB080150
:100190009BB2B1FBFEFC0EFB1C110CFB07F743EA04
:1001A00001439F420ED9EB180CF1FF3104D29F425C
:1001B00002D9ACF102012B44DB1B41EA004192E77A
:1001C0006046E3E76146F7E76046A3E76346B7E7C3
:1001D000834206D916B9002108467BE7C6E900E04C
:1001E000F9E7B3FA83F78FB9834201D3724508D890
:1001F000BEEB020460EB030301209C461EB9002104
:1002000068E73846FAE7C6E9004CF8E7C7F1200C82
:10021000BB4022FA0CF41C432EFA0CF120FA0CF32A
:10022000B84001434FEA14490EFA07F5B3FBF9F859
:100230001FFA84FE09FB18300B0C08FB0EFA43EA88
:1002400000439A4502FA07F240D9E31808F1FF305B
:1002500004D29A4502D9A8F102002344A3EB0A0371
:1002600089B2B3FBF9F809FB183308FB0EFE41EA2B
:1002700003418E452CD9611808F1FF3304D28E4515
:1002800002D9A8F10203214443EA0040A0FB0298EE
:10029000A1EB0E014145CE46434602D306D14D4562
:1002A00004D2B9EB020E68EB04030138002EA6D08D
:1002B000B5EB0E0261EB030101FA0CFC22FA07F325
:1002C0004CEA0303F940C6E9003198E74046C5E728
:1002D0004346D9E708B50349034801F0A1FC0020D3
:1002E00008BD00BF5C2A0001802A0001014B1B6889
:1002F000184700BF00000020014B1860704700BF86
:100300000000002030B585B004460D4610220021C3
:10031000684602F000FA02238DF802302A46044BA8
:1003200001932146684601F08DFC05B030BD00BF49
:10033000ED02000180B505460E461746984601F0CD
:1003400081FA034602F052FADFF81890044649F8A1
:100350000030424630463946A84754F8090000F0BC
:100360004FFA00BF080000004FF08842D2F8003179
:100370009805FBD53D4B0022596AC90702F10102DD
:100380000ED4B2F5FA5FF7D15A6AD0070BD45A6887
:1003900042F480725A60354A536AD907FCD502E0AC
:1003A000B2F5FA5FF0D0324AB2F8BA3403F0FD0386
:1003B000A2F8BA342D4B0022596A01F00301032937
:1003C00002F1010212D0B2F5FA5FF5D15A6A02F0D9
:1003D0000302032A0DD05A6842F400725A60234A7D
:1003E000536A03F00303032BFAD102E0B2F5FA5F7C
:1003F000ECD04FF088430022C3F8B0201D4AC3F868
:10040000B02002F12B42A2F54B12A2F6AB42C3F888
:10041000B02003F52063184A1A624FF480721A6004
:1004200001229A601A68D207FCD448F20902C3F884
:10043000502140F201221A674FF400429A674FF0B0
:1004400088430E4AC3F8C02047F6FF72C3F8E02085
:100450004FF03332C3F8B020044B5A6842F0100218
:100460005A604FF088721A60704700BF0040014127
:1004700000200141556699AA080101C0DF01012051
:1004800008B5FFF771FF054A136823F49F7323F043
:10049000010343F01103136008BD00BF00240144B1
:1004A000014B0360002070477C29000130BFFFF73B
:1004B000FDBF00BF2DE9F0410B4EDFF8308006EBA9
:1004C0000807CC1B054632460949204602F015F9BB
:1004D000A01942460021083C02F01DF92C6707F1E3
:1004E0000800BDE8F08100BF00000000040000002B
:1004F0007C290001074A936893F90E10002907DB55
:10050000526993421FBF044A536843F080535360BB
:10051000704700BF2402002000ED00E070B5264BBC
:1005200015469A6A12F0100F9A6A14BF112410240B
:1005300012F0080F9A6A18BF1224920706460AD5CD
:10054000586B9A6A140634D519B19A6A22F080025F
:100550009A62132401E06FF01500174B9A6A12F0AB
:10056000010F9A6A18BF142412F0200F9A6A18BF5C
:100570001524D20602D49B6A9B070AD50E4B5B68F2
:10058000190506D5314600F013FA10B180F3098839
:100590000224094B9A6A920642BF5A6A22F4005218
:1005A0005A629A6A42F0FF029A6200232B70204638
:1005B00070BD6FF01500CCE700ED00E0134B9A6AB8
:1005C00012F0007F9A6A14BF1E201D2012F0807F57
:1005D0009A6A18BF1F2012F4002F9A6A18BF2120B0
:1005E00012F4802F9A6A18BF222012F4003F9A6AF0
:1005F00018BF232012F4803F9A6A6FEA02426FEA22
:1006000012429A6218BF2420704700BF00ED00E03C
:1006100010B5194B0246986A9C6A10F4805F14BFAB
:100620001720162014F4006F9C6A18BF1820A40528
:1006300009D5986B986A000404D51AB19A6A22F415
:1006400000429A6219200C4B9A6A12F4806F9A6ADF
:1006500018BF1A20D2050CD49B6A13F4005F18BF90
:100660001C20054A936A43F47F43936200230B7076
:1006700010BD1B20F5E700BF00ED00E0F0B5484BD2
:100680005B688BB00446C3F30803002585F311882B
:10069000BFF36F8F02F07F40B0F17F4F11D102F0B6
:1006A0000C0008280DD010074CBF0C460125002275
:1006B000033B8DF80720032B05D8DFE803F0246304
:1006C00067602C46F3E700239DF80720CAB902AE05
:1006D00004F1200720686168324603C20834BC4236
:1006E0001646F7D1099A002D54D0C2F3080121B95A
:1006F0006FEA52226FEA4222099202A9184601F0DB
:1007000077FD0BB0F0BD264BDA6A9107DBD4DA6ACD
:10071000002AD8DBDA6A5200D5D55A69A16942F4B9
:1007200080725A61BFF34F8FBFF36F8F5A6931F8F0
:10073000021C22F480725A61BFF34F8FBFF36F8F98
:100740004DF6027291420AD09A6AD2B24AB10DF1C4
:10075000070201212046FFF7E1FE0346B4E72368C4
:10076000B2E79A6A12F47F4F05D00DF1070101201C
:10077000FFF74EFFF1E79B6AB3F5803FA3D3FFF786
:100780001DFFEAE70DF107020021E3E70DF1070184
:100790000020EDE722F4FF7222F00102ACE700BF77
:1007A00000ED00E0044B5A6942F010025A615A69A8
:1007B00022F008025A61704700ED00E0EFF3088074
:1007C000EFF3098101B57246FFF758FF01BD00BF85
:1007D000FFF756FE202080F3118808484FF404618B
:1007E000401880F30988EFF314800221084380F356
:1007F0001488BFF36F8F00F09BF800008002002088
:10080000084B9B6883420BD1EFF3058343B1064B42
:100810005A6842F080525A605A6A22F400425A6280
:1008200001F02CBF2402002000ED00E0094A93688B
:100830006FF00A019967084958674B6843F0805385
:100840004B60002383F31188BFF36F8F9368986F19
:10085000704700BF2402002000ED00E015498A68BF
:100860004FF030001044EFF3098C80E8F01F202097
:1008700080F31288BFF36F8F0F4F4FF000664A6905
:100880008A603E604FF07004141920680B4C2060A1
:10089000506F0023536780F3118804B5104600F0B1
:1008A000EFF8BDE8044002F1300090E8F01F8CF34F
:1008B000098870472402002004ED00E0E8010020D0
:1008C0001EF0040F0CBFEFF30880EFF3098081697D
:1008D00011F8021C0229FFD001B5724601F08EFC0E
:1008E00001BD00BF40B2002807DB044A41090123D3
:1008F00000F01F00834042F82130704700E100E023
:1009000040B20028A8BF00F1604001F10101B8BF6A
:10091000064B4FEA4111ACBF00F5614000F00F00FB
:10092000C9B2B4BF195480F80013704714ED00E049
:100930000F4A08B50F4B22F07F029A60BFF34F8F2A
:10094000BFF36F8FD3F8882022F47002C3F8882099
:10095000EFF3148323F0040383F31488BFF36F8F42
:1009600000F0C6FC00F0FAFF00F060F800F004FDB3
:100970000000000000ED00E042F8203C009B42F83F
:100980001C3C0A49019B42F8183C029B42F8143C6B
:1009900021F001014FF0807342F8043C42F8081C3A
:1009A0000023203A02654367704700BF350300010A
:1009B000094A0346906870B113F1160F006E05D016
:1009C000A0F140029A4205D8834203D2814228BF57
:1009D00000207047002070472402002008B515460B
:1009E0000B4A0C4B9060026F1A600E4600F048F8FC
:1009F0002C4686F309884FF00000074B98472046A5
:100A00004FF000014FF000024FF00003034C20476D
:100A100024020020E80100201B2200013503000110
:100A2000014B10221A61704700ED00E004480023DA
:100A30002021C2180133282B82F80013F9D1704706
:100A400000E100E008B5EFF30583064A103B02EB36
:100A5000C30152F8330049688847BDE80840FFF7F2
:100A600049BD00BF3C280001024B034A0348012155
:100A700000F076B800000220000000207C29000170
:100A8000026E054B403A1A60044A4021C3E9011244
:100A90001846012100F06EB8EC01002000000B1593
:100AA000084AC2F898000B6823F01F03034343F081
:100AB0001003C2F89C308B6843F00103C2F8A030E9
:100AC000704700BF00ED00E02DE9F043DFF86080E3
:100AD00085B00E461F4604464FF00009B14523DAA3
:100AE0006068D8B13FB1411E08421BD11F2819D9F7
:100AF0002368194216D12368019301F0A2FBA36871
:100B000003430393D8F89050C5F30725D0B2013DB5
:100B1000A84207D801A9FFF7C3FF421C09F1010948
:100B20000C34DBE76FF01502104605B0BDE8F0832A
:100B300000ED00E0044B0522C3F89420BFF34F8F73
:100B4000BFF36F8F704700BF00ED00E0BFF35F8F12
:100B5000024B0022C3F89420704700BF00ED00E074
:100B600010B5034C01232278FFF7AEFF207010BDB3
:100B70005402002008B50B4A00231278FFF7A4FFA7
:100B800010F1160F07D0084A0021D2F89030C3F3B5
:100B90000723984200DB08BDC2F89800C2F8A010F5
:100BA0000130F2E75402002000ED00E02DE9F043AF
:100BB000534B544CD3F890302568C3F307239D4220
:100BC00085B000F29A80FFF7C1FF00200C26854215
:100BD0001AD14D4C4D4F25706846FFF761FCDFF888
:100BE0002081DFF82C9106460025AE4213D12378F0
:100BF00043490020D1F89020C2F30722934276DBCC
:100C0000FFF798FF002042E0616806FB0011FFF744
:100C100047FF0130DBE7009800EB05114FEA051CA8
:100C2000CB683B40B3F5000F48D00AD8B3F5001F9E
:100C300030D0B3F5800F36D0B3F5801F10D001351A
:100C4000D3E7B3F1807F42D0B3F1007FF7D150F802
:100C50000C3088684A6801F0F4FA40F4802009E01A
:100C600050F80C3088684A6801F0EBFA40F0885080
:100C700040F43020CDE901230390D8F8903020785B
:100C8000C3F30723013B98422AD96FF0150005B042
:100C9000BDE8F08350F80C3088684A6801F0D1FA5A
:100CA00040EA0900E6E750F80C3088684A6801F02D
:100CB000C8FA40F0E06040F40030DBE750F80C3058
:100CC00088684A6801F0BDFA40F08270D2E750F8B7
:100CD0000C3088684A6801F0B4FA40F08870C9E7BF
:100CE00001A9FFF7DDFE237801332370A7E7C1F8E0
:100CF0009830C1F8A00001337CE74FF0FF30C6E721
:100D000000ED00E088290001540200200000F0FFFF
:100D10000000081108B5024B1B689847002008BD69
:100D2000F8010020034B044A1860937843F0020353
:100D300093707047F80100200400002008B50649B0
:100D4000064821F00701C1F1005202F5003201F01E
:100D500002FA002008BD00BF87140020FC0100201B
:100D600008B5074801F004FC38B10648FFF7DAFF80
:100D70000448FFF7C1FA002008BD6FF01200FBE73E
:100D800028280001890D00010A2838B5074D0446BE
:100D900004D1AB680D215B6828469847AB680348CF
:100DA0005B68E1B29847204638BD00BF28280001A3
:100DB00008B50379053983B904291AD80E4B5B5C51
:100DC00001684A6822F007024A60026851680B43D2
:100DD000536001F0F9FA002008BD042909D802681F
:100DE000064B595C536823F007035360026853684D
:100DF000EDE74FF0FF30EFE7A02A0001A02A000145
:100E000038B504461248134A0B0518184FEA113535
:100E10004FF0000345F10001FFF7F2F84FF6FF72C3
:100E2000431E61F10001934271F100010DD222686D
:100E3000116821F4604111602268404283B29381BD
:100E4000204601F0C1FA002038BD6FF02100FBE719
:100E50000048E8010090D0032DE9F0414468534A6E
:100E6000A36807699342064604F1080572D14FF062
:100E700088431A6E42F410421A664FF400329A61A7
:100E8000D3F8E02022F00102C3F8E020A368BF22DB
:100E90001A750023FB7121792846FFF789FF237912
:100EA000BB716179284601F0B4FA63793B71A1798D
:100EB00001F0D7FAA3797B71A168D4E9042308680B
:100EC000120520F44C1002F440121B04024303F4F8
:100ED000403313430B60284601F076FAA3681A6882
:100EE00042F000521A6001F06FFAA268217B136889
:100EF00023F01C03002955D02846136001F064FA42
:100F0000A3681A6842F080421A6001F05DFA01F0AD
:100F10005BFAA3685A6842F400325A6001F054FA4E
:100F200001F052FAA3685A6842F480325A6001F024
:100F30004BFA2168FFF764FF804640B923683B60A5
:100F40003046A36998470121284601F048FA4046F7
:100F5000BDE8F081164A93420DD14FF088431A6ED6
:100F600042F410421A664FF480229A61D3F8E020CE
:100F700022F0020288E70F4A934287D14FF088435C
:100F80001A6E42F410221A66D3F8E02022F008020A
:100F9000C3F8E02003F5805303229A670922C3F8BF
:100FA000802273E743F00403A6E700BF000C004073
:100FB000001000400010004210B54FF0E0230F4930
:100FC0009C691A6908689B690D4902F4803234B93A
:100FD00093B903464AB90A681044C01A10BD002BE1
:100FE00008BF03460AB9A342F5D90A6802440A6059
:100FF0004FF0E0221269EEE70446F3E720020020FA
:101000001C0200200A4B202283F82320094B4FF4B6
:10101000C8521A60084B002018604FF0E02341F6D8
:10102000FF025A6198611A6942F007021A6170471B
:1010300000ED00E0200200201C020020684620F0A5
:1010400007018D4619B5FFF7B7FF114B1149D3E9D9
:1010500000420868001942F10002C3E900020E4A8A
:1010600000230B60D2E900414FF4C853001BB0FBD2
:10107000F3F043431B1941F10001C2E9003100F0D4
:1010800049FDFFF737FABDE819408546704700BFB4
:10109000400000201C020020380000202DE9F04113
:1010A000DFF8DC8099B1421C0BD14FF0E0221369CC
:1010B00023F0010313614FF07F43C8F80030BDE80F
:1010C000F081D8F80060012807DC00270BE0431C02
:1010D000D8F80060F7D140F63C2040F63D23984216
:1010E000A8BF1846471EEFF31185202383F312880B
:1010F000BFF36F8FFFF760FF224C4FF0E023996939
:10110000D4E90023801843F10003C4E900031E4B17
:1011100000221A601D4B1A68831A2ED44FF4C85C43
:101120000CFB073303F5C7531F33B3FBFCF7131A4C
:101130000CFB0733B3F5806F154A38BF4FF480635B
:10114000934228BF13464FF0E022C8F80030013B1D
:1011500090695361002393618142A1EB0003D4E9BC
:10116000001238BF9B195B1842F10002C4E900323B
:1011700085F31188BFF36F8FA1E74FF48063E2E737
:1011800020020020400000201C0200203800002027
:1011900000DCFF0038B5EFF31185202383F31288BC
:1011A000BFF36F8F084B1C68084B1B68E41AFFF7EE
:1011B00003FF85F31188BFF36F8F4FF4C8532044AA
:1011C000B0FBF3F038BD00BF400000203800002025
:1011D00038B5EFF31185202383F31288BFF36F8FA7
:1011E000064B9C6801F0D7F985F31188BFF36F8F28
:1011F0002046BDE83840FFF703BB00BF24020020B3
:1012000038B5094B53F82040013053F82050A5421F
:1012100000D838BD636823B1204601F0BFF9083417
:10122000F5E723689847FAE7442A000170B52B4B8D
:101230002B4C2C4D012286B003201A70FFF7E0FFE3
:1012400000F0D6FC01F0C6F90420FFF7D9FF2646CE
:10125000AE4204F1300410D300F0A4FA204C224E28
:10126000AC4226D300F0B2FAFFF734F81F4A137BE2
:1012700023F00103137306B070BD54F80C3C0593C2
:1012800054F8103C049354F8143C039354F8183C5D
:10129000029354F81C3C019354F8203C009354E909
:1012A0000A2354E90C0100F0D5F854F8303C5E658F
:1012B000CDE7D4E90A23B3F1FF3F08BFB2F1FF3F06
:1012C00005D052EA0301206803D101F08FF93034D0
:1012D000C6E73146183000F0A3FBF8E755020020BE
:1012E0007C2900017C29000175260001C80000202E
:1012F00008B50348034A0021121A01F067F908BD36
:10130000380000205802002070B5002386B001226A
:10131000CDE90423134E144D01930F22CDE902327F
:101320001249142303FB005506EBC01604464FF484
:10133000C07000FB04110E4B00954FF4A0723046B4
:1013400000F088F8737B0B4AEE6023F0040373739C
:101350004FF4046304FB033313442C746B6006B036
:1013600070BD00BF4800002024020020C00A0020F9
:10137000D725000180020020BFB50020FFF740FF05
:101380002C4B83F308882C4D2C4E6B692C4F43F467
:1013900000736B610024E02385F82230EC772C7613
:1013A0006C76AC7685F820406B6A43F4E0236B6280
:1013B000FFF7F8F9FFF734FB4FF0FF33AB62EB6256
:1013C000204DFFF7F3FBFFF74FFB40F201132846D8
:1013D000AB81C5E9184400F005FCB56001F0C7F821
:1013E0000120FFF70DFF0220174DFFF709FF00F066
:1013F00021FA164B75610593012315490094CDE937
:1014000003434FF480623B46CDE90144284600F097
:1014100021F86A7B064622F0040228466A7301F02E
:10142000F9F82046FFF770FF3A4631462846FFF7A5
:10143000D5FA00BFC00A002000ED00E02402002021
:101440002D12000148010020C8000020B52A00012B
:10145000400C00202DE9F043073285B022F007024E
:101460000E461F461099017300F158037F32C0E900
:1014700016330446002322F03F02042183604173A7
:101480003F2A0F98A073C4E90633E37306F14009BD
:10149000A2F1400805D883F31188BFF36F8F084687
:1014A00002DFB51829462046FFF704F807300E9BE7
:1014B00020F00700A066C4E9189802930D9B0193E1
:1014C0002D1A0C9B00932A463B4631462046FFF7D7
:1014D00053FA00236365044B9B6803B1DB6EE3663C
:1014E000284605B0BDE8F0832402002070B590F9CD
:1014F0000D30427B002B36DBD10634D18369002BC3
:1015000031D11C4C62F07F024273224652F8181F00
:10151000914218BF0B46E16923B9C0E90021086078
:10152000E0610CE090F90E5093F90E60B5421BD0CB
:10153000AE4219DD5968C0E9003108605860A569FC
:10154000954200D005B9E568A3685A7BD20604D15C
:10155000DA897F2A01D9AA6952B1AB4202D0284662
:1015600000F0A4F9656170BD9942D6D01B68D3E73D
:101570006361F8E7240200202DE9F843002A427B4A
:101580000CBF4FF010094FF0080919EA020F04468A
:101590000F4621D149EA0203D2092AD14373B9F196
:1015A000080F2CD04FF00008354E334653F8185F23
:1015B0009D4200D005B9F568B368AB4202D0284619
:1015C00000F074F9B9F1100F756144D1BFF35F8F6A
:1015D000637B23F060036373294B9B68A34249D16B
:1015E000EFF30583002B45D13846BDE8F843FFF7FC
:1015F0001DB903F07F03437300F0FAFFCFE7A36840
:1016000013B1204600F0FCFF04F1180001F058F877
:10161000A56D04F15806AE4211D04FF0000875B127
:10162000284600F0EDFF05F1180001F049F8C5F873
:1016300078802846FFF75AFFA56DAE42EFD1104BD8
:101640009B689C42AED1EFF30588B8F1000818BF43
:101650004FF00108A8E7B8F1000FB7D0094D40F2EC
:101660000113AB8128460023C5E9183300F0BAFA0C
:10167000B560ABE787F31188BFF36F8FBDE8F883E0
:10168000240200204801002070B590F90D20437B12
:10169000002A014604DA03F07F03437300F0A8FF39
:1016A0004B7B1D4C63F07F0322464B7352F8183F6F
:1016B000E069934208BF002323B9C1E9002001601B
:1016C000E1610CE091F90E5093F90E60B5421ED025
:1016D000AE421CDD5868C1E9003001605960A5695F
:1016E000A368954200D005B9E5688B4207D05A7BC4
:1016F000D20604D1DA897F2A01D9AA692AB1AB427C
:1017000002D0284600F0D2F82B46636170BD9842A3
:10171000D3D01B68D0E700BF2402002049B9EFF303
:10172000058030B9054B5A699B689A4201D0FFF792
:101730007DB881F31188BFF36F8F704724020020BA
:1017400010B5EFF31184202282F31288BFF36F8F5C
:10175000427B510704D484F31188BFF36F8F10BD0F
:1017600022F004024273FFF7C1FE21460248BDE8A1
:101770001040FFF7D3BF00BF56020020034648B910
:10178000EFF3058232B9064A51699268914201D05D
:10179000FFF74CB883F31188BFF36F8F704700BF1A
:1017A00024020020EFF31181202383F31288BFF37A
:1017B0006F8F054B9A68D37B013BD37381F31188FC
:1017C000BFF36F8F704700BF2402002070B5EFF3A6
:1017D0001186202383F31288BFF36F8F144DAB68FB
:1017E000DA7B0132DA732A4652F8184F944200D05D
:1017F00004B9EC685A7BD20604D1DA897F2A01D970
:10180000A2692AB1A34202D0204600F04FF8234635
:101810006B6186F31188BFF36F8FEFF31180202384
:1018200083F31288BFF36F8FBDE87040FFF7A6BF48
:1018300024020020024B03F11802C3E9062270477C
:1018400024020020014B9868704700BF240200204A
:10185000044BC01A044BC0105843044B01221A54C5
:10186000704700BFC8010020ABAAAAAA56020020F8
:10187000C3897F2B12D80A4B1B6863B1094B90F9BF
:101880000E201B689A4209DB437BDB0606D1064B20
:10189000C31A18BF012303F0010070470023FAE7C1
:1018A0004C020020480200204800002070B50E4B7A
:1018B0000E4C1E7C06EB460304EBC3040546204693
:1018C00000F0FEFE0A4B002228469A55FFF7D0FF93
:1018D00048B1084B08491A68013A2046D317BDE8B9
:1018E000704000F09DB870BD24020020C8010020A7
:1018F000560200204C0200205118000138B5EFF3C9
:101900001185202383F31288BFF36F8F104B114A88
:101910009C681068A04206D1FFF7C8FF85F31188C4
:10192000BFF36F8F38BD00211B7C11600A4AD35C66
:10193000002BF3D02046FFF79BFF0028EED0637BFF
:10194000DB0602D12046FFF79FFE2046E4E700BFFA
:101950002402002044020020560200200748084AC2
:10196000084908B5121A00F033FE0748074A08492B
:10197000BDE80840121A00F02BBE00BF0000002096
:1019800034000020F82A00010000002000000020A0
:10199000F82A0001034B1B680BB9FFF7FBBB0020C3
:1019A000704700BF5002002030B570B10B4B5B6830
:1019B00098420AD0036843B1D3E90421D0E9044531
:1019C000121941EB0501C3E90421D0E9003213608B
:1019D0005A600023C0E9003330BD00BF140000206E
:1019E00010B50E4B1C689C4204D1FFF7D3FF6FF07B
:1019F000004010BDFFF7CEFF002CF8D0D4E9043230
:101A00001B1A62EBE072B3F1004F72F10001EEDAE3
:101A1000002AACBF18460020EBE700BF14000020EE
:101A2000B3F1FF3F08BFB2F1FF3FF8B504461D46D2
:101A300016465ED08160EFF31187202383F312886E
:101A4000BFF36F8F013275F1FF3324DA2E49D1E9EC
:101A500000206FF001039B1A4FF0FF3262EB000091
:101A60009E1B60EB0500012E70F1000301DA0126D8
:101A70000020C4E90460254ED6F800C07568B4455E
:101A800008BF4FF0000CBCF1000F0DD1C4E9006598
:101A90002C6074601CE0FFF77DFF013645F1000506
:101AA000361845EBE070E4E7DCE90420D4E90431C2
:101AB000934271EB000E1DDAD21ADCF8043060EBB1
:101AC0000100CCE90420C4E900C31C60CCF8044048
:101AD0003368B34209D09C4207D10D4B1C6824B92E
:101AE000FFF77EFF2146FFF7D9FA87F31188BFF38E
:101AF0006F8FF8BD9B1A61EB0001AC45C4E904315E
:101B0000C4D0DCF800C0BEE7E001002014000020D3
:101B1000500200202DE9F84FEFF3118C202383F3BE
:101B20001288BFF36F8FDFF8B0A0DFF8B0902C4FB2
:101B3000C9F80000DAF800000024504508BF002072
:101B40000025D7E90021D9F80030E04678B3D0E984
:101B5000046C4FEAE37EB3427EEB0C0B05DAF61A17
:101B60006CEB0E04C0E9046421E0B21841EBE671AD
:101B7000C0E90445C7E90021FFF716FF88F3118883
:101B8000BFF36F8F83689847EFF31188202383F3A7
:101B90001288BFF36F8FD9F80030DAF800009B1B72
:101BA0005045C446C9F80030CBD1D7E900219A1876
:101BB00041EBE3730024C7E90023C9F80040FFF7B5
:101BC0000FFF2146FFF76AFA88F31188BFF36F8F82
:101BD000BDE8F84FFFF792BE14000020500200202D
:101BE000E0010020014BC366704700BF20000020C9
:101BF000014800F0EFBA00BFBA2A000138B5064C20
:101C0000064DAC4201D3002038BDD4E90112204674
:101C100000F06BFD1434F4E72000002034000020B5
:101C20000FB407B5064B04AA186852F8041B0192BA
:101C300000F008F803B05DF804EB04B0704700BF93
:101C4000A82900012DE9F04F8DB0436802938378F5
:101C500015469A07804640F10D8100240E78002E2B
:101C600000F00A81252E0BD04B1C03930134029BFC
:101C70004146304698470028C0F2F6800399EDE7C8
:101C80004E788B1C252E0393F0D00027B946BB4617
:101C9000BBF11F0F38D8A6F12003102B0AD8DFE8BC
:101CA00003F02A0909300909092109090928092D20
:101CB00009091F00A6F13003092B33D92A2E37D189
:101CC0001BF0400F55F8043B40F08280002BA7BF6B
:101CD0004BF0200B9946C3F100094BF0280B01E0B3
:101CE0004BF0010B039B13F8016B0393002ECFD134
:101CF00030E04BF0020B4BF0040BF3E74BF0080B1A
:101D0000F0E74BF0100BEDE7BBF17F0F19D8A6F110
:101D10003003092BD2D81BF0400F03D00A2101FB5E
:101D20000737DFE70A2101FB09394BF0200BD9E720
:101D30002E2E06D11BF0400F40F09E804BF0400B42
:101D4000D0E76C2E31D02BD8682E36D06A2E3CD0FE
:101D50004C2E3AD0002F46F02003B8BF2BF04002A3
:101D6000A3F16501BCBF1FFA82FB0027022901D93C
:101D7000612B2FD1073525F00705DFF8ACA2083518
:101D800007271BF0080F66D00AEB070B56465E4587
:101D900063D1A4EB0A0A06EB0A02A9EB07096FE17B
:101DA000742E9FD07A2E9DD0D4E71BF0800F18BFE1
:101DB0004BF4007B4BF0800B94E71BF4807F18BF43
:101DC0004BF4007B4BF4807B8CE74BF4207B89E762
:101DD0001F4687E7A6F16301122900F2F080DFE8D1
:101DE00011F013004F00EE00EE00EE00EE004F0089
:101DF000EE00EE00EE00EE00EE00FE00E900EE0068
:101E0000EE001B00EE00AF0055F8043B8DF81830D3
:101E100001270DF1180AB4E755F804AB834BBAF16A
:101E2000000F08BF9A461BF0400F14BF39464FF011
:101E3000FF31504600F077FC0746A2E7029B41467F
:101E40002020984700280FDB013EB742F6D34C44D0
:101E5000A41BB14698E74E46F7E716F8010B029B24
:101E600041469847002892DA98F8023043F004037C
:101E700088F802304FF0FF3420460DB0BDE8F08FF7
:101E80001BF0800F34D01BF4007F2CD0073525F0D9
:101E90000705AA4669685AF8080B2BF010050029B7
:101EA000ADB237DA404261EB410145F480650DF196
:101EB000180B0A235A4600F042FCA0EB0B030193D7
:101EC0006B0662D5019B25F001019F4289B240F368
:101ED000A180002E00F0998015F0100240F09C8047
:101EE000BB460D4623E0AA465AF8040BC117D4E7B7
:101EF000AA461BF4807F5AF8041B01D10846F5E777
:101F00001BF4007F15BF48B208B241F3C01141F382
:101F1000C031C2E750EA0103C9D11BF0400FC6D05F
:101F2000002FC4D12BF0110295B2BB46019740F2AD
:101F3000064115EA01021CBF0BF1010B00222CE047
:101F40002BF010021FFA82FB0A231BF0800C49D0F1
:101F50001BF400711DBF073525F00705AA46AA46E8
:101F60001ABF5AF8080B69685AF8040B50EA0105C1
:101F700045D12BF016051BF0400FADB242D0002F1B
:101F800040D12BF0170295B2019715F0100248D0FE
:101F9000019B002E42D103F1010B29075AD4EB0714
:101FA00006D5D9456FDD0199A9EB0B035F18CB4628
:101FB0005B4649E04BF0100B10237826C5E7782BE1
:101FC00004D1C6F1780343F01003BEE7029B4146FB
:101FD000252098470028FFF647AF023447E608233C
:101FE0000026B2E7AA461BF480715AF8040BBDD054
:101FF0001BF400711ABFC0B2614680B2B6E72BF085
:10200000060295B20DF1180B54E725F01105ADB29B
:10201000BB468CE70D46B8E73B460D4603F1020B85
:10202000BBE7DDF804B082E7EF2A0001E82A0001EF
:10203000CDE904324146029B202098470028FFF654
:1020400013AF049B059A01339945F1DCA4EB0B0116
:10205000CC189B460AB3029B414630209847002883
:10206000FFF602AF8EB901342744019B391B994218
:1020700024DC1D465DBB019AA9EB0B0922445546A1
:102080001446914435E0019F92E7023441463046C0
:10209000029B98470028E7DAE6E640F206410D4247
:1020A000E2D015F0020F14BF2B20202015F4806F12
:1020B00004F10104414618BF2D20E9E7029B414687
:1020C00030209847002804F10104CEDACCE606ABB4
:1020D000013D4146585D029B98470028CADAC3E695
:1020E000029B414620209847002804F10104FFF696
:1020F000BBAEA9EB0403002BF2DCBFE5704700EB9D
:10210000C100408840087047F8B50346FFF7F7FF65
:10211000B0FA80F0C0F11F0003EB800CCA00DCF8BD
:102120001060171D0C4606328DB256B9012101FA16
:1021300000F0D9680143D960CCF81040DD539D52BE
:10214000F8BDF1000431585AD85303EBC0009E5239
:10215000C5805D52F4E7043A2DE9F041CC1D1144ED
:1021600024F0070421F007010E1BF708B7FA87F2E5
:10217000C2F12405AD004FF000080735C2F120027E
:10218000ED0804604146A760C4F80C80920004F199
:10219000100000F0C0FA6B0043F00103638004EB11
:1021A000C5027B1B5900A4F800805180A21924F8B5
:1021B0003550A2F80280A35304EBC70329465A887E
:1021C00042F001025A802046BDE8F041FFF79CBF73
:1021D000002070470FB407B504A951F8040B019112
:1021E000FEF790F803B05DF804EB04B07047704759
:1021F000012801D1EFF30583FEF7EABF014600682D
:10220000FFF7F6BF08B5FEF751F9BDE80840FEF745
:1022100071B900210120FFF7EBBF61B662B680F310
:102220001188BFF36F8F704772B6002383F3118854
:10223000BFF36F8FBFF34F8F30BF62B6BFF36F8FA7
:102240007047202809D9B0F1004F08D80138B0FAFA
:1022500080F0C0F11F0040007047082070473E200A
:10226000704708B5FEF756FD002008BD0368187ECC
:1022700000F001007047026993680BB1D1681847FC
:10228000704742689368588B5A8B91075A8BC0F3FA
:10229000800048BF40F00400D2075A8B48BF40F08E
:1022A0000200D1065A8B48BF40F0080092065A8BB4
:1022B00092B242F0370248BF40F010005A83704794
:1022C00010B5446804F10800FFF7D0FF38B1002AC8
:1022D000C1BFA3680A789A620120D8BF002010BD50
:1022E00008B5426802F10800FFF7C0FF18B1936813
:1022F000987D00F0010008BD0369187C70474268B2
:1023000093689A7D1B7E1A4214BF012000207047FB
:102310004268016993681B7EC3F340030B749368A2
:10232000BA221A76012070470369C3E90212704786
:10233000026913680B6053684B600020704708B552
:1023400000220C201146FEF7DBFABDE808400C2005
:10235000FEF7C8BA4268936880229A75704743684E
:10236000EFF31181202282F31288BFF36F8F9868F8
:10237000012282759A680223937581F31188BFF355
:102380006F8F70470368187EC0F38000704708B5F0
:1023900040680830FFF7F6FF08BD10B5446804F147
:1023A0000800FFF7EFFF48B1A368207B9B6A002A73
:1023B000DBB2C6BF0B7001206FF0150010BD426884
:1023C000936804221A757047027903681AB9DA69AA
:1023D000D106FCD17047DA69D206FCD1704738B516
:1023E0000D46FFF7F1FF0279036804464AB91A68FF
:1023F00065B142F082021A602046BDE83840FFF71E
:10240000E3BF1A6815B142F00202F4E722F00202BB
:10241000F1E710B503681A6822F070621A600129AA
:10242000036804D0022911D01A681A600AE01A68F9
:1024300042F080721A60FFF7C7FF0268536843F4E6
:1024400000535360BDE81040FFF7BEBF1A6842F06A
:1024500080721A60FFF7B8FF0268536823F40053D4
:10246000EFE7012908B504D002290BD04FF0FF3067
:1024700008BD0268536823F040035360FFF7A4FFD0
:102480000020F5E70268536843F04003F5E7F8B52C
:10249000456807690C46083500212846FFF79FFF6D
:1024A000E37933B9FB712179012906D0022904D0DF
:1024B00019B16FF085063046F8BD2846FFF7A9FF31
:1024C00023793B716179012902D00329F1D10221DD
:1024D0002846FFF7C6FF0028EBD163797B71A1790D
:1024E0000429E6D80531C9B22846FEF761FC002868
:1024F000DFD1A379BB7121682846FEF781FC06462F
:102500000028D8D123683B6001212846FFF767FFE8
:10251000D1E74268936880221A75704742689368D1
:1025200004229A75704710B5426802F108042046EB
:10253000FFF79CFE0028FAD09368996210BD08B599
:10254000426802F10800FFF71DFF28B193689B6AFB
:10255000DBB20B70002008BD4FF0FF30FBE7436893
:102560009A68012111759A680223137570477047A4
:1025700040B1C368587810F001001EBF1878B0FA57
:1025800080F040097047EFF31183202383F3128812
:10259000BFF36F8FFEE708B5FFF7F5FF10B5D0E981
:1025A000003433B90020E268537843F001035370DC
:1025B00010BD204698470028F4D00028B8BF4042FC
:1025C000E368FF28A8BFFF201870ECE700F0A3B86D
:1025D00000F093B8704708B52024EFF3118384F31B
:1025E0001288BFF36F8FFFF71FFEF6E7FFF7A8B85B
:1025F000D0E9003213605A600023C0E9003370470D
:1026000008B5FFF7F5FF437B23F002034373002374
:10261000836008BD10B5EFF31184202383F3128883
:10262000BFF36F8FFEF762FF84F31188BFF36F8FE4
:1026300010BD38B50446EFF31185202383F31288CB
:10264000BFF36F8F437B13F0280F0BD183680BB15F
:10265000FFF7D6FF637B51B903F0FB03637320469A
:10266000FEF744FF85F31188BFF36F8F38BD03F089
:10267000EB03F3E701211838FFF7DBBFEFF311811C
:10268000202282F31288BFF36F8F027BD2070CD512
:1026900081F31188BFF36F8F002383F31188BFF399
:1026A0006F8F0423184602DF7047437B1B0704D556
:1026B00081F31188BFF36F8F70470122FEF75CBF73
:1026C00010B5EFF31184202282F31288BFF36F8FCD
:1026D00003683BB1FFF768F9002084F31188BFF36A
:1026E0006F8F10BD6FF01500F7E710B400F10C0408
:1026F000C0E9034410BCFFF72EBD0A44914200F12B
:10270000FF3300D1704710B511F8014B03F8014FAA
:102710009142F9D110BD02440346934200D1704763
:1027200003F8011BF9E710B5024601448A4213463B
:1027300003D01C780132002CF8D1181A10BDF0B566
:10274000C3F137070446FFB203F01F031046082BFE
:10275000E6B233D0102B3ED06508A40844EA817459
:1027600045EAC1752D194FEA910242EB5102290940
:1027700041EA02716D1842EB1212290A41EA026124
:102780006D1842EB1222290C41EA02416D1842EB0E
:102790001242AD1842F10002EC0844EA4274D1083A
:1027A00004EB8402A6EB4205EDB2092D0CD90134ED
:1027B000A5F10A0541F10001EDB212E0E40844EA96
:1027C000417406F00705C908303554EA010200F8E3
:1027D000015BBCD1F0BD240944EA017406F00F0589
:1027E0000909092D84BFED19EDB2EDE70148006834
:0827F00070470000E801002021
:0827F8003CD8FF7F0100000046
:10280000FD1B000100000000590E000128280001F6
:10281000610D000100000000051000010000000033
:082820003D0D00010000000065
:10282800A52A0001AC290001F82900011C0000209C
:042838000802002072
:10283C000000000013220001000000001322000120
:10284C000000000013220001000000001322000110
:10285C000000000013220001000000001322000100
:10286C0000000000132200010000000013220001F0
:10287C0000000000132200010000000013220001E0
:10288C0000000000132200010000000013220001D0
:10289C00282800017722000100000000132200010B
:1028AC0000000000132200010000000013220001B0
:1028BC0000000000132200010000000013220001A0
:1028CC000000000013220001000000001322000190
:1028DC000000000013220001000000001322000180
:1028EC000000000013220001000000001322000170
:1028FC000000000013220001000000001322000160
:10290C00000000001322000100000000132200014F
:10291C00000000001322000100000000132200013F
:10292C00000000001322000100000000132200012F
:10293C00000000001322000100000000132200011F
:10294C00000000001322000100000000132200010F
:10295C0000000000132200010000000013220001FF
:10296C0000000000132200010000000013220001EF
:10297C00000000200000000000000B060200000018
:10298C009029000100000001912A00012600020795
:10299C0000000020992A000120000B1104000020E7
:1029AC0000C2010003000100000C00400000000008
:1029BC0001000000000000003F23000100000000A7
:1029CC0000000000000000000000000000000000FB
:1029DC00E0290001E829000101000000F0290001B4
:1029EC000200000005010205060101063F25000159
:1029FC0027250001832200018F24000131230001CF
:102A0C00C12200019B2300015F2300015F2500010F
:102A1C00E12200011D250001BF230001F922000164
:102A2C008F2300015523000113250001FF22000113
:102A3C0011230001292300010028000100280001B6
:102A4C00182800012028000128280001282800014E
:102A5C0077627A3435315F637572696F7369747933
:102A6C002F7069633332637831303132627A3235A8
:102A7C003034380048656C6C6F20576F726C642171
:102A8C002025730A00464C4153485F300053524195
:102A9C004D5F30000506070001736572636F6D4072
:102AAC003430303030633030006D61696E002A2A6A
:102ABC002A20426F6F74696E67205A65706879724C
:102ACC00204F53206275696C6420316431616163FD
:102ADC00333061353431202A2A2A0A00286E756C6D
:0C2AEC006C29002A666C6F61742A0000DF
:102AF800D121000100000000632200010000000055
:0C2B080000000000140000201400002059
:022B14000000BF
:102B180000000000801000200004000000000000F9
:042B280000000000A9
:042B2C0015E015E0BB
:04000005010007D11E
:00000001FF
